{
  "contractName": "JaJankenRestricted",
  "abi": [
    {
      "inputs": [
        {
          "internalType": "uint32",
          "name": "_ticketCost",
          "type": "uint32"
        },
        {
          "internalType": "uint8",
          "name": "_maxNbGames",
          "type": "uint8"
        },
        {
          "internalType": "uint32",
          "name": "_maxNbPlayerPerGame",
          "type": "uint32"
        },
        {
          "internalType": "uint8",
          "name": "_minimumNenToEarn",
          "type": "uint8"
        }
      ],
      "stateMutability": "nonpayable",
      "type": "constructor"
    },
    {
      "anonymous": false,
      "inputs": [
        {
          "indexed": false,
          "internalType": "address[]",
          "name": "winners",
          "type": "address[]"
        }
      ],
      "name": "EndGame",
      "type": "event"
    },
    {
      "anonymous": false,
      "inputs": [
        {
          "indexed": true,
          "internalType": "address",
          "name": "p1",
          "type": "address"
        },
        {
          "indexed": true,
          "internalType": "address",
          "name": "p2",
          "type": "address"
        },
        {
          "indexed": false,
          "internalType": "address",
          "name": "winner",
          "type": "address"
        }
      ],
      "name": "MatchEnd",
      "type": "event"
    },
    {
      "anonymous": false,
      "inputs": [
        {
          "indexed": true,
          "internalType": "address",
          "name": "matchId",
          "type": "address"
        }
      ],
      "name": "MatchPlayed",
      "type": "event"
    },
    {
      "anonymous": false,
      "inputs": [
        {
          "indexed": false,
          "internalType": "address",
          "name": "matchId",
          "type": "address"
        },
        {
          "indexed": true,
          "internalType": "address",
          "name": "p1",
          "type": "address"
        },
        {
          "indexed": true,
          "internalType": "address",
          "name": "p2",
          "type": "address"
        }
      ],
      "name": "MatchStart",
      "type": "event"
    },
    {
      "anonymous": false,
      "inputs": [],
      "name": "StartGame",
      "type": "event"
    },
    {
      "anonymous": false,
      "inputs": [
        {
          "indexed": true,
          "internalType": "address",
          "name": "player",
          "type": "address"
        },
        {
          "indexed": false,
          "internalType": "uint256",
          "name": "amount",
          "type": "uint256"
        }
      ],
      "name": "WithdrawRewards",
      "type": "event"
    },
    {
      "inputs": [],
      "name": "alivePlayers",
      "outputs": [
        {
          "internalType": "uint256",
          "name": "",
          "type": "uint256"
        }
      ],
      "stateMutability": "view",
      "type": "function"
    },
    {
      "inputs": [],
      "name": "balance",
      "outputs": [
        {
          "internalType": "uint256",
          "name": "",
          "type": "uint256"
        }
      ],
      "stateMutability": "view",
      "type": "function"
    },
    {
      "inputs": [],
      "name": "cleanupSink",
      "outputs": [],
      "stateMutability": "nonpayable",
      "type": "function"
    },
    {
      "inputs": [],
      "name": "entranceTicketFee",
      "outputs": [
        {
          "internalType": "uint256",
          "name": "",
          "type": "uint256"
        }
      ],
      "stateMutability": "view",
      "type": "function"
    },
    {
      "inputs": [],
      "name": "fees",
      "outputs": [
        {
          "internalType": "uint256",
          "name": "",
          "type": "uint256"
        }
      ],
      "stateMutability": "view",
      "type": "function"
    },
    {
      "inputs": [
        {
          "internalType": "address",
          "name": "_player",
          "type": "address"
        }
      ],
      "name": "getPlayer",
      "outputs": [
        {
          "components": [
            {
              "internalType": "uint32",
              "name": "nen",
              "type": "uint32"
            },
            {
              "internalType": "uint8",
              "name": "techniques",
              "type": "uint8"
            }
          ],
          "internalType": "struct JaJanken.Opponent",
          "name": "",
          "type": "tuple"
        }
      ],
      "stateMutability": "view",
      "type": "function"
    },
    {
      "inputs": [],
      "name": "getProfile",
      "outputs": [
        {
          "components": [
            {
              "internalType": "uint8",
              "name": "inMatch",
              "type": "uint8"
            },
            {
              "internalType": "uint8",
              "name": "guu",
              "type": "uint8"
            },
            {
              "internalType": "uint8",
              "name": "paa",
              "type": "uint8"
            },
            {
              "internalType": "uint8",
              "name": "chi",
              "type": "uint8"
            },
            {
              "internalType": "uint32",
              "name": "nen",
              "type": "uint32"
            }
          ],
          "internalType": "struct JaJanken.Player",
          "name": "",
          "type": "tuple"
        }
      ],
      "stateMutability": "view",
      "type": "function"
    },
    {
      "inputs": [],
      "name": "getTotalChi",
      "outputs": [
        {
          "internalType": "uint256",
          "name": "",
          "type": "uint256"
        }
      ],
      "stateMutability": "view",
      "type": "function"
    },
    {
      "inputs": [],
      "name": "getTotalGuu",
      "outputs": [
        {
          "internalType": "uint256",
          "name": "",
          "type": "uint256"
        }
      ],
      "stateMutability": "view",
      "type": "function"
    },
    {
      "inputs": [],
      "name": "getTotalPaa",
      "outputs": [
        {
          "internalType": "uint256",
          "name": "",
          "type": "uint256"
        }
      ],
      "stateMutability": "view",
      "type": "function"
    },
    {
      "inputs": [],
      "name": "getTotalPlayers",
      "outputs": [
        {
          "internalType": "uint256",
          "name": "",
          "type": "uint256"
        }
      ],
      "stateMutability": "view",
      "type": "function"
    },
    {
      "inputs": [
        {
          "internalType": "address",
          "name": "",
          "type": "address"
        }
      ],
      "name": "matches",
      "outputs": [
        {
          "internalType": "address",
          "name": "p2",
          "type": "address"
        },
        {
          "internalType": "bytes32",
          "name": "p1Hidden",
          "type": "bytes32"
        },
        {
          "internalType": "bytes32",
          "name": "p2Hidden",
          "type": "bytes32"
        },
        {
          "internalType": "enum JaJanken.Technique",
          "name": "pPlayed",
          "type": "uint8"
        },
        {
          "internalType": "uint256",
          "name": "playTime",
          "type": "uint256"
        },
        {
          "internalType": "uint256",
          "name": "revealTime",
          "type": "uint256"
        }
      ],
      "stateMutability": "view",
      "type": "function"
    },
    {
      "inputs": [],
      "name": "maxNbPlayerPerGame",
      "outputs": [
        {
          "internalType": "uint32",
          "name": "",
          "type": "uint32"
        }
      ],
      "stateMutability": "view",
      "type": "function"
    },
    {
      "inputs": [],
      "name": "name",
      "outputs": [
        {
          "internalType": "string",
          "name": "",
          "type": "string"
        }
      ],
      "stateMutability": "view",
      "type": "function"
    },
    {
      "inputs": [],
      "name": "owner",
      "outputs": [
        {
          "internalType": "address",
          "name": "",
          "type": "address"
        }
      ],
      "stateMutability": "view",
      "type": "function"
    },
    {
      "inputs": [],
      "name": "sink",
      "outputs": [
        {
          "internalType": "uint256",
          "name": "",
          "type": "uint256"
        }
      ],
      "stateMutability": "view",
      "type": "function"
    },
    {
      "inputs": [],
      "name": "totalChi",
      "outputs": [
        {
          "internalType": "uint256",
          "name": "",
          "type": "uint256"
        }
      ],
      "stateMutability": "view",
      "type": "function"
    },
    {
      "inputs": [],
      "name": "totalGuu",
      "outputs": [
        {
          "internalType": "uint256",
          "name": "",
          "type": "uint256"
        }
      ],
      "stateMutability": "view",
      "type": "function"
    },
    {
      "inputs": [],
      "name": "totalPaa",
      "outputs": [
        {
          "internalType": "uint256",
          "name": "",
          "type": "uint256"
        }
      ],
      "stateMutability": "view",
      "type": "function"
    },
    {
      "inputs": [],
      "name": "withdrawFees",
      "outputs": [],
      "stateMutability": "nonpayable",
      "type": "function"
    },
    {
      "stateMutability": "payable",
      "type": "receive"
    },
    {
      "inputs": [],
      "name": "joinGame",
      "outputs": [],
      "stateMutability": "payable",
      "type": "function"
    },
    {
      "inputs": [],
      "name": "joinMatch",
      "outputs": [],
      "stateMutability": "nonpayable",
      "type": "function"
    },
    {
      "inputs": [
        {
          "internalType": "bytes32",
          "name": "_commitment",
          "type": "bytes32"
        },
        {
          "internalType": "address",
          "name": "_matchId",
          "type": "address"
        }
      ],
      "name": "playMatch",
      "outputs": [],
      "stateMutability": "nonpayable",
      "type": "function"
    },
    {
      "inputs": [
        {
          "internalType": "enum JaJanken.Technique",
          "name": "_action",
          "type": "uint8"
        },
        {
          "internalType": "bytes32",
          "name": "_revealKey",
          "type": "bytes32"
        },
        {
          "internalType": "address",
          "name": "_matchId",
          "type": "address"
        }
      ],
      "name": "revealMatch",
      "outputs": [],
      "stateMutability": "nonpayable",
      "type": "function"
    },
    {
      "inputs": [
        {
          "internalType": "address",
          "name": "_matchId",
          "type": "address"
        }
      ],
      "name": "waitingForOpponentToPlay",
      "outputs": [
        {
          "internalType": "bool",
          "name": "",
          "type": "bool"
        }
      ],
      "stateMutability": "view",
      "type": "function"
    },
    {
      "inputs": [
        {
          "internalType": "address",
          "name": "_matchId",
          "type": "address"
        }
      ],
      "name": "waitingForOpponentToReveal",
      "outputs": [
        {
          "internalType": "bool",
          "name": "",
          "type": "bool"
        }
      ],
      "stateMutability": "view",
      "type": "function"
    },
    {
      "inputs": [
        {
          "internalType": "address",
          "name": "_matchId",
          "type": "address"
        }
      ],
      "name": "skipAfkDuringPlay",
      "outputs": [],
      "stateMutability": "nonpayable",
      "type": "function"
    },
    {
      "inputs": [
        {
          "internalType": "address",
          "name": "_matchId",
          "type": "address"
        }
      ],
      "name": "skipAfkDuringReveal",
      "outputs": [],
      "stateMutability": "nonpayable",
      "type": "function"
    },
    {
      "inputs": [],
      "name": "withdrawGains",
      "outputs": [],
      "stateMutability": "nonpayable",
      "type": "function"
    }
  ],
  "bytecode": "0x6101606040523480156200001257600080fd5b5060405162001f8738038062001f878339818101604052810190620000389190620003b5565b6040518060400160405280601881526020017f4a614a616e6b656e20526573747269637465642047616d6500000000000000008152508463ffffffff1660038060036004856000908051906020019062000094929190620002d1565b503373ffffffffffffffffffffffffffffffffffffffff1660808173ffffffffffffffffffffffffffffffffffffffff166c010000000000000000000000000281525050600380600060016003811115620000eb57fe5b6003811115620000f757fe5b815260200190815260200160002060006101000a81548160ff021916908360038111156200012157fe5b0217905550600160036000600260038111156200013a57fe5b60038111156200014657fe5b815260200190815260200160002060006101000a81548160ff021916908360038111156200017057fe5b02179055506002600360006003808111156200018857fe5b60038111156200019457fe5b815260200190815260200160002060006101000a81548160ff02191690836003811115620001be57fe5b02179055508260ff1660e08160ff167f010000000000000000000000000000000000000000000000000000000000000002815250508160ff166101008160ff167f010000000000000000000000000000000000000000000000000000000000000002815250508060ff166101208160ff167f010000000000000000000000000000000000000000000000000000000000000002815250508360ff1660c08160ff167f010000000000000000000000000000000000000000000000000000000000000002815250508460a081815250505050505050508163ffffffff166101408163ffffffff167c010000000000000000000000000000000000000000000000000000000002815250505050505062000472565b828054600181600116156101000203166002900490600052602060002090601f01602090048101928262000309576000855562000355565b82601f106200032457805160ff191683800117855562000355565b8280016001018555821562000355579182015b828111156200035457825182559160200191906001019062000337565b5b50905062000364919062000368565b5090565b5b808211156200038357600081600090555060010162000369565b5090565b60008151905062000398816200043e565b92915050565b600081519050620003af8162000458565b92915050565b60008060008060808587031215620003cc57600080fd5b6000620003dc8782880162000387565b9450506020620003ef878288016200039e565b9350506040620004028782880162000387565b925050606062000415878288016200039e565b91505092959194509250565b600063ffffffff82169050919050565b600060ff82169050919050565b620004498162000421565b81146200045557600080fd5b50565b620004638162000431565b81146200046f57600080fd5b50565b6080516c01000000000000000000000000900460a05160c0517f0100000000000000000000000000000000000000000000000000000000000000900460e0517f01000000000000000000000000000000000000000000000000000000000000009004610100517f01000000000000000000000000000000000000000000000000000000000000009004610120517f01000000000000000000000000000000000000000000000000000000000000009004610140517c010000000000000000000000000000000000000000000000000000000090046119ec6200059b60003980610f435280610f88528061115252505050806110dd52508061092e5250806109ec5280610ac45280611101528061112b5250806107885280610d5f5280610ea152506119ec6000f3fe6080604052600436106101e3576000357c0100000000000000000000000000000000000000000000000000000000900480635c12cd4b11610114578063b69ef8a8116100b2578063d4f77b1c11610081578063d4f77b1c14610617578063d6afc9b114610621578063da3b33931461064c578063eeb7c62514610677576101ea565b8063b69ef8a814610556578063c74e820e14610581578063cb13ec2d146105ac578063cd01ab16146105d5576101ea565b806367ae3507116100ee57806367ae3507146104c0578063739f9469146104d75780638da5cb5b146105005780639af1d35a1461052b576101ea565b80635c12cd4b1461042f5780635eb0ad5e1461046c57806365ea05d114610497576101ea565b806342c3287111610181578063476343ee1161015b578063476343ee146103ab578063483f0219146103c25780634f6968df146103d95780635745d71d14610404576101ea565b806342c328711461032a5780634529cae714610355578063464be0c714610380576101ea565b806325e1556e116101bd57806325e1556e1461025a57806328362bc714610297578063317f6744146102d457806332003bc3146102ff576101ea565b806302c0cdc4146101ef57806306fdde03146102065780631158ed6114610231576101ea565b366101ea57005b600080fd5b3480156101fb57600080fd5b506102046106a2565b005b34801561021257600080fd5b5061021b6106a4565b6040516102289190611735565b60405180910390f35b34801561023d57600080fd5b5061025860048036038101906102539190611240565b610742565b005b34801561026657600080fd5b50610281600480360381019061027c9190611217565b610746565b60405161028e919061171a565b60405180910390f35b3480156102a357600080fd5b506102be60048036038101906102b99190611217565b610751565b6040516102cb919061171a565b60405180910390f35b3480156102e057600080fd5b506102e961075c565b6040516102f6919061182d565b60405180910390f35b34801561030b57600080fd5b50610314610762565b604051610321919061182d565b60405180910390f35b34801561033657600080fd5b5061033f61076c565b60405161034c919061182d565b60405180910390f35b34801561036157600080fd5b5061036a610772565b604051610377919061182d565b60405180910390f35b34801561038c57600080fd5b5061039561077c565b6040516103a2919061182d565b60405180910390f35b3480156103b757600080fd5b506103c0610786565b005b3480156103ce57600080fd5b506103d76108c5565b005b3480156103e557600080fd5b506103ee610bd2565b6040516103fb919061182d565b60405180910390f35b34801561041057600080fd5b50610419610bd8565b604051610426919061182d565b60405180910390f35b34801561043b57600080fd5b5061045660048036038101906104519190611217565b610bde565b60405161046391906117f7565b60405180910390f35b34801561047857600080fd5b50610481610d4e565b60405161048e919061182d565b60405180910390f35b3480156104a357600080fd5b506104be60048036038101906104b9919061127c565b610d58565b005b3480156104cc57600080fd5b506104d5610d5d565b005b3480156104e357600080fd5b506104fe60048036038101906104f99190611217565b610e9c565b005b34801561050c57600080fd5b50610515610e9f565b604051610522919061169e565b60405180910390f35b34801561053757600080fd5b50610540610ec3565b60405161054d919061182d565b60405180910390f35b34801561056257600080fd5b5061056b610ec9565b604051610578919061182d565b60405180910390f35b34801561058d57600080fd5b50610596610ecf565b6040516105a3919061182d565b60405180910390f35b3480156105b857600080fd5b506105d360048036038101906105ce9190611217565b610ed5565b005b3480156105e157600080fd5b506105fc60048036038101906105f79190611217565b610ed8565b60405161060e969594939291906116b9565b60405180910390f35b61061f610f41565b005b34801561062d57600080fd5b50610636610fe6565b6040516106439190611812565b60405180910390f35b34801561065857600080fd5b506106616110d7565b60405161066e919061182d565b60405180910390f35b34801561068357600080fd5b5061068c611150565b6040516106999190611848565b60405180910390f35b565b60008054600181600116156101000203166002900480601f01602080910402602001604051908101604052809291908181526020018280546001816001161561010002031660029004801561073a5780601f1061070f5761010080835404028352916020019161073a565b820191906000526020600020905b81548152906001019060200180831161071d57829003601f168201915b505050505081565b5050565b600060019050919050565b600060019050919050565b600a5481565b6000600954905090565b60095481565b6000600854905090565b6000600a54905090565b7f000000000000000000000000000000000000000000000000000000000000000073ffffffffffffffffffffffffffffffffffffffff163373ffffffffffffffffffffffffffffffffffffffff1614610814576040517f08c379a000000000000000000000000000000000000000000000000000000000815260040161080b90611757565b60405180910390fd5b60003373ffffffffffffffffffffffffffffffffffffffff1660075460405161083c90611674565b60006040518083038185875af1925050503d8060008114610879576040519150601f19603f3d011682016040523d82523d6000602084013e61087e565b606091505b50509050806108c2576040517f08c379a00000000000000000000000000000000000000000000000000000000081526004016108b9906117b7565b60405180910390fd5b50565b6003808111156108d157fe5b600460009054906101000a900460ff1660038111156108ec57fe5b1461092c576040517f08c379a000000000000000000000000000000000000000000000000000000000815260040161092390611797565b60405180910390fd5b7f000000000000000000000000000000000000000000000000000000000000000060ff16600160003373ffffffffffffffffffffffffffffffffffffffff1673ffffffffffffffffffffffffffffffffffffffff16815260200190815260200160002060000160049054906101000a900463ffffffff1663ffffffff1610156109ea576040517f08c379a00000000000000000000000000000000000000000000000000000000081526004016109e190611777565b60405180910390fd5b7f0000000000000000000000000000000000000000000000000000000000000000600160003373ffffffffffffffffffffffffffffffffffffffff1673ffffffffffffffffffffffffffffffffffffffff16815260200190815260200160002060000160049054906101000a900463ffffffff1663ffffffff16026005541015610aa9576040517f08c379a0000000000000000000000000000000000000000000000000000000008152600401610aa0906117d7565b60405180910390fd5b60003373ffffffffffffffffffffffffffffffffffffffff167f0000000000000000000000000000000000000000000000000000000000000000600160003373ffffffffffffffffffffffffffffffffffffffff1673ffffffffffffffffffffffffffffffffffffffff16815260200190815260200160002060000160049054906101000a900463ffffffff1663ffffffff1602604051610b4990611689565b60006040518083038185875af1925050503d8060008114610b86576040519150601f19603f3d011682016040523d82523d6000602084013e610b8b565b606091505b5050905080610bcf576040517f08c379a0000000000000000000000000000000000000000000000000000000008152600401610bc6906117b7565b60405180910390fd5b50565b60085481565b600b5481565b610be6611174565b6040518060400160405280600160008573ffffffffffffffffffffffffffffffffffffffff1673ffffffffffffffffffffffffffffffffffffffff16815260200190815260200160002060000160049054906101000a900463ffffffff1663ffffffff168152602001600160008573ffffffffffffffffffffffffffffffffffffffff1673ffffffffffffffffffffffffffffffffffffffff16815260200190815260200160002060000160039054906101000a900460ff16600160008673ffffffffffffffffffffffffffffffffffffffff1673ffffffffffffffffffffffffffffffffffffffff16815260200190815260200160002060000160029054906101000a900460ff16600160008773ffffffffffffffffffffffffffffffffffffffff1673ffffffffffffffffffffffffffffffffffffffff16815260200190815260200160002060000160019054906101000a900460ff16010160ff168152509050919050565b6000600b54905090565b505050565b7f000000000000000000000000000000000000000000000000000000000000000073ffffffffffffffffffffffffffffffffffffffff163373ffffffffffffffffffffffffffffffffffffffff1614610deb576040517f08c379a0000000000000000000000000000000000000000000000000000000008152600401610de290611757565b60405180910390fd5b60003373ffffffffffffffffffffffffffffffffffffffff16600654604051610e139061165f565b60006040518083038185875af1925050503d8060008114610e50576040519150601f19603f3d011682016040523d82523d6000602084013e610e55565b606091505b5050905080610e99576040517f08c379a0000000000000000000000000000000000000000000000000000000008152600401610e90906117b7565b60405180910390fd5b50565b50565b7f000000000000000000000000000000000000000000000000000000000000000081565b60075481565b60055481565b60065481565b50565b60026020528060005260406000206000915090508060000160009054906101000a900473ffffffffffffffffffffffffffffffffffffffff16908060010154908060020154908060030160009054906101000a900460ff16908060040154908060050154905086565b7f000000000000000000000000000000000000000000000000000000000000000063ffffffff16600c541015610f8657600c6000815460010191905081905550610fe4565b7f000000000000000000000000000000000000000000000000000000000000000063ffffffff16600c541415610fe3577fa3dfc36410836473d29e0ff423ff6085677a40cae4f79b4b5057cf361a8f2aa360405160405180910390a15b5b565b610fee611197565b600160003373ffffffffffffffffffffffffffffffffffffffff1673ffffffffffffffffffffffffffffffffffffffff1681526020019081526020016000206040518060a00160405290816000820160009054906101000a900460ff1660ff1660ff1681526020016000820160019054906101000a900460ff1660ff1660ff1681526020016000820160029054906101000a900460ff1660ff1660ff1681526020016000820160039054906101000a900460ff1660ff1660ff1681526020016000820160049054906101000a900463ffffffff1663ffffffff1663ffffffff1681525050905090565b600060647f000000000000000000000000000000000000000000000000000000000000000060ff167f0000000000000000000000000000000000000000000000000000000000000000028161112857fe5b047f000000000000000000000000000000000000000000000000000000000000000001905090565b7f000000000000000000000000000000000000000000000000000000000000000081565b6040518060400160405280600063ffffffff168152602001600060ff1681525090565b6040518060a00160405280600060ff168152602001600060ff168152602001600060ff168152602001600060ff168152602001600063ffffffff1681525090565b6000813590506111e781611978565b92915050565b6000813590506111fc8161198f565b92915050565b600081359050611211816119a6565b92915050565b60006020828403121561122957600080fd5b6000611237848285016111d8565b91505092915050565b6000806040838503121561125357600080fd5b6000611261858286016111ed565b9250506020611272858286016111d8565b9150509250929050565b60008060006060848603121561129157600080fd5b600061129f86828701611202565b93505060206112b0868287016111ed565b92505060406112c1868287016111d8565b9150509250925092565b6112d48161188a565b82525050565b6112e38161189c565b82525050565b6112f2816118a8565b82525050565b6113018161190c565b82525050565b600061131282611863565b61131c8185611879565b935061132c81856020860161191e565b61133581611953565b840191505092915050565b600061134d602283611879565b91507f4f6e6c79206f776e65722063616e2063616c6c20746869732066756e6374696f60008301527f6e2e0000000000000000000000000000000000000000000000000000000000006020830152604082019050919050565b60006113b3602983611879565b91507f596f7520646964206e6f74206d65657420746865207265717569726564204e6560008301527f6e20616d6f756e742e00000000000000000000000000000000000000000000006020830152604082019050919050565b6000611419600c8361186e565b91507f636c65616e75702073696e6b00000000000000000000000000000000000000006000830152600c82019050919050565b6000611459601783611879565b91507f5468652067616d65206469646e277420656e64207965740000000000000000006000830152602082019050919050565b6000611499600d8361186e565b91507f77697468647261772066656573000000000000000000000000000000000000006000830152600d82019050919050565b60006114d960138361186e565b91507f456e6a6f7920796f7572207265776172647321000000000000000000000000006000830152601382019050919050565b6000611519600f83611879565b91507f7769746864726177206661696c656400000000000000000000000000000000006000830152602082019050919050565b6000611559601983611879565b91507f5468652047616d65206973206f7574206f66206d6f6e65792e000000000000006000830152602082019050919050565b6040820160008201516115a26000850182611632565b5060208201516115b56020850182611650565b50505050565b60a0820160008201516115d16000850182611650565b5060208201516115e46020850182611650565b5060408201516115f76040850182611650565b50606082015161160a6060850182611650565b50608082015161161d6080850182611632565b50505050565b61162c816118e5565b82525050565b61163b816118ef565b82525050565b61164a816118ef565b82525050565b611659816118ff565b82525050565b600061166a8261140c565b9150819050919050565b600061167f8261148c565b9150819050919050565b6000611694826114cc565b9150819050919050565b60006020820190506116b360008301846112cb565b92915050565b600060c0820190506116ce60008301896112cb565b6116db60208301886112e9565b6116e860408301876112e9565b6116f560608301866112f8565b6117026080830185611623565b61170f60a0830184611623565b979650505050505050565b600060208201905061172f60008301846112da565b92915050565b6000602082019050818103600083015261174f8184611307565b905092915050565b6000602082019050818103600083015261177081611340565b9050919050565b60006020820190508181036000830152611790816113a6565b9050919050565b600060208201905081810360008301526117b08161144c565b9050919050565b600060208201905081810360008301526117d08161150c565b9050919050565b600060208201905081810360008301526117f08161154c565b9050919050565b600060408201905061180c600083018461158c565b92915050565b600060a08201905061182760008301846115bb565b92915050565b60006020820190506118426000830184611623565b92915050565b600060208201905061185d6000830184611641565b92915050565b600081519050919050565b600081905092915050565b600082825260208201905092915050565b6000611895826118c5565b9050919050565b60008115159050919050565b6000819050919050565b60008190506118c082611964565b919050565b600073ffffffffffffffffffffffffffffffffffffffff82169050919050565b6000819050919050565b600063ffffffff82169050919050565b600060ff82169050919050565b6000611917826118b2565b9050919050565b60005b8381101561193c578082015181840152602081019050611921565b8381111561194b576000848401525b50505050565bfe5b6000601f19601f8301169050919050565b6004811061197557611974611951565b5b50565b6119818161188a565b811461198c57600080fd5b50565b611998816118a8565b81146119a357600080fd5b50565b600481106119b357600080fd5b5056fea26469706673582212201a48640c143731e515a24a5cdf6140cf38b37303b629f629a01d558bf2a4849064736f6c63430007040033",
  "immutableReferences": {
    "1158": [
      {
        "length": 32,
        "start": 1928
      },
      {
        "length": 32,
        "start": 3423
      },
      {
        "length": 32,
        "start": 3745
      }
    ],
    "1188": [
      {
        "length": 32,
        "start": 2540
      },
      {
        "length": 32,
        "start": 2756
      },
      {
        "length": 32,
        "start": 4353
      },
      {
        "length": 32,
        "start": 4395
      }
    ],
    "1190": [
      {
        "length": 32,
        "start": 2350
      }
    ],
    "1192": [
      {
        "length": 32,
        "start": 4317
      }
    ],
    "1544": [
      {
        "length": 32,
        "start": 3907
      },
      {
        "length": 32,
        "start": 3976
      },
      {
        "length": 32,
        "start": 4434
      }
    ]
  },
  "source": "pragma solidity ^0.7.4;\r\npragma experimental ABIEncoderV2;\r\n\r\nimport \"./JaJanken.sol\";\r\nimport \"./JaJankenGame.sol\";\r\n\r\n// SPDX-License-Identifier: GLWTPL\r\ncontract JaJankenRestricted is JaJankenGame {\r\n    uint32 immutable public maxNbPlayerPerGame;\r\n    uint countPlayers;\r\n\r\n    event StartGame();\r\n    event EndGame(address[] winners);\r\n\r\n    constructor(uint32 _ticketCost, uint8 _maxNbGames, uint32 _maxNbPlayerPerGame, uint8 _minimumNenToEarn) JaJankenGame(\"JaJanken Restricted Game\", _ticketCost, 3, 3, 3, 4) {\r\n        maxNbPlayerPerGame = _maxNbPlayerPerGame;\r\n    }\r\n\r\n\r\n    receive() external payable {}\r\n\r\n    function joinGame() external payable override(JaJanken) {\r\n        if (countPlayers < maxNbPlayerPerGame) {\r\n            ++countPlayers;\r\n        } else if (countPlayers == maxNbPlayerPerGame) {\r\n            emit StartGame();\r\n        }\r\n    }\r\n\r\n\r\n    function joinMatch() external override(JaJanken) {\r\n        // TODO\r\n    }\r\n\r\n    function playMatch(bytes32 _commitment, address _matchId) external override(JaJanken) {\r\n        // TODO\r\n    }\r\n\r\n    function revealMatch(Technique _action, bytes32 _revealKey, address _matchId) external override(JaJanken) {\r\n        // TODO\r\n    }\r\n\r\n    function isGameFull() private view returns (bool isFull) {\r\n        return countPlayers == maxNbPlayerPerGame;\r\n    }\r\n\r\n    function waitingForOpponentToPlay(address _matchId) external view override(JaJanken) returns (bool) {\r\n        // TODO\r\n        return true;\r\n    }\r\n\r\n    function waitingForOpponentToReveal(address _matchId) external view override(JaJanken) returns (bool){\r\n        // TODO\r\n        return true;\r\n    }\r\n\r\n    function skipAfkDuringPlay(address _matchId) external override(JaJanken) {\r\n        // TODO\r\n    }\r\n\r\n    function skipAfkDuringReveal(address _matchId) external override(JaJanken) {\r\n        // TODO\r\n    }\r\n\r\n    /**\r\n     * Withdraw gains from the Game\r\n     * only available at the end of the Game, do nothing otherwise\r\n     */\r\n    function withdrawGains() external override(JaJanken) {\r\n        require(gameState == GameState.GameEnded, \"The game didn't end yet\");\r\n        require(players[msg.sender].nen >= minimumNenToEarn, \"You did not meet the required Nen amount.\");\r\n        require(balance >= players[msg.sender].nen * ticketCost, \"The Game is out of money.\");\r\n        (bool success,) = msg.sender.call{value : players[msg.sender].nen * ticketCost}(\"Enjoy your rewards!\");\r\n        require(success, \"withdraw failed\");\r\n    }\r\n}",
  "sourcePath": "C:\\Users\\KevinGeorgesAndres\\Documents\\projects\\perso\\jajanken-evm\\contracts\\JaJankenRestricted.sol",
  "compiler": {
    "name": "solc",
    "version": "0.7.4+commit.3f05b770.Emscripten.clang"
  },
  "schemaVersion": "3.4.3",
  "updatedAt": "2021-10-28T06:13:34.921Z",
  "devdoc": {
    "kind": "dev",
    "methods": {},
    "version": 1
  },
  "userdoc": {
    "kind": "user",
    "methods": {
      "cleanupSink()": {
        "notice": "Cleanup sink only available for game owner"
      },
      "getPlayer(address)": {
        "notice": "Get the player profile stat for the current Game"
      },
      "getProfile()": {
        "notice": "Get your profile stat for the current Game"
      },
      "getTotalChi()": {
        "notice": "Get the number of Chi from alive players"
      },
      "getTotalGuu()": {
        "notice": "Get the number of Guu from alive players"
      },
      "getTotalPaa()": {
        "notice": "Get the number of Paa from alive players"
      },
      "getTotalPlayers()": {
        "notice": "Get the number of player alive in the game"
      },
      "joinGame()": {
        "notice": "Join a game, the caller must pay the required entrance ticket amount in ETH"
      },
      "joinMatch()": {
        "notice": "Join a queue in order to find an opponent to fight against -> Should emit a StartMatch event when an opponent is found"
      },
      "playMatch(bytes32,address)": {
        "notice": "Commit the player's action for his current match The action(Technique) must be hashed with a bytes32 key. so it can be saved with his hidden form. -> Should emit a MatchPlayed event when the last player of the Match commit his play"
      },
      "revealMatch(uint8,bytes32,address)": {
        "notice": "Reveal the player's action for his current match It is required to send the player's action with the key used to hash it previously for platMatch method -> Should emit a MatchEnd event when the last player of the Match reveal his play"
      },
      "skipAfkDuringPlay(address)": {
        "notice": "Kick your opponent from the match if conditions are met. You will win this match by default"
      },
      "skipAfkDuringReveal(address)": {
        "notice": "Kick your opponent from the match if conditions are met. You will win this match by default"
      },
      "waitingForOpponentToPlay(address)": {
        "notice": "This method will check if your opponent didn't play yet If this method return true, you will be allowed to call skipAfkDuringPlay to pass the turn of your opponent and win the match"
      },
      "waitingForOpponentToReveal(address)": {
        "notice": "This method will check if your opponent didn't reveal his play yet If this method return true, you will be allowed to call skipAfkDuringReveal to pass the turn of your opponent and win the match"
      },
      "withdrawFees()": {
        "notice": "Withdraw fees earning from the Game only available for game owner"
      },
      "withdrawGains()": {
        "notice": "Withdraw gains from the Game only available at the end of the Game, do nothing otherwise"
      }
    },
    "version": 1
  }
}