{
  "contractName": "JaJankenColiseum",
  "abi": [
    {
      "inputs": [
        {
          "internalType": "uint256",
          "name": "_ticketCost",
          "type": "uint256"
        }
      ],
      "stateMutability": "nonpayable",
      "type": "constructor"
    },
    {
      "anonymous": false,
      "inputs": [
        {
          "indexed": true,
          "internalType": "address",
          "name": "p1",
          "type": "address"
        },
        {
          "indexed": true,
          "internalType": "address",
          "name": "p2",
          "type": "address"
        },
        {
          "indexed": false,
          "internalType": "enum JaJanken.Technique",
          "name": "p1Played",
          "type": "uint8"
        },
        {
          "indexed": false,
          "internalType": "enum JaJanken.Technique",
          "name": "p2Played",
          "type": "uint8"
        },
        {
          "indexed": false,
          "internalType": "address",
          "name": "winner",
          "type": "address"
        }
      ],
      "name": "MatchEnd",
      "type": "event"
    },
    {
      "anonymous": false,
      "inputs": [
        {
          "indexed": true,
          "internalType": "address",
          "name": "matchId",
          "type": "address"
        }
      ],
      "name": "MatchPlayed",
      "type": "event"
    },
    {
      "anonymous": false,
      "inputs": [
        {
          "indexed": false,
          "internalType": "address",
          "name": "matchId",
          "type": "address"
        },
        {
          "indexed": true,
          "internalType": "address",
          "name": "p1",
          "type": "address"
        },
        {
          "indexed": true,
          "internalType": "address",
          "name": "p2",
          "type": "address"
        }
      ],
      "name": "MatchStart",
      "type": "event"
    },
    {
      "anonymous": false,
      "inputs": [
        {
          "indexed": true,
          "internalType": "address",
          "name": "p",
          "type": "address"
        }
      ],
      "name": "PlayerJoin",
      "type": "event"
    },
    {
      "anonymous": false,
      "inputs": [
        {
          "indexed": true,
          "internalType": "address",
          "name": "player",
          "type": "address"
        },
        {
          "indexed": false,
          "internalType": "uint256",
          "name": "amount",
          "type": "uint256"
        }
      ],
      "name": "WithdrawRewards",
      "type": "event"
    },
    {
      "inputs": [],
      "name": "alivePlayers",
      "outputs": [
        {
          "internalType": "uint256",
          "name": "",
          "type": "uint256"
        }
      ],
      "stateMutability": "view",
      "type": "function",
      "constant": true
    },
    {
      "inputs": [],
      "name": "balance",
      "outputs": [
        {
          "internalType": "uint256",
          "name": "",
          "type": "uint256"
        }
      ],
      "stateMutability": "view",
      "type": "function",
      "constant": true
    },
    {
      "inputs": [],
      "name": "cleanupSink",
      "outputs": [],
      "stateMutability": "nonpayable",
      "type": "function"
    },
    {
      "inputs": [
        {
          "internalType": "address",
          "name": "_yourAddress",
          "type": "address"
        },
        {
          "internalType": "enum JaJanken.Technique",
          "name": "_action",
          "type": "uint8"
        },
        {
          "internalType": "bytes32",
          "name": "_revealKey",
          "type": "bytes32"
        }
      ],
      "name": "encodeAction",
      "outputs": [
        {
          "internalType": "bytes32",
          "name": "",
          "type": "bytes32"
        }
      ],
      "stateMutability": "pure",
      "type": "function",
      "constant": true
    },
    {
      "inputs": [],
      "name": "entranceTicketFee",
      "outputs": [
        {
          "internalType": "uint256",
          "name": "",
          "type": "uint256"
        }
      ],
      "stateMutability": "view",
      "type": "function",
      "constant": true
    },
    {
      "inputs": [],
      "name": "fees",
      "outputs": [
        {
          "internalType": "uint256",
          "name": "",
          "type": "uint256"
        }
      ],
      "stateMutability": "view",
      "type": "function",
      "constant": true
    },
    {
      "inputs": [
        {
          "internalType": "address",
          "name": "_player",
          "type": "address"
        }
      ],
      "name": "getPlayer",
      "outputs": [
        {
          "components": [
            {
              "internalType": "uint32",
              "name": "nen",
              "type": "uint32"
            },
            {
              "internalType": "uint8",
              "name": "techniques",
              "type": "uint8"
            }
          ],
          "internalType": "struct JaJanken.Opponent",
          "name": "",
          "type": "tuple"
        }
      ],
      "stateMutability": "view",
      "type": "function",
      "constant": true
    },
    {
      "inputs": [],
      "name": "getProfile",
      "outputs": [
        {
          "components": [
            {
              "internalType": "uint8",
              "name": "guu",
              "type": "uint8"
            },
            {
              "internalType": "uint8",
              "name": "paa",
              "type": "uint8"
            },
            {
              "internalType": "uint8",
              "name": "chi",
              "type": "uint8"
            },
            {
              "internalType": "uint32",
              "name": "nen",
              "type": "uint32"
            },
            {
              "internalType": "address",
              "name": "inMatch",
              "type": "address"
            }
          ],
          "internalType": "struct JaJanken.Player",
          "name": "",
          "type": "tuple"
        }
      ],
      "stateMutability": "view",
      "type": "function",
      "constant": true
    },
    {
      "inputs": [],
      "name": "getTotalChi",
      "outputs": [
        {
          "internalType": "uint256",
          "name": "",
          "type": "uint256"
        }
      ],
      "stateMutability": "view",
      "type": "function",
      "constant": true
    },
    {
      "inputs": [],
      "name": "getTotalGuu",
      "outputs": [
        {
          "internalType": "uint256",
          "name": "",
          "type": "uint256"
        }
      ],
      "stateMutability": "view",
      "type": "function",
      "constant": true
    },
    {
      "inputs": [],
      "name": "getTotalPaa",
      "outputs": [
        {
          "internalType": "uint256",
          "name": "",
          "type": "uint256"
        }
      ],
      "stateMutability": "view",
      "type": "function",
      "constant": true
    },
    {
      "inputs": [],
      "name": "getTotalPlayers",
      "outputs": [
        {
          "internalType": "uint256",
          "name": "",
          "type": "uint256"
        }
      ],
      "stateMutability": "view",
      "type": "function",
      "constant": true
    },
    {
      "inputs": [
        {
          "internalType": "address",
          "name": "",
          "type": "address"
        }
      ],
      "name": "matches",
      "outputs": [
        {
          "internalType": "address",
          "name": "p2",
          "type": "address"
        },
        {
          "internalType": "bytes32",
          "name": "p1Hidden",
          "type": "bytes32"
        },
        {
          "internalType": "bytes32",
          "name": "p2Hidden",
          "type": "bytes32"
        },
        {
          "internalType": "enum JaJanken.Technique",
          "name": "pPlayed",
          "type": "uint8"
        },
        {
          "internalType": "uint256",
          "name": "playTime",
          "type": "uint256"
        },
        {
          "internalType": "uint256",
          "name": "revealTime",
          "type": "uint256"
        }
      ],
      "stateMutability": "view",
      "type": "function",
      "constant": true
    },
    {
      "inputs": [],
      "name": "name",
      "outputs": [
        {
          "internalType": "string",
          "name": "",
          "type": "string"
        }
      ],
      "stateMutability": "view",
      "type": "function",
      "constant": true
    },
    {
      "inputs": [],
      "name": "owner",
      "outputs": [
        {
          "internalType": "address",
          "name": "",
          "type": "address"
        }
      ],
      "stateMutability": "view",
      "type": "function",
      "constant": true
    },
    {
      "inputs": [],
      "name": "queued",
      "outputs": [
        {
          "internalType": "address",
          "name": "",
          "type": "address"
        }
      ],
      "stateMutability": "view",
      "type": "function",
      "constant": true
    },
    {
      "inputs": [],
      "name": "sink",
      "outputs": [
        {
          "internalType": "uint256",
          "name": "",
          "type": "uint256"
        }
      ],
      "stateMutability": "view",
      "type": "function",
      "constant": true
    },
    {
      "inputs": [],
      "name": "totalChi",
      "outputs": [
        {
          "internalType": "uint256",
          "name": "",
          "type": "uint256"
        }
      ],
      "stateMutability": "view",
      "type": "function",
      "constant": true
    },
    {
      "inputs": [],
      "name": "totalGuu",
      "outputs": [
        {
          "internalType": "uint256",
          "name": "",
          "type": "uint256"
        }
      ],
      "stateMutability": "view",
      "type": "function",
      "constant": true
    },
    {
      "inputs": [],
      "name": "totalPaa",
      "outputs": [
        {
          "internalType": "uint256",
          "name": "",
          "type": "uint256"
        }
      ],
      "stateMutability": "view",
      "type": "function",
      "constant": true
    },
    {
      "inputs": [],
      "name": "withdrawFees",
      "outputs": [],
      "stateMutability": "nonpayable",
      "type": "function"
    },
    {
      "stateMutability": "payable",
      "type": "receive",
      "payable": true
    },
    {
      "inputs": [],
      "name": "joinGame",
      "outputs": [],
      "stateMutability": "payable",
      "type": "function",
      "payable": true
    },
    {
      "inputs": [],
      "name": "joinMatch",
      "outputs": [],
      "stateMutability": "nonpayable",
      "type": "function"
    },
    {
      "inputs": [
        {
          "internalType": "bytes32",
          "name": "_commitment",
          "type": "bytes32"
        },
        {
          "internalType": "address",
          "name": "_matchId",
          "type": "address"
        }
      ],
      "name": "playMatch",
      "outputs": [],
      "stateMutability": "nonpayable",
      "type": "function"
    },
    {
      "inputs": [
        {
          "internalType": "address",
          "name": "_matchId",
          "type": "address"
        }
      ],
      "name": "forfeitMatch",
      "outputs": [],
      "stateMutability": "nonpayable",
      "type": "function"
    },
    {
      "inputs": [
        {
          "internalType": "enum JaJanken.Technique",
          "name": "_action",
          "type": "uint8"
        },
        {
          "internalType": "bytes32",
          "name": "_revealKey",
          "type": "bytes32"
        },
        {
          "internalType": "address",
          "name": "_matchId",
          "type": "address"
        }
      ],
      "name": "revealMatch",
      "outputs": [],
      "stateMutability": "nonpayable",
      "type": "function"
    },
    {
      "inputs": [
        {
          "internalType": "address",
          "name": "_matchId",
          "type": "address"
        }
      ],
      "name": "waitingForOpponentToPlay",
      "outputs": [
        {
          "internalType": "bool",
          "name": "",
          "type": "bool"
        }
      ],
      "stateMutability": "view",
      "type": "function",
      "constant": true
    },
    {
      "inputs": [
        {
          "internalType": "address",
          "name": "_matchId",
          "type": "address"
        }
      ],
      "name": "waitingForOpponentToReveal",
      "outputs": [
        {
          "internalType": "bool",
          "name": "",
          "type": "bool"
        }
      ],
      "stateMutability": "view",
      "type": "function",
      "constant": true
    },
    {
      "inputs": [
        {
          "internalType": "address",
          "name": "_matchId",
          "type": "address"
        }
      ],
      "name": "skipAfkDuringPlay",
      "outputs": [],
      "stateMutability": "nonpayable",
      "type": "function"
    },
    {
      "inputs": [
        {
          "internalType": "address",
          "name": "_matchId",
          "type": "address"
        }
      ],
      "name": "skipAfkDuringReveal",
      "outputs": [],
      "stateMutability": "nonpayable",
      "type": "function"
    },
    {
      "inputs": [],
      "name": "withdrawGains",
      "outputs": [],
      "stateMutability": "nonpayable",
      "type": "function"
    }
  ],
  "bytecode": "0x6101406040523480156200001257600080fd5b50604051620059b6380380620059b6833981810160405281019062000038919062000361565b6040518060400160405280601581526020017f546865204a614a616e6b656e20436f6c697365756d0000000000000000000000815250816003806003600485600090805190602001906200008e92919062000294565b503373ffffffffffffffffffffffffffffffffffffffff1660808173ffffffffffffffffffffffffffffffffffffffff166c010000000000000000000000000281525050600380600060016003811115620000e557fe5b6003811115620000f157fe5b815260200190815260200160002060006101000a81548160ff021916908360038111156200011b57fe5b0217905550600160036000600260038111156200013457fe5b60038111156200014057fe5b815260200190815260200160002060006101000a81548160ff021916908360038111156200016a57fe5b02179055506002600360006003808111156200018257fe5b60038111156200018e57fe5b815260200190815260200160002060006101000a81548160ff02191690836003811115620001b857fe5b02179055508260ff1660e08160ff167f010000000000000000000000000000000000000000000000000000000000000002815250508160ff166101008160ff167f010000000000000000000000000000000000000000000000000000000000000002815250508060ff166101208160ff167f010000000000000000000000000000000000000000000000000000000000000002815250508360ff1660c08160ff167f010000000000000000000000000000000000000000000000000000000000000002815250508460a0818152505050505050505050620003b1565b828054600181600116156101000203166002900490600052602060002090601f016020900481019282620002cc576000855562000318565b82601f10620002e757805160ff191683800117855562000318565b8280016001018555821562000318579182015b8281111562000317578251825591602001919060010190620002fa565b5b5090506200032791906200032b565b5090565b5b80821115620003465760008160009055506001016200032c565b5090565b6000815190506200035b8162000397565b92915050565b6000602082840312156200037457600080fd5b600062000384848285016200034a565b91505092915050565b6000819050919050565b620003a2816200038d565b8114620003ae57600080fd5b50565b6080516c01000000000000000000000000900460a05160c0517f0100000000000000000000000000000000000000000000000000000000000000900460e0517f01000000000000000000000000000000000000000000000000000000000000009004610100517f01000000000000000000000000000000000000000000000000000000000000009004610120517f010000000000000000000000000000000000000000000000000000000000000090046154bb620004fb6000398061332452806133a8528061342c528061346052806134db5280613556525080611ca65280611daa5280611f1b528061323b525080613153528061360352806137e9525080611a97525080611cca5280611dce5280611f3f528061317752806131a152806135d15280613627528061380d528061383752508061195852806126bf5280612c5852506154bb6000f3fe6080604052600436106101f9576000357c0100000000000000000000000000000000000000000000000000000000900480634f6968df1161011f5780639af1d35a116100b2578063cd01ab1611610081578063cd01ab161461067c578063d4f77b1c146106be578063d6afc9b1146106c8578063da3b3393146106f357610200565b80639af1d35a146105d2578063b69ef8a8146105fd578063c74e820e14610628578063cb13ec2d1461065357610200565b806365ea05d1116100ee57806365ea05d11461053e57806367ae350714610567578063739f94691461057e5780638da5cb5b146105a757610200565b80634f6968df146104805780635745d71d146104ab5780635c12cd4b146104d65780635eb0ad5e1461051357610200565b8063317f6744116101975780634529cae7116101665780634529cae7146103fc578063464be0c714610427578063476343ee14610452578063483f02191461046957610200565b8063317f67441461033e57806332003bc31461036957806336847b661461039457806342c32871146103d157610200565b80631158ed61116101d35780631158ed611461027057806316049ddf1461029957806325e1556e146102c457806328362bc71461030157610200565b806302c0cdc41461020557806306fdde031461021c5780630c5b6cff1461024757610200565b3661020057005b600080fd5b34801561021157600080fd5b5061021a61071e565b005b34801561022857600080fd5b50610231610cb1565b60405161023e919061504d565b60405180910390f35b34801561025357600080fd5b5061026e600480360381019061026991906146cb565b610d4f565b005b34801561027c57600080fd5b5061029760048036038101906102929190614795565b61120c565b005b3480156102a557600080fd5b506102ae611483565b6040516102bb9190614ef6565b60405180910390f35b3480156102d057600080fd5b506102eb60048036038101906102e691906146cb565b6114a9565b6040516102f89190614fa9565b60405180910390f35b34801561030d57600080fd5b50610328600480360381019061032391906146cb565b6116d1565b6040516103359190614fa9565b60405180910390f35b34801561034a57600080fd5b506103536118f6565b6040516103609190615245565b60405180910390f35b34801561037557600080fd5b5061037e6118fc565b60405161038b9190615245565b60405180910390f35b3480156103a057600080fd5b506103bb60048036038101906103b691906146f4565b611906565b6040516103c89190614fc4565b60405180910390f35b3480156103dd57600080fd5b506103e661193c565b6040516103f39190615245565b60405180910390f35b34801561040857600080fd5b50610411611942565b60405161041e9190615245565b60405180910390f35b34801561043357600080fd5b5061043c61194c565b6040516104499190615245565b60405180910390f35b34801561045e57600080fd5b50610467611956565b005b34801561047557600080fd5b5061047e611a95565b005b34801561048c57600080fd5b50610495611fd8565b6040516104a29190615245565b60405180910390f35b3480156104b757600080fd5b506104c0611fde565b6040516104cd9190615245565b60405180910390f35b3480156104e257600080fd5b506104fd60048036038101906104f891906146cb565b611fe4565b60405161050a919061520f565b60405180910390f35b34801561051f57600080fd5b50610528612154565b6040516105359190615245565b60405180910390f35b34801561054a57600080fd5b50610565600480360381019061056091906147d1565b61215e565b005b34801561057357600080fd5b5061057c6126bd565b005b34801561058a57600080fd5b506105a560048036038101906105a091906146cb565b6127fc565b005b3480156105b357600080fd5b506105bc612c56565b6040516105c99190614ef6565b60405180910390f35b3480156105de57600080fd5b506105e7612c7a565b6040516105f49190615245565b60405180910390f35b34801561060957600080fd5b50610612612c80565b60405161061f9190615245565b60405180910390f35b34801561063457600080fd5b5061063d612c86565b60405161064a9190615245565b60405180910390f35b34801561065f57600080fd5b5061067a600480360381019061067591906146cb565b612c8c565b005b34801561068857600080fd5b506106a3600480360381019061069e91906146cb565b6130e6565b6040516106b596959493929190614f48565b60405180910390f35b6106c661314f565b005b3480156106d457600080fd5b506106dd6136b9565b6040516106ea919061522a565b60405180910390f35b3480156106ff57600080fd5b506107086137e3565b6040516107159190615245565b60405180910390f35b3373ffffffffffffffffffffffffffffffffffffffff16600c60009054906101000a900473ffffffffffffffffffffffffffffffffffffffff1673ffffffffffffffffffffffffffffffffffffffff1614156107af576040517f08c379a00000000000000000000000000000000000000000000000000000000081526004016107a69061506f565b60405180910390fd5b600073ffffffffffffffffffffffffffffffffffffffff16600160003373ffffffffffffffffffffffffffffffffffffffff1673ffffffffffffffffffffffffffffffffffffffff16815260200190815260200160002060000160079054906101000a900473ffffffffffffffffffffffffffffffffffffffff1673ffffffffffffffffffffffffffffffffffffffff1614610880576040517f08c379a00000000000000000000000000000000000000000000000000000000081526004016108779061514f565b60405180910390fd5b6000600160003373ffffffffffffffffffffffffffffffffffffffff1673ffffffffffffffffffffffffffffffffffffffff16815260200190815260200160002060000160039054906101000a900463ffffffff1663ffffffff161161091b576040517f08c379a0000000000000000000000000000000000000000000000000000000008152600401610912906151cf565b60405180910390fd5b600073ffffffffffffffffffffffffffffffffffffffff16600c60009054906101000a900473ffffffffffffffffffffffffffffffffffffffff1673ffffffffffffffffffffffffffffffffffffffff1614156109b85733600c60006101000a81548173ffffffffffffffffffffffffffffffffffffffff021916908373ffffffffffffffffffffffffffffffffffffffff160217905550610caf565b3360026000600c60009054906101000a900473ffffffffffffffffffffffffffffffffffffffff1673ffffffffffffffffffffffffffffffffffffffff1673ffffffffffffffffffffffffffffffffffffffff16815260200190815260200160002060000160006101000a81548173ffffffffffffffffffffffffffffffffffffffff021916908373ffffffffffffffffffffffffffffffffffffffff160217905550600c60009054906101000a900473ffffffffffffffffffffffffffffffffffffffff1660016000600c60009054906101000a900473ffffffffffffffffffffffffffffffffffffffff1673ffffffffffffffffffffffffffffffffffffffff1673ffffffffffffffffffffffffffffffffffffffff16815260200190815260200160002060000160076101000a81548173ffffffffffffffffffffffffffffffffffffffff021916908373ffffffffffffffffffffffffffffffffffffffff160217905550600c60009054906101000a900473ffffffffffffffffffffffffffffffffffffffff16600160003373ffffffffffffffffffffffffffffffffffffffff1673ffffffffffffffffffffffffffffffffffffffff16815260200190815260200160002060000160076101000a81548173ffffffffffffffffffffffffffffffffffffffff021916908373ffffffffffffffffffffffffffffffffffffffff1602179055503373ffffffffffffffffffffffffffffffffffffffff16600c60009054906101000a900473ffffffffffffffffffffffffffffffffffffffff1673ffffffffffffffffffffffffffffffffffffffff167f638d6a5e87537cd02bf592bfb8916c30a2140d333b0ce073b4b0f8cc2d298a3f600c60009054906101000a900473ffffffffffffffffffffffffffffffffffffffff16604051610c649190614ef6565b60405180910390a36000600c60006101000a81548173ffffffffffffffffffffffffffffffffffffffff021916908373ffffffffffffffffffffffffffffffffffffffff1602179055505b565b60008054600181600116156101000203166002900480601f016020809104026020016040519081016040528092919081815260200182805460018160011615610100020316600290048015610d475780601f10610d1c57610100808354040283529160200191610d47565b820191906000526020600020905b815481529060010190602001808311610d2a57829003601f168201915b505050505081565b60008173ffffffffffffffffffffffffffffffffffffffff163373ffffffffffffffffffffffffffffffffffffffff161415610def57600260008373ffffffffffffffffffffffffffffffffffffffff1673ffffffffffffffffffffffffffffffffffffffff16815260200190815260200160002060000160009054906101000a900473ffffffffffffffffffffffffffffffffffffffff169050610ec9565b600260008373ffffffffffffffffffffffffffffffffffffffff1673ffffffffffffffffffffffffffffffffffffffff16815260200190815260200160002060000160009054906101000a900473ffffffffffffffffffffffffffffffffffffffff1673ffffffffffffffffffffffffffffffffffffffff163373ffffffffffffffffffffffffffffffffffffffff161415610e8d57819050610ec8565b6040517f08c379a0000000000000000000000000000000000000000000000000000000008152600401610ebf906150ef565b60405180910390fd5b5b600160003373ffffffffffffffffffffffffffffffffffffffff1673ffffffffffffffffffffffffffffffffffffffff168152602001908152602001600020600001600381819054906101000a900463ffffffff166001900391906101000a81548163ffffffff021916908363ffffffff160217905550600160008273ffffffffffffffffffffffffffffffffffffffff1673ffffffffffffffffffffffffffffffffffffffff168152602001908152602001600020600001600381819054906101000a900463ffffffff1660010191906101000a81548163ffffffff021916908363ffffffff1602179055506000600160003373ffffffffffffffffffffffffffffffffffffffff1673ffffffffffffffffffffffffffffffffffffffff16815260200190815260200160002060000160076101000a81548173ffffffffffffffffffffffffffffffffffffffff021916908373ffffffffffffffffffffffffffffffffffffffff1602179055506000600160008373ffffffffffffffffffffffffffffffffffffffff1673ffffffffffffffffffffffffffffffffffffffff16815260200190815260200160002060000160076101000a81548173ffffffffffffffffffffffffffffffffffffffff021916908373ffffffffffffffffffffffffffffffffffffffff1602179055506110c261458e565b80600260008573ffffffffffffffffffffffffffffffffffffffff1673ffffffffffffffffffffffffffffffffffffffff16815260200190815260200160002060008201518160000160006101000a81548173ffffffffffffffffffffffffffffffffffffffff021916908373ffffffffffffffffffffffffffffffffffffffff160217905550602082015181600101556040820151816002015560608201518160030160006101000a81548160ff0219169083600381111561118157fe5b02179055506080820151816004015560a082015181600501559050508173ffffffffffffffffffffffffffffffffffffffff163373ffffffffffffffffffffffffffffffffffffffff167f3ac6b951e4977329fd26cc368d72393ec0e74b115f5e6657d182a75eb43667a9600080866040516111ff93929190614fdf565b60405180910390a3505050565b8073ffffffffffffffffffffffffffffffffffffffff163373ffffffffffffffffffffffffffffffffffffffff16141561128c5781600260008373ffffffffffffffffffffffffffffffffffffffff1673ffffffffffffffffffffffffffffffffffffffff168152602001908152602001600020600101819055506113aa565b600260008273ffffffffffffffffffffffffffffffffffffffff1673ffffffffffffffffffffffffffffffffffffffff16815260200190815260200160002060000160009054906101000a900473ffffffffffffffffffffffffffffffffffffffff1673ffffffffffffffffffffffffffffffffffffffff163373ffffffffffffffffffffffffffffffffffffffff16141561136e5781600260008373ffffffffffffffffffffffffffffffffffffffff1673ffffffffffffffffffffffffffffffffffffffff168152602001908152602001600020600201819055506113a9565b6040517f08c379a00000000000000000000000000000000000000000000000000000000081526004016113a0906150ef565b60405180910390fd5b5b6000600260008373ffffffffffffffffffffffffffffffffffffffff1673ffffffffffffffffffffffffffffffffffffffff1681526020019081526020016000206004015414611438578073ffffffffffffffffffffffffffffffffffffffff167f37198fcc7fd6b816a2d208ab394ca4fef0c9813769c325ee8a186ee452c24b7160405160405180910390a25b42600260008373ffffffffffffffffffffffffffffffffffffffff1673ffffffffffffffffffffffffffffffffffffffff168152602001908152602001600020600401819055505050565b600c60009054906101000a900473ffffffffffffffffffffffffffffffffffffffff1681565b60006114b361458e565b600260008473ffffffffffffffffffffffffffffffffffffffff1673ffffffffffffffffffffffffffffffffffffffff1681526020019081526020016000206040518060c00160405290816000820160009054906101000a900473ffffffffffffffffffffffffffffffffffffffff1673ffffffffffffffffffffffffffffffffffffffff1673ffffffffffffffffffffffffffffffffffffffff16815260200160018201548152602001600282015481526020016003820160009054906101000a900460ff16600381111561158557fe5b600381111561159057fe5b81526020016004820154815260200160058201548152505090508273ffffffffffffffffffffffffffffffffffffffff163373ffffffffffffffffffffffffffffffffffffffff161415806116155750806000015173ffffffffffffffffffffffffffffffffffffffff163373ffffffffffffffffffffffffffffffffffffffff1614155b15611655576040517f08c379a000000000000000000000000000000000000000000000000000000000815260040161164c906150ef565b60405180910390fd5b600060010281602001511415801561167557506000600102816040015114155b156116b5576040517f08c379a00000000000000000000000000000000000000000000000000000000081526004016116ac9061510f565b60405180910390fd5b6002603c82608001514203816116c757fe5b0411915050919050565b60006116db61458e565b600260008473ffffffffffffffffffffffffffffffffffffffff1673ffffffffffffffffffffffffffffffffffffffff1681526020019081526020016000206040518060c00160405290816000820160009054906101000a900473ffffffffffffffffffffffffffffffffffffffff1673ffffffffffffffffffffffffffffffffffffffff1673ffffffffffffffffffffffffffffffffffffffff16815260200160018201548152602001600282015481526020016003820160009054906101000a900460ff1660038111156117ad57fe5b60038111156117b857fe5b81526020016004820154815260200160058201548152505090508273ffffffffffffffffffffffffffffffffffffffff163373ffffffffffffffffffffffffffffffffffffffff1614158061183d5750806000015173ffffffffffffffffffffffffffffffffffffffff163373ffffffffffffffffffffffffffffffffffffffff1614155b1561187d576040517f08c379a0000000000000000000000000000000000000000000000000000000008152600401611874906150ef565b60405180910390fd5b60006001028160200151148061189a575060006001028160400151145b156118da576040517f08c379a00000000000000000000000000000000000000000000000000000000081526004016118d1906150af565b60405180910390fd5b6002603c8260a001514203816118ec57fe5b0411915050919050565b600a5481565b6000600954905090565b600083838360405160200161191d93929190614e7a565b6040516020818303038152906040528051906020012090509392505050565b60095481565b6000600854905090565b6000600a54905090565b7f000000000000000000000000000000000000000000000000000000000000000073ffffffffffffffffffffffffffffffffffffffff163373ffffffffffffffffffffffffffffffffffffffff16146119e4576040517f08c379a00000000000000000000000000000000000000000000000000000000081526004016119db9061508f565b60405180910390fd5b60003373ffffffffffffffffffffffffffffffffffffffff16600754604051611a0c90614ecc565b60006040518083038185875af1925050503d8060008114611a49576040519150601f19603f3d011682016040523d82523d6000602084013e611a4e565b606091505b5050905080611a92576040517f08c379a0000000000000000000000000000000000000000000000000000000008152600401611a89906151ef565b60405180910390fd5b50565b7f000000000000000000000000000000000000000000000000000000000000000060ff16600160003373ffffffffffffffffffffffffffffffffffffffff1673ffffffffffffffffffffffffffffffffffffffff16815260200190815260200160002060000160039054906101000a900463ffffffff1663ffffffff161015611b53576040517f08c379a0000000000000000000000000000000000000000000000000000000008152600401611b4a9061512f565b60405180910390fd5b6000600160003373ffffffffffffffffffffffffffffffffffffffff1673ffffffffffffffffffffffffffffffffffffffff16815260200190815260200160002060000160019054906101000a900460ff1660ff16148015611c0757506000600160003373ffffffffffffffffffffffffffffffffffffffff1673ffffffffffffffffffffffffffffffffffffffff16815260200190815260200160002060000160029054906101000a900460ff1660ff16145b8015611c6557506000600160003373ffffffffffffffffffffffffffffffffffffffff1673ffffffffffffffffffffffffffffffffffffffff16815260200190815260200160002060000160009054906101000a900460ff1660ff16145b611ca4576040517f08c379a0000000000000000000000000000000000000000000000000000000008152600401611c9b906150cf565b60405180910390fd5b7f000000000000000000000000000000000000000000000000000000000000000060ff167f000000000000000000000000000000000000000000000000000000000000000081611cf057fe5b04600160003373ffffffffffffffffffffffffffffffffffffffff1673ffffffffffffffffffffffffffffffffffffffff16815260200190815260200160002060000160039054906101000a900463ffffffff1663ffffffff16026005541015611d8f576040517f08c379a0000000000000000000000000000000000000000000000000000000008152600401611d86906151af565b60405180910390fd5b60003373ffffffffffffffffffffffffffffffffffffffff167f000000000000000000000000000000000000000000000000000000000000000060ff167f000000000000000000000000000000000000000000000000000000000000000081611df457fe5b04600160003373ffffffffffffffffffffffffffffffffffffffff1673ffffffffffffffffffffffffffffffffffffffff16815260200190815260200160002060000160039054906101000a900463ffffffff1663ffffffff1602604051611e5b90614ee1565b60006040518083038185875af1925050503d8060008114611e98576040519150601f19603f3d011682016040523d82523d6000602084013e611e9d565b606091505b5050905080611ee1576040517f08c379a0000000000000000000000000000000000000000000000000000000008152600401611ed8906151ef565b60405180910390fd5b3373ffffffffffffffffffffffffffffffffffffffff167faa1377f7ec93c239e959efa811f7b8554c036fd7a706c23e58024626a8f3db967f000000000000000000000000000000000000000000000000000000000000000060ff167f000000000000000000000000000000000000000000000000000000000000000081611f6557fe5b04600160003373ffffffffffffffffffffffffffffffffffffffff1673ffffffffffffffffffffffffffffffffffffffff16815260200190815260200160002060000160039054906101000a900463ffffffff1663ffffffff1602604051611fcd9190615245565b60405180910390a250565b60085481565b600b5481565b611fec6145eb565b6040518060400160405280600160008573ffffffffffffffffffffffffffffffffffffffff1673ffffffffffffffffffffffffffffffffffffffff16815260200190815260200160002060000160039054906101000a900463ffffffff1663ffffffff168152602001600160008573ffffffffffffffffffffffffffffffffffffffff1673ffffffffffffffffffffffffffffffffffffffff16815260200190815260200160002060000160029054906101000a900460ff16600160008673ffffffffffffffffffffffffffffffffffffffff1673ffffffffffffffffffffffffffffffffffffffff16815260200190815260200160002060000160019054906101000a900460ff16600160008773ffffffffffffffffffffffffffffffffffffffff1673ffffffffffffffffffffffffffffffffffffffff16815260200190815260200160002060000160009054906101000a900460ff16010160ff168152509050919050565b6000600b54905090565b61216661458e565b600260008373ffffffffffffffffffffffffffffffffffffffff1673ffffffffffffffffffffffffffffffffffffffff1681526020019081526020016000206040518060c00160405290816000820160009054906101000a900473ffffffffffffffffffffffffffffffffffffffff1673ffffffffffffffffffffffffffffffffffffffff1673ffffffffffffffffffffffffffffffffffffffff16815260200160018201548152602001600282015481526020016003820160009054906101000a900460ff16600381111561223857fe5b600381111561224357fe5b81526020016004820154815260200160058201548152505090508173ffffffffffffffffffffffffffffffffffffffff163373ffffffffffffffffffffffffffffffffffffffff16141561246a5780602001513073ffffffffffffffffffffffffffffffffffffffff166336847b663387876040518463ffffffff167c01000000000000000000000000000000000000000000000000000000000281526004016122ef93929190614f11565b60206040518083038186803b15801561230757600080fd5b505afa15801561231b573d6000803e3d6000fd5b505050506040513d601f19601f8201168201806040525081019061233f919061476c565b1461237f576040517f08c379a00000000000000000000000000000000000000000000000000000000081526004016123769061518f565b60405180910390fd5b6000600381111561238c57fe5b8160600151600381111561239c57fe5b146123ba576123b582826000015186846060015161385c565b612465565b83600260008473ffffffffffffffffffffffffffffffffffffffff1673ffffffffffffffffffffffffffffffffffffffff16815260200190815260200160002060030160006101000a81548160ff0219169083600381111561241857fe5b021790555042600260008473ffffffffffffffffffffffffffffffffffffffff1673ffffffffffffffffffffffffffffffffffffffff168152602001908152602001600020600501819055505b6126b7565b806000015173ffffffffffffffffffffffffffffffffffffffff163373ffffffffffffffffffffffffffffffffffffffff16141561267b5780604001513073ffffffffffffffffffffffffffffffffffffffff166336847b663387876040518463ffffffff167c010000000000000000000000000000000000000000000000000000000002815260040161250093929190614f11565b60206040518083038186803b15801561251857600080fd5b505afa15801561252c573d6000803e3d6000fd5b505050506040513d601f19601f82011682018060405250810190612550919061476c565b14612590576040517f08c379a00000000000000000000000000000000000000000000000000000000081526004016125879061518f565b60405180910390fd5b6000600381111561259d57fe5b816060015160038111156125ad57fe5b146125cb576125c682826000015183606001518761385c565b612676565b83600260008473ffffffffffffffffffffffffffffffffffffffff1673ffffffffffffffffffffffffffffffffffffffff16815260200190815260200160002060030160006101000a81548160ff0219169083600381111561262957fe5b021790555042600260008473ffffffffffffffffffffffffffffffffffffffff1673ffffffffffffffffffffffffffffffffffffffff168152602001908152602001600020600501819055505b6126b6565b6040517f08c379a00000000000000000000000000000000000000000000000000000000081526004016126ad906150ef565b60405180910390fd5b5b50505050565b7f000000000000000000000000000000000000000000000000000000000000000073ffffffffffffffffffffffffffffffffffffffff163373ffffffffffffffffffffffffffffffffffffffff161461274b576040517f08c379a00000000000000000000000000000000000000000000000000000000081526004016127429061508f565b60405180910390fd5b60003373ffffffffffffffffffffffffffffffffffffffff1660065460405161277390614eb7565b60006040518083038185875af1925050503d80600081146127b0576040519150601f19603f3d011682016040523d82523d6000602084013e6127b5565b606091505b50509050806127f9576040517f08c379a00000000000000000000000000000000000000000000000000000000081526004016127f0906151ef565b60405180910390fd5b50565b3073ffffffffffffffffffffffffffffffffffffffff166325e1556e826040518263ffffffff167c01000000000000000000000000000000000000000000000000000000000281526004016128519190614ef6565b60206040518083038186803b15801561286957600080fd5b505afa15801561287d573d6000803e3d6000fd5b505050506040513d601f19601f820116820180604052508101906128a19190614743565b15612c53578073ffffffffffffffffffffffffffffffffffffffff163373ffffffffffffffffffffffffffffffffffffffff161415612afa57600160003373ffffffffffffffffffffffffffffffffffffffff1673ffffffffffffffffffffffffffffffffffffffff168152602001908152602001600020600001600381819054906101000a900463ffffffff1660010191906101000a81548163ffffffff021916908363ffffffff16021790555060016000600260008473ffffffffffffffffffffffffffffffffffffffff1673ffffffffffffffffffffffffffffffffffffffff16815260200190815260200160002060000160009054906101000a900473ffffffffffffffffffffffffffffffffffffffff1673ffffffffffffffffffffffffffffffffffffffff1673ffffffffffffffffffffffffffffffffffffffff168152602001908152602001600020600001600381819054906101000a900463ffffffff166001900391906101000a81548163ffffffff021916908363ffffffff160217905550600260008273ffffffffffffffffffffffffffffffffffffffff1673ffffffffffffffffffffffffffffffffffffffff16815260200190815260200160002060000160009054906101000a900473ffffffffffffffffffffffffffffffffffffffff1673ffffffffffffffffffffffffffffffffffffffff163373ffffffffffffffffffffffffffffffffffffffff167f3ac6b951e4977329fd26cc368d72393ec0e74b115f5e6657d182a75eb43667a960008033604051612aed93929190615016565b60405180910390a3612c52565b600160003373ffffffffffffffffffffffffffffffffffffffff1673ffffffffffffffffffffffffffffffffffffffff168152602001908152602001600020600001600381819054906101000a900463ffffffff1660010191906101000a81548163ffffffff021916908363ffffffff160217905550600160008273ffffffffffffffffffffffffffffffffffffffff1673ffffffffffffffffffffffffffffffffffffffff168152602001908152602001600020600001600381819054906101000a900463ffffffff166001900391906101000a81548163ffffffff021916908363ffffffff1602179055508073ffffffffffffffffffffffffffffffffffffffff163373ffffffffffffffffffffffffffffffffffffffff167f3ac6b951e4977329fd26cc368d72393ec0e74b115f5e6657d182a75eb43667a960008033604051612c4993929190615016565b60405180910390a35b5b50565b7f000000000000000000000000000000000000000000000000000000000000000081565b60075481565b60055481565b60065481565b3073ffffffffffffffffffffffffffffffffffffffff166328362bc7826040518263ffffffff167c0100000000000000000000000000000000000000000000000000000000028152600401612ce19190614ef6565b60206040518083038186803b158015612cf957600080fd5b505afa158015612d0d573d6000803e3d6000fd5b505050506040513d601f19601f82011682018060405250810190612d319190614743565b156130e3578073ffffffffffffffffffffffffffffffffffffffff163373ffffffffffffffffffffffffffffffffffffffff161415612f8a57600160003373ffffffffffffffffffffffffffffffffffffffff1673ffffffffffffffffffffffffffffffffffffffff168152602001908152602001600020600001600381819054906101000a900463ffffffff1660010191906101000a81548163ffffffff021916908363ffffffff16021790555060016000600260008473ffffffffffffffffffffffffffffffffffffffff1673ffffffffffffffffffffffffffffffffffffffff16815260200190815260200160002060000160009054906101000a900473ffffffffffffffffffffffffffffffffffffffff1673ffffffffffffffffffffffffffffffffffffffff1673ffffffffffffffffffffffffffffffffffffffff168152602001908152602001600020600001600381819054906101000a900463ffffffff166001900391906101000a81548163ffffffff021916908363ffffffff160217905550600260008273ffffffffffffffffffffffffffffffffffffffff1673ffffffffffffffffffffffffffffffffffffffff16815260200190815260200160002060000160009054906101000a900473ffffffffffffffffffffffffffffffffffffffff1673ffffffffffffffffffffffffffffffffffffffff163373ffffffffffffffffffffffffffffffffffffffff167f3ac6b951e4977329fd26cc368d72393ec0e74b115f5e6657d182a75eb43667a960008033604051612f7d93929190615016565b60405180910390a36130e2565b600160003373ffffffffffffffffffffffffffffffffffffffff1673ffffffffffffffffffffffffffffffffffffffff168152602001908152602001600020600001600381819054906101000a900463ffffffff1660010191906101000a81548163ffffffff021916908363ffffffff160217905550600160008273ffffffffffffffffffffffffffffffffffffffff1673ffffffffffffffffffffffffffffffffffffffff168152602001908152602001600020600001600381819054906101000a900463ffffffff166001900391906101000a81548163ffffffff021916908363ffffffff1602179055508073ffffffffffffffffffffffffffffffffffffffff163373ffffffffffffffffffffffffffffffffffffffff167f3ac6b951e4977329fd26cc368d72393ec0e74b115f5e6657d182a75eb43667a9600080336040516130d993929190615016565b60405180910390a35b5b50565b60026020528060005260406000206000915090508060000160009054906101000a900473ffffffffffffffffffffffffffffffffffffffff16908060010154908060020154908060030160009054906101000a900460ff16908060040154908060050154905086565b60647f000000000000000000000000000000000000000000000000000000000000000060ff167f0000000000000000000000000000000000000000000000000000000000000000028161319e57fe5b047f00000000000000000000000000000000000000000000000000000000000000000134106136a6576000600160003373ffffffffffffffffffffffffffffffffffffffff1673ffffffffffffffffffffffffffffffffffffffff16815260200190815260200160002060000160039054906101000a900463ffffffff1663ffffffff16141561323957600860008154600101919050819055505b7f000000000000000000000000000000000000000000000000000000000000000060ff16600160003373ffffffffffffffffffffffffffffffffffffffff1673ffffffffffffffffffffffffffffffffffffffff16815260200190815260200160002060000160038282829054906101000a900463ffffffff160192506101000a81548163ffffffff021916908363ffffffff160217905550600160003373ffffffffffffffffffffffffffffffffffffffff1673ffffffffffffffffffffffffffffffffffffffff16815260200190815260200160002060000160009054906101000a900460ff167f00000000000000000000000000000000000000000000000000000000000000000360ff16600960008282540192505081905550600160003373ffffffffffffffffffffffffffffffffffffffff1673ffffffffffffffffffffffffffffffffffffffff16815260200190815260200160002060000160019054906101000a900460ff167f00000000000000000000000000000000000000000000000000000000000000000360ff16600a60008282540192505081905550600160003373ffffffffffffffffffffffffffffffffffffffff1673ffffffffffffffffffffffffffffffffffffffff16815260200190815260200160002060000160029054906101000a900460ff167f00000000000000000000000000000000000000000000000000000000000000000360ff16600b600082825401925050819055507f0000000000000000000000000000000000000000000000000000000000000000600160003373ffffffffffffffffffffffffffffffffffffffff1673ffffffffffffffffffffffffffffffffffffffff16815260200190815260200160002060000160006101000a81548160ff021916908360ff1602179055507f0000000000000000000000000000000000000000000000000000000000000000600160003373ffffffffffffffffffffffffffffffffffffffff1673ffffffffffffffffffffffffffffffffffffffff16815260200190815260200160002060000160016101000a81548160ff021916908360ff1602179055507f0000000000000000000000000000000000000000000000000000000000000000600160003373ffffffffffffffffffffffffffffffffffffffff1673ffffffffffffffffffffffffffffffffffffffff16815260200190815260200160002060000160026101000a81548160ff021916908360ff1602179055507f000000000000000000000000000000000000000000000000000000000000000060056000828254019250508190555060647f000000000000000000000000000000000000000000000000000000000000000060ff167f0000000000000000000000000000000000000000000000000000000000000000028161364e57fe5b046007600082825401925050819055503373ffffffffffffffffffffffffffffffffffffffff167f29d19159c7648a908867641a43fcee2537d7ed2269efb2247320fb53ddc401ea60405160405180910390a26136b7565b346006600082825401925050819055505b565b6136c161460e565b600160003373ffffffffffffffffffffffffffffffffffffffff1673ffffffffffffffffffffffffffffffffffffffff1681526020019081526020016000206040518060a00160405290816000820160009054906101000a900460ff1660ff1660ff1681526020016000820160019054906101000a900460ff1660ff1660ff1681526020016000820160029054906101000a900460ff1660ff1660ff1681526020016000820160039054906101000a900463ffffffff1663ffffffff1663ffffffff1681526020016000820160079054906101000a900473ffffffffffffffffffffffffffffffffffffffff1673ffffffffffffffffffffffffffffffffffffffff1673ffffffffffffffffffffffffffffffffffffffff1681525050905090565b600060647f000000000000000000000000000000000000000000000000000000000000000060ff167f0000000000000000000000000000000000000000000000000000000000000000028161383457fe5b047f000000000000000000000000000000000000000000000000000000000000000001905090565b61386684836141af565b6139cf57600160008473ffffffffffffffffffffffffffffffffffffffff1673ffffffffffffffffffffffffffffffffffffffff168152602001908152602001600020600001600381819054906101000a900463ffffffff1660010191906101000a81548163ffffffff021916908363ffffffff160217905550600160008573ffffffffffffffffffffffffffffffffffffffff1673ffffffffffffffffffffffffffffffffffffffff168152602001908152602001600020600001600381819054906101000a900463ffffffff166001900391906101000a81548163ffffffff021916908363ffffffff1602179055506139618382614365565b8273ffffffffffffffffffffffffffffffffffffffff168473ffffffffffffffffffffffffffffffffffffffff167f3ac6b951e4977329fd26cc368d72393ec0e74b115f5e6657d182a75eb43667a98484876040516139c293929190614fdf565b60405180910390a3613eeb565b6139d983826141af565b613b4257600160008573ffffffffffffffffffffffffffffffffffffffff1673ffffffffffffffffffffffffffffffffffffffff168152602001908152602001600020600001600381819054906101000a900463ffffffff1660010191906101000a81548163ffffffff021916908363ffffffff160217905550600160008473ffffffffffffffffffffffffffffffffffffffff1673ffffffffffffffffffffffffffffffffffffffff168152602001908152602001600020600001600381819054906101000a900463ffffffff166001900391906101000a81548163ffffffff021916908363ffffffff160217905550613ad48483614365565b8273ffffffffffffffffffffffffffffffffffffffff168473ffffffffffffffffffffffffffffffffffffffff167f3ac6b951e4977329fd26cc368d72393ec0e74b115f5e6657d182a75eb43667a9848488604051613b3593929190614fdf565b60405180910390a3613eea565b806003811115613b4e57fe5b826003811115613b5a57fe5b1415613bce578273ffffffffffffffffffffffffffffffffffffffff168473ffffffffffffffffffffffffffffffffffffffff167f3ac6b951e4977329fd26cc368d72393ec0e74b115f5e6657d182a75eb43667a9848488604051613bc193929190614fdf565b60405180910390a3613ed5565b806003811115613bda57fe5b60036000846003811115613bea57fe5b6003811115613bf557fe5b815260200190815260200160002060009054906101000a900460ff166003811115613c1c57fe5b1415613d7d57600160008573ffffffffffffffffffffffffffffffffffffffff1673ffffffffffffffffffffffffffffffffffffffff168152602001908152602001600020600001600381819054906101000a900463ffffffff1660010191906101000a81548163ffffffff021916908363ffffffff160217905550600160008473ffffffffffffffffffffffffffffffffffffffff1673ffffffffffffffffffffffffffffffffffffffff168152602001908152602001600020600001600381819054906101000a900463ffffffff166001900391906101000a81548163ffffffff021916908363ffffffff1602179055508273ffffffffffffffffffffffffffffffffffffffff168473ffffffffffffffffffffffffffffffffffffffff167f3ac6b951e4977329fd26cc368d72393ec0e74b115f5e6657d182a75eb43667a9848488604051613d7093929190614fdf565b60405180910390a3613ed4565b600160008473ffffffffffffffffffffffffffffffffffffffff1673ffffffffffffffffffffffffffffffffffffffff168152602001908152602001600020600001600381819054906101000a900463ffffffff1660010191906101000a81548163ffffffff021916908363ffffffff160217905550600160008573ffffffffffffffffffffffffffffffffffffffff1673ffffffffffffffffffffffffffffffffffffffff168152602001908152602001600020600001600381819054906101000a900463ffffffff166001900391906101000a81548163ffffffff021916908363ffffffff1602179055508273ffffffffffffffffffffffffffffffffffffffff168473ffffffffffffffffffffffffffffffffffffffff167f3ac6b951e4977329fd26cc368d72393ec0e74b115f5e6657d182a75eb43667a9848487604051613ecb93929190614fdf565b60405180910390a35b5b613edf8483614365565b613ee98382614365565b5b5b6000600160008673ffffffffffffffffffffffffffffffffffffffff1673ffffffffffffffffffffffffffffffffffffffff16815260200190815260200160002060000160039054906101000a900463ffffffff1663ffffffff161480613faa57506000600160008573ffffffffffffffffffffffffffffffffffffffff1673ffffffffffffffffffffffffffffffffffffffff16815260200190815260200160002060000160039054906101000a900463ffffffff1663ffffffff16145b15613fc15760086000815460019003919050819055505b6000600160008673ffffffffffffffffffffffffffffffffffffffff1673ffffffffffffffffffffffffffffffffffffffff16815260200190815260200160002060000160076101000a81548173ffffffffffffffffffffffffffffffffffffffff021916908373ffffffffffffffffffffffffffffffffffffffff1602179055506000600160008573ffffffffffffffffffffffffffffffffffffffff1673ffffffffffffffffffffffffffffffffffffffff16815260200190815260200160002060000160076101000a81548173ffffffffffffffffffffffffffffffffffffffff021916908373ffffffffffffffffffffffffffffffffffffffff1602179055506140cd61458e565b80600260008773ffffffffffffffffffffffffffffffffffffffff1673ffffffffffffffffffffffffffffffffffffffff16815260200190815260200160002060008201518160000160006101000a81548173ffffffffffffffffffffffffffffffffffffffff021916908373ffffffffffffffffffffffffffffffffffffffff160217905550602082015181600101556040820151816002015560608201518160030160006101000a81548160ff0219169083600381111561418c57fe5b02179055506080820151816004015560a082015181600501559050505050505050565b6000600160038111156141be57fe5b8260038111156141ca57fe5b141561422d576000600160008573ffffffffffffffffffffffffffffffffffffffff1673ffffffffffffffffffffffffffffffffffffffff16815260200190815260200160002060000160009054906101000a900460ff1660ff1611905061435f565b6002600381111561423a57fe5b82600381111561424657fe5b14156142a9576000600160008573ffffffffffffffffffffffffffffffffffffffff1673ffffffffffffffffffffffffffffffffffffffff16815260200190815260200160002060000160019054906101000a900460ff1660ff1611905061435f565b6003808111156142b557fe5b8260038111156142c157fe5b1415614324576000600160008573ffffffffffffffffffffffffffffffffffffffff1673ffffffffffffffffffffffffffffffffffffffff16815260200190815260200160002060000160029054906101000a900460ff1660ff1611905061435f565b6040517f08c379a00000000000000000000000000000000000000000000000000000000081526004016143569061516f565b60405180910390fd5b92915050565b6001600381111561437257fe5b81600381111561437e57fe5b141561440857600160008373ffffffffffffffffffffffffffffffffffffffff1673ffffffffffffffffffffffffffffffffffffffff168152602001908152602001600020600001600081819054906101000a900460ff166001900391906101000a81548160ff021916908360ff160217905550600960008154600190039190508190555061458a565b6002600381111561441557fe5b81600381111561442157fe5b14156144ab57600160008373ffffffffffffffffffffffffffffffffffffffff1673ffffffffffffffffffffffffffffffffffffffff168152602001908152602001600020600001600181819054906101000a900460ff166001900391906101000a81548160ff021916908360ff160217905550600a600081546001900391905081905550614589565b6003808111156144b757fe5b8160038111156144c357fe5b141561454d57600160008373ffffffffffffffffffffffffffffffffffffffff1673ffffffffffffffffffffffffffffffffffffffff168152602001908152602001600020600001600281819054906101000a900460ff166001900391906101000a81548160ff021916908360ff160217905550600b600081546001900391905081905550614588565b6040517f08c379a000000000000000000000000000000000000000000000000000000000815260040161457f9061516f565b60405180910390fd5b5b5b5050565b6040518060c00160405280600073ffffffffffffffffffffffffffffffffffffffff1681526020016000801916815260200160008019168152602001600060038111156145d757fe5b815260200160008152602001600081525090565b6040518060400160405280600063ffffffff168152602001600060ff1681525090565b6040518060a00160405280600060ff168152602001600060ff168152602001600060ff168152602001600063ffffffff168152602001600073ffffffffffffffffffffffffffffffffffffffff1681525090565b60008135905061467181615430565b92915050565b60008151905061468681615447565b92915050565b60008135905061469b8161545e565b92915050565b6000815190506146b08161545e565b92915050565b6000813590506146c581615475565b92915050565b6000602082840312156146dd57600080fd5b60006146eb84828501614662565b91505092915050565b60008060006060848603121561470957600080fd5b600061471786828701614662565b9350506020614728868287016146b6565b92505060406147398682870161468c565b9150509250925092565b60006020828403121561475557600080fd5b600061476384828501614677565b91505092915050565b60006020828403121561477e57600080fd5b600061478c848285016146a1565b91505092915050565b600080604083850312156147a857600080fd5b60006147b68582860161468c565b92505060206147c785828601614662565b9150509250929050565b6000806000606084860312156147e657600080fd5b60006147f4868287016146b6565b93505060206148058682870161468c565b925050604061481686828701614662565b9150509250925092565b61482981615309565b82525050565b61483881615287565b82525050565b61484781615287565b82525050565b61485e61485982615287565b615384565b82525050565b61486d81615299565b82525050565b61487c816152a5565b82525050565b61489361488e826152a5565b615396565b82525050565b6148a28161531b565b82525050565b6148b96148b48261531b565b6153b2565b82525050565b60006148ca82615260565b6148d48185615276565b93506148e4818560208601615351565b6148ed816153c6565b840191505092915050565b6000614905601d83615276565b91507f596f752061726520616c726561647920696e207468652071756575652e0000006000830152602082019050919050565b6000614945602283615276565b91507f4f6e6c79206f776e65722063616e2063616c6c20746869732066756e6374696f60008301527f6e2e0000000000000000000000000000000000000000000000000000000000006020830152604082019050919050565b60006149ab601b83615276565b91507f4f6e6520706c61796572206469646e277420706c6179207965742e00000000006000830152602082019050919050565b60006149eb602483615276565b91507f596f7520646964206e6f7420706c617920616c6c20796f75722063617264732060008301527f7965742e000000000000000000000000000000000000000000000000000000006020830152604082019050919050565b6000614a51600c8361526b565b91507f636c65616e75702073696e6b00000000000000000000000000000000000000006000830152600c82019050919050565b6000614a91602083615276565b91507f596f7520646f206e6f742062656c6f6e6720746f2074686973206d617463682e6000830152602082019050919050565b6000614ad1601c83615276565b91507f426f746820706c617965727320616c726561647920706c617965642e000000006000830152602082019050919050565b6000614b11600d8361526b565b91507f77697468647261772066656573000000000000000000000000000000000000006000830152600d82019050919050565b6000614b51603b83615276565b91507f596f7520646964206e6f74206d65657420746865207265717569726564204e6560008301527f6e20666f72206c656176696e672074686520436f6c697365756d2e00000000006020830152604082019050919050565b6000614bb7601b83615276565b91507f596f752061726520616c726561647920696e2061206d617463682e00000000006000830152602082019050919050565b6000614bf7600f83615276565b91507f57726f6e6720746563686e6971756500000000000000000000000000000000006000830152602082019050919050565b6000614c37600e83615276565b91507f696e76616c696420616374696f6e0000000000000000000000000000000000006000830152602082019050919050565b6000614c7760138361526b565b91507f456e6a6f7920796f7572207265776172647321000000000000000000000000006000830152601382019050919050565b6000614cb7602583615276565b91507f54686520436f6c697365756d206973206f7574206f66206d6f6e657920666f7260008301527f206e6f772e0000000000000000000000000000000000000000000000000000006020830152604082019050919050565b6000614d1d602c83615276565b91507f596f7520646f206e6f74206861766520656e6f756768204e656e20746f20737460008301527f6172742061206d617463682e00000000000000000000000000000000000000006020830152604082019050919050565b6000614d83600f83615276565b91507f7769746864726177206661696c656400000000000000000000000000000000006000830152602082019050919050565b604082016000820151614dcc6000850182614e5c565b506020820151614ddf6020850182614e6b565b50505050565b60a082016000820151614dfb6000850182614e6b565b506020820151614e0e6020850182614e6b565b506040820151614e216040850182614e6b565b506060820151614e346060850182614e5c565b506080820151614e47608085018261482f565b50505050565b614e56816152e2565b82525050565b614e65816152ec565b82525050565b614e74816152fc565b82525050565b6000614e86828661484d565b601482019150614e9682856148a8565b600182019150614ea68284614882565b602082019150819050949350505050565b6000614ec282614a44565b9150819050919050565b6000614ed782614b04565b9150819050919050565b6000614eec82614c6a565b9150819050919050565b6000602082019050614f0b600083018461483e565b92915050565b6000606082019050614f266000830186614820565b614f336020830185614899565b614f406040830184614873565b949350505050565b600060c082019050614f5d600083018961483e565b614f6a6020830188614873565b614f776040830187614873565b614f846060830186614899565b614f916080830185614e4d565b614f9e60a0830184614e4d565b979650505050505050565b6000602082019050614fbe6000830184614864565b92915050565b6000602082019050614fd96000830184614873565b92915050565b6000606082019050614ff46000830186614899565b6150016020830185614899565b61500e604083018461483e565b949350505050565b600060608201905061502b6000830186614899565b6150386020830185614899565b6150456040830184614820565b949350505050565b6000602082019050818103600083015261506781846148bf565b905092915050565b60006020820190508181036000830152615088816148f8565b9050919050565b600060208201905081810360008301526150a881614938565b9050919050565b600060208201905081810360008301526150c88161499e565b9050919050565b600060208201905081810360008301526150e8816149de565b9050919050565b6000602082019050818103600083015261510881614a84565b9050919050565b6000602082019050818103600083015261512881614ac4565b9050919050565b6000602082019050818103600083015261514881614b44565b9050919050565b6000602082019050818103600083015261516881614baa565b9050919050565b6000602082019050818103600083015261518881614bea565b9050919050565b600060208201905081810360008301526151a881614c2a565b9050919050565b600060208201905081810360008301526151c881614caa565b9050919050565b600060208201905081810360008301526151e881614d10565b9050919050565b6000602082019050818103600083015261520881614d76565b9050919050565b60006040820190506152246000830184614db6565b92915050565b600060a08201905061523f6000830184614de5565b92915050565b600060208201905061525a6000830184614e4d565b92915050565b600081519050919050565b600081905092915050565b600082825260208201905092915050565b6000615292826152c2565b9050919050565b60008115159050919050565b6000819050919050565b60008190506152bd8261541c565b919050565b600073ffffffffffffffffffffffffffffffffffffffff82169050919050565b6000819050919050565b600063ffffffff82169050919050565b600060ff82169050919050565b60006153148261532d565b9050919050565b6000615326826152af565b9050919050565b60006153388261533f565b9050919050565b600061534a826152c2565b9050919050565b60005b8381101561536f578082015181840152602081019050615354565b8381111561537e576000848401525b50505050565b600061538f826153a0565b9050919050565b6000819050919050565b60006153ab82615403565b9050919050565b60006153bd826153d7565b9050919050565bfe5b6000601f19601f8301169050919050565b60007f010000000000000000000000000000000000000000000000000000000000000082029050919050565b60006c0100000000000000000000000082029050919050565b6004811061542d5761542c6153c4565b5b50565b61543981615287565b811461544457600080fd5b50565b61545081615299565b811461545b57600080fd5b50565b615467816152a5565b811461547257600080fd5b50565b6004811061548257600080fd5b5056fea264697066735822122047c21e2a9aeb9c37a8bdfdeb3b9ca00dd852c67bacfbbec2e32854dc1647d49464736f6c63430007040033",
  "immutableReferences": {
    "1297": [
      {
        "length": 32,
        "start": 6488
      },
      {
        "length": 32,
        "start": 9919
      },
      {
        "length": 32,
        "start": 11352
      }
    ],
    "1327": [
      {
        "length": 32,
        "start": 7370
      },
      {
        "length": 32,
        "start": 7630
      },
      {
        "length": 32,
        "start": 7999
      },
      {
        "length": 32,
        "start": 12663
      },
      {
        "length": 32,
        "start": 12705
      },
      {
        "length": 32,
        "start": 13777
      },
      {
        "length": 32,
        "start": 13863
      },
      {
        "length": 32,
        "start": 14349
      },
      {
        "length": 32,
        "start": 14391
      }
    ],
    "1329": [
      {
        "length": 32,
        "start": 6807
      }
    ],
    "1331": [
      {
        "length": 32,
        "start": 12627
      },
      {
        "length": 32,
        "start": 13827
      },
      {
        "length": 32,
        "start": 14313
      }
    ],
    "1333": [
      {
        "length": 32,
        "start": 7334
      },
      {
        "length": 32,
        "start": 7594
      },
      {
        "length": 32,
        "start": 7963
      },
      {
        "length": 32,
        "start": 12859
      }
    ],
    "1335": [
      {
        "length": 32,
        "start": 13092
      },
      {
        "length": 32,
        "start": 13224
      },
      {
        "length": 32,
        "start": 13356
      },
      {
        "length": 32,
        "start": 13408
      },
      {
        "length": 32,
        "start": 13531
      },
      {
        "length": 32,
        "start": 13654
      }
    ]
  },
  "source": "pragma solidity ^0.7.4;\r\npragma experimental ABIEncoderV2;\r\n\r\nimport \"./JaJanken.sol\";\r\nimport \"./JaJankenGame.sol\";\r\n\r\n// SPDX-License-Identifier: GLWTPL\r\ncontract JaJankenColiseum is JaJankenGame {\r\n    /**\r\n     * _ticketCost in wei\r\n     */\r\n    constructor(uint256 _ticketCost) JaJankenGame(\"The JaJanken Coliseum\", _ticketCost, 3, 3, 3, 4) {}\r\n\r\n    address public queued;\r\n\r\n    event PlayerJoin(\r\n        address indexed p\r\n    );\r\n\r\n    receive() external payable {\r\n    }\r\n\r\n    function joinGame() external payable override(JaJanken) {\r\n        if (msg.value >= (ticketCost + (ticketCost * entranceFee / 100))) {\r\n            if (players[msg.sender].nen == 0) {\r\n                ++alivePlayers;\r\n            }\r\n            players[msg.sender].nen += startNen;\r\n            totalGuu += (startTechniques - players[msg.sender].guu);\r\n            totalPaa += (startTechniques - players[msg.sender].paa);\r\n            totalChi += (startTechniques - players[msg.sender].chi);\r\n            players[msg.sender].guu = startTechniques;\r\n            players[msg.sender].paa = startTechniques;\r\n            players[msg.sender].chi = startTechniques;\r\n            balance += ticketCost;\r\n            fees += ticketCost * entranceFee / 100;\r\n            emit PlayerJoin({p : msg.sender});\r\n        } else {\r\n            sink += msg.value;\r\n        }\r\n    }\r\n\r\n    function joinMatch() external override(JaJanken) {\r\n        require(queued != msg.sender, \"You are already in the queue.\");\r\n        require(players[msg.sender].inMatch == address(0), \"You are already in a match.\");\r\n        require(players[msg.sender].nen > 0, \"You do not have enough Nen to start a match.\");\r\n        if (queued == address(0)) {\r\n            queued = msg.sender;\r\n        } else {\r\n            matches[queued].p2 = msg.sender;\r\n            players[queued].inMatch = queued;\r\n            players[msg.sender].inMatch = queued;\r\n            emit MatchStart({matchId : queued, p1 : queued, p2 : msg.sender});\r\n            queued = address(0);\r\n        }\r\n    }\r\n\r\n    function playMatch(bytes32 _commitment, address _matchId) external override(JaJanken) {\r\n        if (msg.sender == _matchId) {\r\n            matches[_matchId].p1Hidden = _commitment;\r\n        } else if (msg.sender == matches[_matchId].p2) {\r\n            matches[_matchId].p2Hidden = _commitment;\r\n        } else {\r\n            revert(\"You do not belong to this match.\");\r\n        }\r\n        if (matches[_matchId].playTime != 0) {\r\n            emit MatchPlayed(_matchId);\r\n        }\r\n        matches[_matchId].playTime = block.timestamp;\r\n    }\r\n\r\n    function forfeitMatch(address _matchId) external override(JaJanken) {\r\n        address _p2;\r\n\r\n        if (msg.sender == _matchId) {\r\n            _p2 = matches[_matchId].p2;\r\n        } else if (msg.sender == matches[_matchId].p2) {\r\n            _p2 = _matchId;\r\n        } else {\r\n            revert(\"You do not belong to this match.\");\r\n        }\r\n\r\n        --players[msg.sender].nen;\r\n        ++players[_p2].nen;\r\n        players[msg.sender].inMatch = address(0);\r\n        players[_p2].inMatch = address(0);\r\n        Match memory newMatch;\r\n        matches[_matchId] = newMatch;\r\n        emit MatchEnd({p1 : msg.sender, p2 : _p2, p1Played : Technique.None, p2Played : Technique.None, winner : _p2});\r\n    }\r\n\r\n    function revealMatch(Technique _action, bytes32 _revealKey, address _matchId) external override(JaJanken) {\r\n        Match memory _match = matches[_matchId];\r\n\r\n        if (msg.sender == _matchId)\r\n        {\r\n            require(this.encodeAction(msg.sender, _action, _revealKey) == _match.p1Hidden, \"invalid action\");\r\n            if (_match.pPlayed != Technique.None) {\r\n                executeMatch(_matchId, _match.p2, _action, _match.pPlayed);\r\n            } else {\r\n                matches[_matchId].pPlayed = _action;\r\n                matches[_matchId].revealTime = block.timestamp;\r\n            }\r\n        } else if (msg.sender == _match.p2) {\r\n            require(this.encodeAction(msg.sender, _action, _revealKey) == _match.p2Hidden, \"invalid action\");\r\n            if (_match.pPlayed != Technique.None) {\r\n                executeMatch(_matchId, _match.p2, _match.pPlayed, _action);\r\n            } else {\r\n                matches[_matchId].pPlayed = _action;\r\n                matches[_matchId].revealTime = block.timestamp;\r\n            }\r\n        } else {\r\n            revert(\"You do not belong to this match.\");\r\n        }\r\n    }\r\n\r\n    function executeMatch(address _p1, address _p2, Technique _p1t, Technique _p2t) internal {\r\n        if (!canUseTechnique(_p1, _p1t)) {\r\n            ++players[_p2].nen;\r\n            --players[_p1].nen;\r\n            useTechnique(_p2, _p2t);\r\n            emit MatchEnd({p1 : _p1, p2 : _p2, p1Played : _p1t, p2Played : _p2t, winner : _p2});\r\n        }\r\n        else if (!canUseTechnique(_p2, _p2t)) {\r\n            ++players[_p1].nen;\r\n            --players[_p2].nen;\r\n            useTechnique(_p1, _p1t);\r\n            emit MatchEnd({p1 : _p1, p2 : _p2, p1Played : _p1t, p2Played : _p2t, winner : _p1});\r\n        } else {\r\n            if (_p1t == _p2t) {\r\n                //draw\r\n                emit MatchEnd({p1 : _p1, p2 : _p2, p1Played : _p1t, p2Played : _p2t, winner : _p1});\r\n            } else if (techniques[_p1t] == _p2t) {\r\n                ++players[_p1].nen;\r\n                --players[_p2].nen;\r\n                emit MatchEnd({p1 : _p1, p2 : _p2, p1Played : _p1t, p2Played : _p2t, winner : _p1});\r\n            } else {\r\n                ++players[_p2].nen;\r\n                --players[_p1].nen;\r\n                emit MatchEnd({p1 : _p1, p2 : _p2, p1Played : _p1t, p2Played : _p2t, winner : _p2});\r\n            }\r\n            useTechnique(_p1, _p1t);\r\n            useTechnique(_p2, _p2t);\r\n        }\r\n        if (players[_p1].nen == 0 || players[_p2].nen == 0) {\r\n            --alivePlayers;\r\n        }\r\n        players[_p1].inMatch = address(0);\r\n        players[_p2].inMatch = address(0);\r\n        Match memory newMatch;\r\n        matches[_p1] = newMatch;\r\n    }\r\n\r\n    function waitingForOpponentToPlay(address _matchId) external view override(JaJanken) returns (bool) {\r\n        Match memory _match = matches[_matchId];\r\n\r\n        if (msg.sender != _matchId || msg.sender != _match.p2) {\r\n            revert(\"You do not belong to this match.\");\r\n        }\r\n        if (_match.p1Hidden != 0 && _match.p2Hidden != 0) {\r\n            revert(\"Both players already played.\");\r\n        }\r\n        return (block.timestamp - _match.playTime) / 60 > 2;\r\n    }\r\n\r\n    function waitingForOpponentToReveal(address _matchId) external view override(JaJanken) returns (bool) {\r\n        Match memory _match = matches[_matchId];\r\n\r\n        if (msg.sender != _matchId || msg.sender != _match.p2) {\r\n            revert(\"You do not belong to this match.\");\r\n        }\r\n        if (_match.p1Hidden == 0 || _match.p2Hidden == 0) {\r\n            revert(\"One player didn't play yet.\");\r\n        }\r\n        return (block.timestamp - _match.revealTime) / 60 > 2;\r\n    }\r\n\r\n    function skipAfkDuringPlay(address _matchId) external override(JaJanken) {\r\n        if (this.waitingForOpponentToPlay(_matchId)) {\r\n            if (msg.sender == _matchId) {\r\n                ++players[msg.sender].nen;\r\n                --players[matches[_matchId].p2].nen;\r\n                emit MatchEnd({p1 : msg.sender, p2 : matches[_matchId].p2, p1Played : Technique.None, p2Played : Technique.None, winner : msg.sender});\r\n            } else {\r\n                ++players[msg.sender].nen;\r\n                --players[_matchId].nen;\r\n                emit MatchEnd({p1 : msg.sender, p2 : _matchId, p1Played : Technique.None, p2Played : Technique.None, winner : msg.sender});\r\n            }\r\n        }\r\n    }\r\n\r\n    function skipAfkDuringReveal(address _matchId) external override(JaJanken) {\r\n        if (this.waitingForOpponentToReveal(_matchId)) {\r\n            if (msg.sender == _matchId) {\r\n                ++players[msg.sender].nen;\r\n                --players[matches[_matchId].p2].nen;\r\n                emit MatchEnd({p1 : msg.sender, p2 : matches[_matchId].p2, p1Played : Technique.None, p2Played : Technique.None, winner : msg.sender});\r\n            } else {\r\n                ++players[msg.sender].nen;\r\n                --players[_matchId].nen;\r\n                emit MatchEnd({p1 : msg.sender, p2 : _matchId, p1Played : Technique.None, p2Played : Technique.None, winner : msg.sender});\r\n            }\r\n        }\r\n    }\r\n\r\n\r\n    /**\r\n     * Withdraw gains from the Game\r\n     * only available at the end of the Game, do nothing otherwise\r\n     */\r\n    function withdrawGains() external override(JaJanken) {\r\n        require(players[msg.sender].nen >= minimumNenToEarn, \"You did not meet the required Nen for leaving the Coliseum.\");\r\n        require(players[msg.sender].paa == 0 && players[msg.sender].chi == 0 && players[msg.sender].guu == 0, \"You did not play all your cards yet.\");\r\n        require(balance >= players[msg.sender].nen * (ticketCost / startNen), \"The Coliseum is out of money for now.\");\r\n        (bool success,) = msg.sender.call{value : players[msg.sender].nen * (ticketCost / startNen)}(\"Enjoy your rewards!\");\r\n        require(success, \"withdraw failed\");\r\n        emit WithdrawRewards({player : msg.sender, amount : players[msg.sender].nen * (ticketCost / startNen)});\r\n    }\r\n\r\n}",
  "sourcePath": "C:\\Users\\KevinGeorgesAndres\\Documents\\projects\\perso\\jajanken-evm\\contracts\\JaJankenColiseum.sol",
  "compiler": {
    "name": "solc",
    "version": "0.7.4+commit.3f05b770.Emscripten.clang"
  },
  "schemaVersion": "3.4.3",
  "updatedAt": "2021-10-29T09:29:56.391Z",
  "networkType": "ethereum",
  "devdoc": {
    "kind": "dev",
    "methods": {},
    "version": 1
  },
  "userdoc": {
    "kind": "user",
    "methods": {
      "cleanupSink()": {
        "notice": "Cleanup sink only available for game owner"
      },
      "constructor": {
        "notice": "_ticketCost in wei"
      },
      "encodeAction(address,uint8,bytes32)": {
        "notice": "Encode the specified technique Should be used to generate a hashed value in order to commit secretly the player action for playMatch"
      },
      "forfeitMatch(address)": {
        "notice": "The player decide to forfeit and quit the specified match No card will be used from either players -> Should emit a MatchEnd event"
      },
      "getPlayer(address)": {
        "notice": "Get the player profile stat for the current Game"
      },
      "getProfile()": {
        "notice": "Get your profile stat for the current Game"
      },
      "getTotalChi()": {
        "notice": "Get the number of Chi from alive players"
      },
      "getTotalGuu()": {
        "notice": "Get the number of Guu from alive players"
      },
      "getTotalPaa()": {
        "notice": "Get the number of Paa from alive players"
      },
      "getTotalPlayers()": {
        "notice": "Get the number of player alive in the game"
      },
      "joinGame()": {
        "notice": "Join a game, the caller must pay the required entrance ticket amount in ETH"
      },
      "joinMatch()": {
        "notice": "Join a queue in order to find an opponent to fight against -> Should emit a StartMatch event when an opponent is found"
      },
      "playMatch(bytes32,address)": {
        "notice": "Commit the player's action for his current match The action(Technique) must be hashed with a bytes32 key. so it can be saved with his hidden form. -> Should emit a MatchPlayed event when the last player of the Match commit his play"
      },
      "revealMatch(uint8,bytes32,address)": {
        "notice": "Reveal the player's action for his current match It is required to send the player's action with the key used to hash it previously for platMatch method -> Should emit a MatchEnd event when the last player of the Match reveal his play"
      },
      "skipAfkDuringPlay(address)": {
        "notice": "Kick your opponent from the match if conditions are met. You will win this match by default"
      },
      "skipAfkDuringReveal(address)": {
        "notice": "Kick your opponent from the match if conditions are met. You will win this match by default"
      },
      "waitingForOpponentToPlay(address)": {
        "notice": "This method will check if your opponent didn't play yet If this method return true, you will be allowed to call skipAfkDuringPlay to pass the turn of your opponent and win the match"
      },
      "waitingForOpponentToReveal(address)": {
        "notice": "This method will check if your opponent didn't reveal his play yet If this method return true, you will be allowed to call skipAfkDuringReveal to pass the turn of your opponent and win the match"
      },
      "withdrawFees()": {
        "notice": "Withdraw fees earning from the Game only available for game owner"
      },
      "withdrawGains()": {
        "notice": "Withdraw gains from the Game only available at the end of the Game, do nothing otherwise"
      }
    },
    "version": 1
  }
}