{
  "contractName": "JaJankenRestricted",
  "abi": [
    {
      "inputs": [
        {
          "internalType": "uint32",
          "name": "_ticketCost",
          "type": "uint32"
        },
        {
          "internalType": "uint8",
          "name": "_maxNbGames",
          "type": "uint8"
        },
        {
          "internalType": "uint32",
          "name": "_maxNbPlayerPerGame",
          "type": "uint32"
        },
        {
          "internalType": "uint8",
          "name": "_minimumNenToEarn",
          "type": "uint8"
        }
      ],
      "stateMutability": "nonpayable",
      "type": "constructor"
    },
    {
      "anonymous": false,
      "inputs": [
        {
          "indexed": false,
          "internalType": "address[]",
          "name": "winners",
          "type": "address[]"
        }
      ],
      "name": "EndGame",
      "type": "event"
    },
    {
      "anonymous": false,
      "inputs": [
        {
          "indexed": true,
          "internalType": "address",
          "name": "p1",
          "type": "address"
        },
        {
          "indexed": true,
          "internalType": "address",
          "name": "p2",
          "type": "address"
        },
        {
          "indexed": false,
          "internalType": "enum JaJanken.Technique",
          "name": "p1Played",
          "type": "uint8"
        },
        {
          "indexed": false,
          "internalType": "enum JaJanken.Technique",
          "name": "p2Played",
          "type": "uint8"
        },
        {
          "indexed": false,
          "internalType": "address",
          "name": "winner",
          "type": "address"
        }
      ],
      "name": "MatchEnd",
      "type": "event"
    },
    {
      "anonymous": false,
      "inputs": [
        {
          "indexed": true,
          "internalType": "address",
          "name": "matchId",
          "type": "address"
        }
      ],
      "name": "MatchPlayed",
      "type": "event"
    },
    {
      "anonymous": false,
      "inputs": [
        {
          "indexed": false,
          "internalType": "address",
          "name": "matchId",
          "type": "address"
        },
        {
          "indexed": true,
          "internalType": "address",
          "name": "p1",
          "type": "address"
        },
        {
          "indexed": true,
          "internalType": "address",
          "name": "p2",
          "type": "address"
        }
      ],
      "name": "MatchStart",
      "type": "event"
    },
    {
      "anonymous": false,
      "inputs": [],
      "name": "StartGame",
      "type": "event"
    },
    {
      "anonymous": false,
      "inputs": [
        {
          "indexed": true,
          "internalType": "address",
          "name": "player",
          "type": "address"
        },
        {
          "indexed": false,
          "internalType": "uint256",
          "name": "amount",
          "type": "uint256"
        }
      ],
      "name": "WithdrawRewards",
      "type": "event"
    },
    {
      "inputs": [],
      "name": "alivePlayers",
      "outputs": [
        {
          "internalType": "uint256",
          "name": "",
          "type": "uint256"
        }
      ],
      "stateMutability": "view",
      "type": "function"
    },
    {
      "inputs": [],
      "name": "balance",
      "outputs": [
        {
          "internalType": "uint256",
          "name": "",
          "type": "uint256"
        }
      ],
      "stateMutability": "view",
      "type": "function"
    },
    {
      "inputs": [],
      "name": "cleanupSink",
      "outputs": [],
      "stateMutability": "nonpayable",
      "type": "function"
    },
    {
      "inputs": [
        {
          "internalType": "address",
          "name": "_yourAddress",
          "type": "address"
        },
        {
          "internalType": "enum JaJanken.Technique",
          "name": "_action",
          "type": "uint8"
        },
        {
          "internalType": "bytes32",
          "name": "_revealKey",
          "type": "bytes32"
        }
      ],
      "name": "encodeAction",
      "outputs": [
        {
          "internalType": "bytes32",
          "name": "",
          "type": "bytes32"
        }
      ],
      "stateMutability": "pure",
      "type": "function"
    },
    {
      "inputs": [],
      "name": "entranceTicketFee",
      "outputs": [
        {
          "internalType": "uint256",
          "name": "",
          "type": "uint256"
        }
      ],
      "stateMutability": "view",
      "type": "function"
    },
    {
      "inputs": [],
      "name": "fees",
      "outputs": [
        {
          "internalType": "uint256",
          "name": "",
          "type": "uint256"
        }
      ],
      "stateMutability": "view",
      "type": "function"
    },
    {
      "inputs": [
        {
          "internalType": "address",
          "name": "_player",
          "type": "address"
        }
      ],
      "name": "getPlayer",
      "outputs": [
        {
          "components": [
            {
              "internalType": "uint32",
              "name": "nen",
              "type": "uint32"
            },
            {
              "internalType": "uint8",
              "name": "techniques",
              "type": "uint8"
            }
          ],
          "internalType": "struct JaJanken.Opponent",
          "name": "",
          "type": "tuple"
        }
      ],
      "stateMutability": "view",
      "type": "function"
    },
    {
      "inputs": [],
      "name": "getProfile",
      "outputs": [
        {
          "components": [
            {
              "internalType": "uint8",
              "name": "guu",
              "type": "uint8"
            },
            {
              "internalType": "uint8",
              "name": "paa",
              "type": "uint8"
            },
            {
              "internalType": "uint8",
              "name": "chi",
              "type": "uint8"
            },
            {
              "internalType": "uint32",
              "name": "nen",
              "type": "uint32"
            },
            {
              "internalType": "address",
              "name": "inMatch",
              "type": "address"
            }
          ],
          "internalType": "struct JaJanken.Player",
          "name": "",
          "type": "tuple"
        }
      ],
      "stateMutability": "view",
      "type": "function"
    },
    {
      "inputs": [],
      "name": "getTotalChi",
      "outputs": [
        {
          "internalType": "uint256",
          "name": "",
          "type": "uint256"
        }
      ],
      "stateMutability": "view",
      "type": "function"
    },
    {
      "inputs": [],
      "name": "getTotalGuu",
      "outputs": [
        {
          "internalType": "uint256",
          "name": "",
          "type": "uint256"
        }
      ],
      "stateMutability": "view",
      "type": "function"
    },
    {
      "inputs": [],
      "name": "getTotalPaa",
      "outputs": [
        {
          "internalType": "uint256",
          "name": "",
          "type": "uint256"
        }
      ],
      "stateMutability": "view",
      "type": "function"
    },
    {
      "inputs": [],
      "name": "getTotalPlayers",
      "outputs": [
        {
          "internalType": "uint256",
          "name": "",
          "type": "uint256"
        }
      ],
      "stateMutability": "view",
      "type": "function"
    },
    {
      "inputs": [
        {
          "internalType": "address",
          "name": "",
          "type": "address"
        }
      ],
      "name": "matches",
      "outputs": [
        {
          "internalType": "address",
          "name": "p2",
          "type": "address"
        },
        {
          "internalType": "bytes32",
          "name": "p1Hidden",
          "type": "bytes32"
        },
        {
          "internalType": "bytes32",
          "name": "p2Hidden",
          "type": "bytes32"
        },
        {
          "internalType": "enum JaJanken.Technique",
          "name": "p1Revealed",
          "type": "uint8"
        },
        {
          "internalType": "enum JaJanken.Technique",
          "name": "p2Revealed",
          "type": "uint8"
        },
        {
          "internalType": "uint256",
          "name": "playTime",
          "type": "uint256"
        },
        {
          "internalType": "uint256",
          "name": "revealTime",
          "type": "uint256"
        }
      ],
      "stateMutability": "view",
      "type": "function"
    },
    {
      "inputs": [],
      "name": "maxNbPlayerPerGame",
      "outputs": [
        {
          "internalType": "uint32",
          "name": "",
          "type": "uint32"
        }
      ],
      "stateMutability": "view",
      "type": "function"
    },
    {
      "inputs": [],
      "name": "name",
      "outputs": [
        {
          "internalType": "string",
          "name": "",
          "type": "string"
        }
      ],
      "stateMutability": "view",
      "type": "function"
    },
    {
      "inputs": [],
      "name": "owner",
      "outputs": [
        {
          "internalType": "address",
          "name": "",
          "type": "address"
        }
      ],
      "stateMutability": "view",
      "type": "function"
    },
    {
      "inputs": [],
      "name": "sink",
      "outputs": [
        {
          "internalType": "uint256",
          "name": "",
          "type": "uint256"
        }
      ],
      "stateMutability": "view",
      "type": "function"
    },
    {
      "inputs": [],
      "name": "totalChi",
      "outputs": [
        {
          "internalType": "uint256",
          "name": "",
          "type": "uint256"
        }
      ],
      "stateMutability": "view",
      "type": "function"
    },
    {
      "inputs": [],
      "name": "totalGuu",
      "outputs": [
        {
          "internalType": "uint256",
          "name": "",
          "type": "uint256"
        }
      ],
      "stateMutability": "view",
      "type": "function"
    },
    {
      "inputs": [],
      "name": "totalPaa",
      "outputs": [
        {
          "internalType": "uint256",
          "name": "",
          "type": "uint256"
        }
      ],
      "stateMutability": "view",
      "type": "function"
    },
    {
      "inputs": [],
      "name": "withdrawFees",
      "outputs": [],
      "stateMutability": "nonpayable",
      "type": "function"
    },
    {
      "stateMutability": "payable",
      "type": "receive"
    },
    {
      "inputs": [],
      "name": "joinGame",
      "outputs": [],
      "stateMutability": "payable",
      "type": "function"
    },
    {
      "inputs": [],
      "name": "joinMatch",
      "outputs": [],
      "stateMutability": "nonpayable",
      "type": "function"
    },
    {
      "inputs": [
        {
          "internalType": "bytes32",
          "name": "_commitment",
          "type": "bytes32"
        },
        {
          "internalType": "address",
          "name": "_matchId",
          "type": "address"
        }
      ],
      "name": "playMatch",
      "outputs": [],
      "stateMutability": "nonpayable",
      "type": "function"
    },
    {
      "inputs": [
        {
          "internalType": "enum JaJanken.Technique",
          "name": "_action",
          "type": "uint8"
        },
        {
          "internalType": "bytes32",
          "name": "_revealKey",
          "type": "bytes32"
        },
        {
          "internalType": "address",
          "name": "_matchId",
          "type": "address"
        }
      ],
      "name": "revealMatch",
      "outputs": [],
      "stateMutability": "nonpayable",
      "type": "function"
    },
    {
      "inputs": [
        {
          "internalType": "address",
          "name": "_matchId",
          "type": "address"
        }
      ],
      "name": "forfeitMatch",
      "outputs": [],
      "stateMutability": "nonpayable",
      "type": "function"
    },
    {
      "inputs": [
        {
          "internalType": "address",
          "name": "_matchId",
          "type": "address"
        }
      ],
      "name": "waitingForOpponentToPlay",
      "outputs": [
        {
          "internalType": "bool",
          "name": "",
          "type": "bool"
        }
      ],
      "stateMutability": "view",
      "type": "function"
    },
    {
      "inputs": [
        {
          "internalType": "address",
          "name": "_matchId",
          "type": "address"
        }
      ],
      "name": "waitingForOpponentToReveal",
      "outputs": [
        {
          "internalType": "bool",
          "name": "",
          "type": "bool"
        }
      ],
      "stateMutability": "view",
      "type": "function"
    },
    {
      "inputs": [
        {
          "internalType": "address",
          "name": "_matchId",
          "type": "address"
        }
      ],
      "name": "skipAfkDuringPlay",
      "outputs": [],
      "stateMutability": "nonpayable",
      "type": "function"
    },
    {
      "inputs": [
        {
          "internalType": "address",
          "name": "_matchId",
          "type": "address"
        }
      ],
      "name": "skipAfkDuringReveal",
      "outputs": [],
      "stateMutability": "nonpayable",
      "type": "function"
    },
    {
      "inputs": [],
      "name": "withdrawGains",
      "outputs": [],
      "stateMutability": "nonpayable",
      "type": "function"
    }
  ],
  "bytecode": "0x6101606040523480156200001257600080fd5b506040516200222a3803806200222a8339818101604052810190620000389190620003b5565b6040518060400160405280601881526020017f4a614a616e6b656e20526573747269637465642047616d6500000000000000008152508463ffffffff1660038060036004856000908051906020019062000094929190620002d1565b503373ffffffffffffffffffffffffffffffffffffffff1660808173ffffffffffffffffffffffffffffffffffffffff166c010000000000000000000000000281525050600380600060016003811115620000eb57fe5b6003811115620000f757fe5b815260200190815260200160002060006101000a81548160ff021916908360038111156200012157fe5b0217905550600160036000600260038111156200013a57fe5b60038111156200014657fe5b815260200190815260200160002060006101000a81548160ff021916908360038111156200017057fe5b02179055506002600360006003808111156200018857fe5b60038111156200019457fe5b815260200190815260200160002060006101000a81548160ff02191690836003811115620001be57fe5b02179055508260ff1660e08160ff167f010000000000000000000000000000000000000000000000000000000000000002815250508160ff166101008160ff167f010000000000000000000000000000000000000000000000000000000000000002815250508060ff166101208160ff167f010000000000000000000000000000000000000000000000000000000000000002815250508360ff1660c08160ff167f010000000000000000000000000000000000000000000000000000000000000002815250508460a081815250505050505050508163ffffffff166101408163ffffffff167c010000000000000000000000000000000000000000000000000000000002815250505050505062000472565b828054600181600116156101000203166002900490600052602060002090601f01602090048101928262000309576000855562000355565b82601f106200032457805160ff191683800117855562000355565b8280016001018555821562000355579182015b828111156200035457825182559160200191906001019062000337565b5b50905062000364919062000368565b5090565b5b808211156200038357600081600090555060010162000369565b5090565b60008151905062000398816200043e565b92915050565b600081519050620003af8162000458565b92915050565b60008060008060808587031215620003cc57600080fd5b6000620003dc8782880162000387565b9450506020620003ef878288016200039e565b9350506040620004028782880162000387565b925050606062000415878288016200039e565b91505092959194509250565b600063ffffffff82169050919050565b600060ff82169050919050565b620004498162000421565b81146200045557600080fd5b50565b620004638162000431565b81146200046f57600080fd5b50565b6080516c01000000000000000000000000900460a05160c0517f0100000000000000000000000000000000000000000000000000000000000000900460e0517f01000000000000000000000000000000000000000000000000000000000000009004610100517f01000000000000000000000000000000000000000000000000000000000000009004610120517f01000000000000000000000000000000000000000000000000000000000000009004610140517c01000000000000000000000000000000000000000000000000000000009004611c8f6200059b6000398061100c5280611051528061125452505050806111df5250806109e4525080610aa25280610b7a5280611203528061122d52508061083e5280610e155280610f575250611c8f6000f3fe6080604052600436106101f9576000357c0100000000000000000000000000000000000000000000000000000000900480635745d71d1161011f578063b69ef8a8116100b2578063d4f77b1c11610081578063d4f77b1c14610694578063d6afc9b11461069e578063da3b3393146106c9578063eeb7c625146106f457610200565b8063b69ef8a8146105d2578063c74e820e146105fd578063cb13ec2d14610628578063cd01ab161461065157610200565b806367ae3507116100ee57806367ae35071461053c578063739f9469146105535780638da5cb5b1461057c5780639af1d35a146105a757610200565b80635745d71d146104805780635c12cd4b146104ab5780635eb0ad5e146104e857806365ea05d11461051357610200565b806332003bc311610197578063464be0c711610166578063464be0c7146103fc578063476343ee14610427578063483f02191461043e5780634f6968df1461045557610200565b806332003bc31461033e57806336847b661461036957806342c32871146103a65780634529cae7146103d157610200565b80631158ed61116101d35780631158ed611461027057806325e1556e1461029957806328362bc7146102d6578063317f67441461031357610200565b806302c0cdc41461020557806306fdde031461021c5780630c5b6cff1461024757610200565b3661020057005b600080fd5b34801561021157600080fd5b5061021a61071f565b005b34801561022857600080fd5b50610231610721565b60405161023e9190611953565b60405180910390f35b34801561025357600080fd5b5061026e6004803603810190610269919061132c565b6107bf565b005b34801561027c57600080fd5b50610297600480360381019061029291906113a4565b6107c2565b005b3480156102a557600080fd5b506102c060048036038101906102bb919061132c565b6107c6565b6040516102cd919061191d565b60405180910390f35b3480156102e257600080fd5b506102fd60048036038101906102f8919061132c565b6107d1565b60405161030a919061191d565b60405180910390f35b34801561031f57600080fd5b506103286107dc565b6040516103359190611a4b565b60405180910390f35b34801561034a57600080fd5b506103536107e2565b6040516103609190611a4b565b60405180910390f35b34801561037557600080fd5b50610390600480360381019061038b9190611355565b6107ec565b60405161039d9190611938565b60405180910390f35b3480156103b257600080fd5b506103bb610822565b6040516103c89190611a4b565b60405180910390f35b3480156103dd57600080fd5b506103e6610828565b6040516103f39190611a4b565b60405180910390f35b34801561040857600080fd5b50610411610832565b60405161041e9190611a4b565b60405180910390f35b34801561043357600080fd5b5061043c61083c565b005b34801561044a57600080fd5b5061045361097b565b005b34801561046157600080fd5b5061046a610c88565b6040516104779190611a4b565b60405180910390f35b34801561048c57600080fd5b50610495610c8e565b6040516104a29190611a4b565b60405180910390f35b3480156104b757600080fd5b506104d260048036038101906104cd919061132c565b610c94565b6040516104df9190611a15565b60405180910390f35b3480156104f457600080fd5b506104fd610e04565b60405161050a9190611a4b565b60405180910390f35b34801561051f57600080fd5b5061053a600480360381019061053591906113e0565b610e0e565b005b34801561054857600080fd5b50610551610e13565b005b34801561055f57600080fd5b5061057a6004803603810190610575919061132c565b610f52565b005b34801561058857600080fd5b50610591610f55565b60405161059e9190611893565b60405180910390f35b3480156105b357600080fd5b506105bc610f79565b6040516105c99190611a4b565b60405180910390f35b3480156105de57600080fd5b506105e7610f7f565b6040516105f49190611a4b565b60405180910390f35b34801561060957600080fd5b50610612610f85565b60405161061f9190611a4b565b60405180910390f35b34801561063457600080fd5b5061064f600480360381019061064a919061132c565b610f8b565b005b34801561065d57600080fd5b506106786004803603810190610673919061132c565b610f8e565b60405161068b97969594939291906118ae565b60405180910390f35b61069c61100a565b005b3480156106aa57600080fd5b506106b36110af565b6040516106c09190611a30565b60405180910390f35b3480156106d557600080fd5b506106de6111d9565b6040516106eb9190611a4b565b60405180910390f35b34801561070057600080fd5b50610709611252565b6040516107169190611a66565b60405180910390f35b565b60008054600181600116156101000203166002900480601f0160208091040260200160405190810160405280929190818152602001828054600181600116156101000203166002900480156107b75780601f1061078c576101008083540402835291602001916107b7565b820191906000526020600020905b81548152906001019060200180831161079a57829003601f168201915b505050505081565b50565b5050565b600060019050919050565b600060019050919050565b600a5481565b6000600954905090565b600083838360405160200161080393929190611817565b6040516020818303038152906040528051906020012090509392505050565b60095481565b6000600854905090565b6000600a54905090565b7f000000000000000000000000000000000000000000000000000000000000000073ffffffffffffffffffffffffffffffffffffffff163373ffffffffffffffffffffffffffffffffffffffff16146108ca576040517f08c379a00000000000000000000000000000000000000000000000000000000081526004016108c190611975565b60405180910390fd5b60003373ffffffffffffffffffffffffffffffffffffffff166007546040516108f290611869565b60006040518083038185875af1925050503d806000811461092f576040519150601f19603f3d011682016040523d82523d6000602084013e610934565b606091505b5050905080610978576040517f08c379a000000000000000000000000000000000000000000000000000000000815260040161096f906119d5565b60405180910390fd5b50565b60038081111561098757fe5b600460009054906101000a900460ff1660038111156109a257fe5b146109e2576040517f08c379a00000000000000000000000000000000000000000000000000000000081526004016109d9906119b5565b60405180910390fd5b7f000000000000000000000000000000000000000000000000000000000000000060ff16600160003373ffffffffffffffffffffffffffffffffffffffff1673ffffffffffffffffffffffffffffffffffffffff16815260200190815260200160002060000160039054906101000a900463ffffffff1663ffffffff161015610aa0576040517f08c379a0000000000000000000000000000000000000000000000000000000008152600401610a9790611995565b60405180910390fd5b7f0000000000000000000000000000000000000000000000000000000000000000600160003373ffffffffffffffffffffffffffffffffffffffff1673ffffffffffffffffffffffffffffffffffffffff16815260200190815260200160002060000160039054906101000a900463ffffffff1663ffffffff16026005541015610b5f576040517f08c379a0000000000000000000000000000000000000000000000000000000008152600401610b56906119f5565b60405180910390fd5b60003373ffffffffffffffffffffffffffffffffffffffff167f0000000000000000000000000000000000000000000000000000000000000000600160003373ffffffffffffffffffffffffffffffffffffffff1673ffffffffffffffffffffffffffffffffffffffff16815260200190815260200160002060000160039054906101000a900463ffffffff1663ffffffff1602604051610bff9061187e565b60006040518083038185875af1925050503d8060008114610c3c576040519150601f19603f3d011682016040523d82523d6000602084013e610c41565b606091505b5050905080610c85576040517f08c379a0000000000000000000000000000000000000000000000000000000008152600401610c7c906119d5565b60405180910390fd5b50565b60085481565b600b5481565b610c9c611276565b6040518060400160405280600160008573ffffffffffffffffffffffffffffffffffffffff1673ffffffffffffffffffffffffffffffffffffffff16815260200190815260200160002060000160039054906101000a900463ffffffff1663ffffffff168152602001600160008573ffffffffffffffffffffffffffffffffffffffff1673ffffffffffffffffffffffffffffffffffffffff16815260200190815260200160002060000160029054906101000a900460ff16600160008673ffffffffffffffffffffffffffffffffffffffff1673ffffffffffffffffffffffffffffffffffffffff16815260200190815260200160002060000160019054906101000a900460ff16600160008773ffffffffffffffffffffffffffffffffffffffff1673ffffffffffffffffffffffffffffffffffffffff16815260200190815260200160002060000160009054906101000a900460ff16010160ff168152509050919050565b6000600b54905090565b505050565b7f000000000000000000000000000000000000000000000000000000000000000073ffffffffffffffffffffffffffffffffffffffff163373ffffffffffffffffffffffffffffffffffffffff1614610ea1576040517f08c379a0000000000000000000000000000000000000000000000000000000008152600401610e9890611975565b60405180910390fd5b60003373ffffffffffffffffffffffffffffffffffffffff16600654604051610ec990611854565b60006040518083038185875af1925050503d8060008114610f06576040519150601f19603f3d011682016040523d82523d6000602084013e610f0b565b606091505b5050905080610f4f576040517f08c379a0000000000000000000000000000000000000000000000000000000008152600401610f46906119d5565b60405180910390fd5b50565b50565b7f000000000000000000000000000000000000000000000000000000000000000081565b60075481565b60055481565b60065481565b50565b60026020528060005260406000206000915090508060000160009054906101000a900473ffffffffffffffffffffffffffffffffffffffff16908060010154908060020154908060030160009054906101000a900460ff16908060030160019054906101000a900460ff16908060040154908060050154905087565b7f000000000000000000000000000000000000000000000000000000000000000063ffffffff16600c54101561104f57600c60008154600101919050819055506110ad565b7f000000000000000000000000000000000000000000000000000000000000000063ffffffff16600c5414156110ac577fa3dfc36410836473d29e0ff423ff6085677a40cae4f79b4b5057cf361a8f2aa360405160405180910390a15b5b565b6110b7611299565b600160003373ffffffffffffffffffffffffffffffffffffffff1673ffffffffffffffffffffffffffffffffffffffff1681526020019081526020016000206040518060a00160405290816000820160009054906101000a900460ff1660ff1660ff1681526020016000820160019054906101000a900460ff1660ff1660ff1681526020016000820160029054906101000a900460ff1660ff1660ff1681526020016000820160039054906101000a900463ffffffff1663ffffffff1663ffffffff1681526020016000820160079054906101000a900473ffffffffffffffffffffffffffffffffffffffff1673ffffffffffffffffffffffffffffffffffffffff1673ffffffffffffffffffffffffffffffffffffffff1681525050905090565b600060647f000000000000000000000000000000000000000000000000000000000000000060ff167f0000000000000000000000000000000000000000000000000000000000000000028161122a57fe5b047f000000000000000000000000000000000000000000000000000000000000000001905090565b7f000000000000000000000000000000000000000000000000000000000000000081565b6040518060400160405280600063ffffffff168152602001600060ff1681525090565b6040518060a00160405280600060ff168152602001600060ff168152602001600060ff168152602001600063ffffffff168152602001600073ffffffffffffffffffffffffffffffffffffffff1681525090565b6000813590506112fc81611c1b565b92915050565b60008135905061131181611c32565b92915050565b60008135905061132681611c49565b92915050565b60006020828403121561133e57600080fd5b600061134c848285016112ed565b91505092915050565b60008060006060848603121561136a57600080fd5b6000611378868287016112ed565b935050602061138986828701611317565b925050604061139a86828701611302565b9150509250925092565b600080604083850312156113b757600080fd5b60006113c585828601611302565b92505060206113d6858286016112ed565b9150509250929050565b6000806000606084860312156113f557600080fd5b600061140386828701611317565b935050602061141486828701611302565b9250506040611425868287016112ed565b9150509250925092565b61143881611aa8565b82525050565b61144781611aa8565b82525050565b61145e61145982611aa8565b611b6f565b82525050565b61146d81611aba565b82525050565b61147c81611ac6565b82525050565b61149361148e82611ac6565b611b81565b82525050565b6114a281611b2a565b82525050565b6114b96114b482611b2a565b611b9d565b82525050565b60006114ca82611a81565b6114d48185611a97565b93506114e4818560208601611b3c565b6114ed81611bb1565b840191505092915050565b6000611505602283611a97565b91507f4f6e6c79206f776e65722063616e2063616c6c20746869732066756e6374696f60008301527f6e2e0000000000000000000000000000000000000000000000000000000000006020830152604082019050919050565b600061156b602983611a97565b91507f596f7520646964206e6f74206d65657420746865207265717569726564204e6560008301527f6e20616d6f756e742e00000000000000000000000000000000000000000000006020830152604082019050919050565b60006115d1600c83611a8c565b91507f636c65616e75702073696e6b00000000000000000000000000000000000000006000830152600c82019050919050565b6000611611601783611a97565b91507f5468652067616d65206469646e277420656e64207965740000000000000000006000830152602082019050919050565b6000611651600d83611a8c565b91507f77697468647261772066656573000000000000000000000000000000000000006000830152600d82019050919050565b6000611691601383611a8c565b91507f456e6a6f7920796f7572207265776172647321000000000000000000000000006000830152601382019050919050565b60006116d1600f83611a97565b91507f7769746864726177206661696c656400000000000000000000000000000000006000830152602082019050919050565b6000611711601983611a97565b91507f5468652047616d65206973206f7574206f66206d6f6e65792e000000000000006000830152602082019050919050565b60408201600082015161175a60008501826117ea565b50602082015161176d6020850182611808565b50505050565b60a0820160008201516117896000850182611808565b50602082015161179c6020850182611808565b5060408201516117af6040850182611808565b5060608201516117c260608501826117ea565b5060808201516117d5608085018261142f565b50505050565b6117e481611b03565b82525050565b6117f381611b0d565b82525050565b61180281611b0d565b82525050565b61181181611b1d565b82525050565b6000611823828661144d565b60148201915061183382856114a8565b6001820191506118438284611482565b602082019150819050949350505050565b600061185f826115c4565b9150819050919050565b600061187482611644565b9150819050919050565b600061188982611684565b9150819050919050565b60006020820190506118a8600083018461143e565b92915050565b600060e0820190506118c3600083018a61143e565b6118d06020830189611473565b6118dd6040830188611473565b6118ea6060830187611499565b6118f76080830186611499565b61190460a08301856117db565b61191160c08301846117db565b98975050505050505050565b60006020820190506119326000830184611464565b92915050565b600060208201905061194d6000830184611473565b92915050565b6000602082019050818103600083015261196d81846114bf565b905092915050565b6000602082019050818103600083015261198e816114f8565b9050919050565b600060208201905081810360008301526119ae8161155e565b9050919050565b600060208201905081810360008301526119ce81611604565b9050919050565b600060208201905081810360008301526119ee816116c4565b9050919050565b60006020820190508181036000830152611a0e81611704565b9050919050565b6000604082019050611a2a6000830184611744565b92915050565b600060a082019050611a456000830184611773565b92915050565b6000602082019050611a6060008301846117db565b92915050565b6000602082019050611a7b60008301846117f9565b92915050565b600081519050919050565b600081905092915050565b600082825260208201905092915050565b6000611ab382611ae3565b9050919050565b60008115159050919050565b6000819050919050565b6000819050611ade82611c07565b919050565b600073ffffffffffffffffffffffffffffffffffffffff82169050919050565b6000819050919050565b600063ffffffff82169050919050565b600060ff82169050919050565b6000611b3582611ad0565b9050919050565b60005b83811015611b5a578082015181840152602081019050611b3f565b83811115611b69576000848401525b50505050565b6000611b7a82611b8b565b9050919050565b6000819050919050565b6000611b9682611bee565b9050919050565b6000611ba882611bc2565b9050919050565bfe5b6000601f19601f8301169050919050565b60007f010000000000000000000000000000000000000000000000000000000000000082029050919050565b60006c0100000000000000000000000082029050919050565b60048110611c1857611c17611baf565b5b50565b611c2481611aa8565b8114611c2f57600080fd5b50565b611c3b81611ac6565b8114611c4657600080fd5b50565b60048110611c5657600080fd5b5056fea2646970667358221220ba25070c7b31c1950aa2ea183fc9cb8d31580b9dbf2225baf17aee98ec99f5a764736f6c63430007040033",
  "immutableReferences": {
    "1297": [
      {
        "length": 32,
        "start": 2110
      },
      {
        "length": 32,
        "start": 3605
      },
      {
        "length": 32,
        "start": 3927
      }
    ],
    "1327": [
      {
        "length": 32,
        "start": 2722
      },
      {
        "length": 32,
        "start": 2938
      },
      {
        "length": 32,
        "start": 4611
      },
      {
        "length": 32,
        "start": 4653
      }
    ],
    "1329": [
      {
        "length": 32,
        "start": 2532
      }
    ],
    "1331": [
      {
        "length": 32,
        "start": 4575
      }
    ],
    "1706": [
      {
        "length": 32,
        "start": 4108
      },
      {
        "length": 32,
        "start": 4177
      },
      {
        "length": 32,
        "start": 4692
      }
    ]
  },
  "source": "pragma solidity ^0.7.4;\r\npragma experimental ABIEncoderV2;\r\n\r\nimport \"./JaJanken.sol\";\r\nimport \"./JaJankenGame.sol\";\r\n\r\n// SPDX-License-Identifier: GLWTPL\r\ncontract JaJankenRestricted is JaJankenGame {\r\n    uint32 immutable public maxNbPlayerPerGame;\r\n    uint countPlayers;\r\n\r\n    event StartGame();\r\n    event EndGame(address[] winners);\r\n\r\n    constructor(uint32 _ticketCost, uint8 _maxNbGames, uint32 _maxNbPlayerPerGame, uint8 _minimumNenToEarn) JaJankenGame(\"JaJanken Restricted Game\", _ticketCost, 3, 3, 3, 4) {\r\n        maxNbPlayerPerGame = _maxNbPlayerPerGame;\r\n    }\r\n\r\n\r\n    receive() external payable {}\r\n\r\n    function joinGame() external payable override(JaJanken) {\r\n        if (countPlayers < maxNbPlayerPerGame) {\r\n            ++countPlayers;\r\n        } else if (countPlayers == maxNbPlayerPerGame) {\r\n            emit StartGame();\r\n        }\r\n    }\r\n\r\n\r\n    function joinMatch() external override(JaJanken) {\r\n        // TODO\r\n    }\r\n\r\n    function playMatch(bytes32 _commitment, address _matchId) external override(JaJanken) {\r\n        // TODO\r\n    }\r\n\r\n    function revealMatch(Technique _action, bytes32 _revealKey, address _matchId) external override(JaJanken) {\r\n        // TODO\r\n    }\r\n\r\n    function forfeitMatch(address _matchId) external override(JaJanken) {\r\n        // TODO\r\n    }\r\n\r\n    function isGameFull() private view returns (bool isFull) {\r\n        return countPlayers == maxNbPlayerPerGame;\r\n    }\r\n\r\n    function waitingForOpponentToPlay(address _matchId) external view override(JaJanken) returns (bool) {\r\n        // TODO\r\n        return true;\r\n    }\r\n\r\n    function waitingForOpponentToReveal(address _matchId) external view override(JaJanken) returns (bool){\r\n        // TODO\r\n        return true;\r\n    }\r\n\r\n    function skipAfkDuringPlay(address _matchId) external override(JaJanken) {\r\n        // TODO\r\n    }\r\n\r\n    function skipAfkDuringReveal(address _matchId) external override(JaJanken) {\r\n        // TODO\r\n    }\r\n\r\n    /**\r\n     * Withdraw gains from the Game\r\n     * only available at the end of the Game, do nothing otherwise\r\n     */\r\n    function withdrawGains() external override(JaJanken) {\r\n        require(gameState == GameState.GameEnded, \"The game didn't end yet\");\r\n        require(players[msg.sender].nen >= minimumNenToEarn, \"You did not meet the required Nen amount.\");\r\n        require(balance >= players[msg.sender].nen * ticketCost, \"The Game is out of money.\");\r\n        (bool success,) = msg.sender.call{value : players[msg.sender].nen * ticketCost}(\"Enjoy your rewards!\");\r\n        require(success, \"withdraw failed\");\r\n    }\r\n}",
  "sourcePath": "C:\\Users\\KevinGeorgesAndres\\Documents\\projects\\perso\\jajanken-evm\\contracts\\JaJankenRestricted.sol",
  "compiler": {
    "name": "solc",
    "version": "0.7.4+commit.3f05b770.Emscripten.clang"
  },
  "schemaVersion": "3.4.3",
  "updatedAt": "2021-11-09T04:31:46.333Z",
  "devdoc": {
    "kind": "dev",
    "methods": {},
    "version": 1
  },
  "userdoc": {
    "kind": "user",
    "methods": {
      "cleanupSink()": {
        "notice": "Cleanup sink only available for game owner"
      },
      "encodeAction(address,uint8,bytes32)": {
        "notice": "Encode the specified technique Should be used to generate a hashed value in order to commit secretly the player action for playMatch"
      },
      "forfeitMatch(address)": {
        "notice": "The player decide to forfeit and quit the specified match No card will be used from either players -> Should emit a MatchEnd event"
      },
      "getPlayer(address)": {
        "notice": "Get the player profile stat for the current Game"
      },
      "getProfile()": {
        "notice": "Get your profile stat for the current Game"
      },
      "getTotalChi()": {
        "notice": "Get the number of Chi from alive players"
      },
      "getTotalGuu()": {
        "notice": "Get the number of Guu from alive players"
      },
      "getTotalPaa()": {
        "notice": "Get the number of Paa from alive players"
      },
      "getTotalPlayers()": {
        "notice": "Get the number of player alive in the game"
      },
      "joinGame()": {
        "notice": "Join a game, the caller must pay the required entrance ticket amount in ETH"
      },
      "joinMatch()": {
        "notice": "Join a queue in order to find an opponent to fight against -> Should emit a StartMatch event when an opponent is found"
      },
      "playMatch(bytes32,address)": {
        "notice": "Commit the player's action for his current match The action(Technique) must be hashed with a bytes32 key. so it can be saved with his hidden form. -> Should emit a MatchPlayed event when the last player of the Match commit his play"
      },
      "revealMatch(uint8,bytes32,address)": {
        "notice": "Reveal the player's action for his current match It is required to send the player's action with the key used to hash it previously for platMatch method -> Should emit a MatchEnd event when the last player of the Match reveal his play"
      },
      "skipAfkDuringPlay(address)": {
        "notice": "Kick your opponent from the match if conditions are met. You will win this match by default"
      },
      "skipAfkDuringReveal(address)": {
        "notice": "Kick your opponent from the match if conditions are met. You will win this match by default"
      },
      "waitingForOpponentToPlay(address)": {
        "notice": "This method will check if your opponent didn't play yet If this method return true, you will be allowed to call skipAfkDuringPlay to pass the turn of your opponent and win the match"
      },
      "waitingForOpponentToReveal(address)": {
        "notice": "This method will check if your opponent didn't reveal his play yet If this method return true, you will be allowed to call skipAfkDuringReveal to pass the turn of your opponent and win the match"
      },
      "withdrawFees()": {
        "notice": "Withdraw fees earning from the Game only available for game owner"
      },
      "withdrawGains()": {
        "notice": "Withdraw gains from the Game only available at the end of the Game, do nothing otherwise"
      }
    },
    "version": 1
  }
}