{
  "contractName": "JaJankenColiseum",
  "abi": [
    {
      "inputs": [
        {
          "internalType": "uint256",
          "name": "_ticketCost",
          "type": "uint256"
        }
      ],
      "stateMutability": "nonpayable",
      "type": "constructor"
    },
    {
      "anonymous": false,
      "inputs": [
        {
          "indexed": true,
          "internalType": "address",
          "name": "p1",
          "type": "address"
        },
        {
          "indexed": true,
          "internalType": "address",
          "name": "p2",
          "type": "address"
        },
        {
          "indexed": false,
          "internalType": "address",
          "name": "winner",
          "type": "address"
        }
      ],
      "name": "MatchEnd",
      "type": "event"
    },
    {
      "anonymous": false,
      "inputs": [
        {
          "indexed": true,
          "internalType": "address",
          "name": "matchId",
          "type": "address"
        }
      ],
      "name": "MatchPlayed",
      "type": "event"
    },
    {
      "anonymous": false,
      "inputs": [
        {
          "indexed": false,
          "internalType": "address",
          "name": "matchId",
          "type": "address"
        },
        {
          "indexed": true,
          "internalType": "address",
          "name": "p1",
          "type": "address"
        },
        {
          "indexed": true,
          "internalType": "address",
          "name": "p2",
          "type": "address"
        }
      ],
      "name": "MatchStart",
      "type": "event"
    },
    {
      "anonymous": false,
      "inputs": [
        {
          "indexed": true,
          "internalType": "address",
          "name": "p",
          "type": "address"
        }
      ],
      "name": "PlayerJoin",
      "type": "event"
    },
    {
      "anonymous": false,
      "inputs": [
        {
          "indexed": true,
          "internalType": "address",
          "name": "player",
          "type": "address"
        },
        {
          "indexed": false,
          "internalType": "uint256",
          "name": "amount",
          "type": "uint256"
        }
      ],
      "name": "WithdrawRewards",
      "type": "event"
    },
    {
      "inputs": [],
      "name": "alivePlayers",
      "outputs": [
        {
          "internalType": "uint256",
          "name": "",
          "type": "uint256"
        }
      ],
      "stateMutability": "view",
      "type": "function"
    },
    {
      "inputs": [],
      "name": "balance",
      "outputs": [
        {
          "internalType": "uint256",
          "name": "",
          "type": "uint256"
        }
      ],
      "stateMutability": "view",
      "type": "function"
    },
    {
      "inputs": [],
      "name": "cleanupSink",
      "outputs": [],
      "stateMutability": "nonpayable",
      "type": "function"
    },
    {
      "inputs": [],
      "name": "entranceTicketFee",
      "outputs": [
        {
          "internalType": "uint256",
          "name": "",
          "type": "uint256"
        }
      ],
      "stateMutability": "view",
      "type": "function"
    },
    {
      "inputs": [],
      "name": "fees",
      "outputs": [
        {
          "internalType": "uint256",
          "name": "",
          "type": "uint256"
        }
      ],
      "stateMutability": "view",
      "type": "function"
    },
    {
      "inputs": [
        {
          "internalType": "address",
          "name": "_player",
          "type": "address"
        }
      ],
      "name": "getPlayer",
      "outputs": [
        {
          "components": [
            {
              "internalType": "uint32",
              "name": "nen",
              "type": "uint32"
            },
            {
              "internalType": "uint8",
              "name": "techniques",
              "type": "uint8"
            }
          ],
          "internalType": "struct JaJanken.Opponent",
          "name": "",
          "type": "tuple"
        }
      ],
      "stateMutability": "view",
      "type": "function"
    },
    {
      "inputs": [],
      "name": "getProfile",
      "outputs": [
        {
          "components": [
            {
              "internalType": "uint8",
              "name": "inMatch",
              "type": "uint8"
            },
            {
              "internalType": "uint8",
              "name": "guu",
              "type": "uint8"
            },
            {
              "internalType": "uint8",
              "name": "paa",
              "type": "uint8"
            },
            {
              "internalType": "uint8",
              "name": "chi",
              "type": "uint8"
            },
            {
              "internalType": "uint32",
              "name": "nen",
              "type": "uint32"
            }
          ],
          "internalType": "struct JaJanken.Player",
          "name": "",
          "type": "tuple"
        }
      ],
      "stateMutability": "view",
      "type": "function"
    },
    {
      "inputs": [],
      "name": "getTotalChi",
      "outputs": [
        {
          "internalType": "uint256",
          "name": "",
          "type": "uint256"
        }
      ],
      "stateMutability": "view",
      "type": "function"
    },
    {
      "inputs": [],
      "name": "getTotalGuu",
      "outputs": [
        {
          "internalType": "uint256",
          "name": "",
          "type": "uint256"
        }
      ],
      "stateMutability": "view",
      "type": "function"
    },
    {
      "inputs": [],
      "name": "getTotalPaa",
      "outputs": [
        {
          "internalType": "uint256",
          "name": "",
          "type": "uint256"
        }
      ],
      "stateMutability": "view",
      "type": "function"
    },
    {
      "inputs": [],
      "name": "getTotalPlayers",
      "outputs": [
        {
          "internalType": "uint256",
          "name": "",
          "type": "uint256"
        }
      ],
      "stateMutability": "view",
      "type": "function"
    },
    {
      "inputs": [
        {
          "internalType": "address",
          "name": "",
          "type": "address"
        }
      ],
      "name": "matches",
      "outputs": [
        {
          "internalType": "address",
          "name": "p2",
          "type": "address"
        },
        {
          "internalType": "bytes32",
          "name": "p1Hidden",
          "type": "bytes32"
        },
        {
          "internalType": "bytes32",
          "name": "p2Hidden",
          "type": "bytes32"
        },
        {
          "internalType": "enum JaJanken.Technique",
          "name": "pPlayed",
          "type": "uint8"
        },
        {
          "internalType": "uint256",
          "name": "playTime",
          "type": "uint256"
        },
        {
          "internalType": "uint256",
          "name": "revealTime",
          "type": "uint256"
        }
      ],
      "stateMutability": "view",
      "type": "function"
    },
    {
      "inputs": [],
      "name": "name",
      "outputs": [
        {
          "internalType": "string",
          "name": "",
          "type": "string"
        }
      ],
      "stateMutability": "view",
      "type": "function"
    },
    {
      "inputs": [],
      "name": "owner",
      "outputs": [
        {
          "internalType": "address",
          "name": "",
          "type": "address"
        }
      ],
      "stateMutability": "view",
      "type": "function"
    },
    {
      "inputs": [],
      "name": "queued",
      "outputs": [
        {
          "internalType": "address",
          "name": "",
          "type": "address"
        }
      ],
      "stateMutability": "view",
      "type": "function"
    },
    {
      "inputs": [],
      "name": "sink",
      "outputs": [
        {
          "internalType": "uint256",
          "name": "",
          "type": "uint256"
        }
      ],
      "stateMutability": "view",
      "type": "function"
    },
    {
      "inputs": [],
      "name": "totalChi",
      "outputs": [
        {
          "internalType": "uint256",
          "name": "",
          "type": "uint256"
        }
      ],
      "stateMutability": "view",
      "type": "function"
    },
    {
      "inputs": [],
      "name": "totalGuu",
      "outputs": [
        {
          "internalType": "uint256",
          "name": "",
          "type": "uint256"
        }
      ],
      "stateMutability": "view",
      "type": "function"
    },
    {
      "inputs": [],
      "name": "totalPaa",
      "outputs": [
        {
          "internalType": "uint256",
          "name": "",
          "type": "uint256"
        }
      ],
      "stateMutability": "view",
      "type": "function"
    },
    {
      "inputs": [],
      "name": "withdrawFees",
      "outputs": [],
      "stateMutability": "nonpayable",
      "type": "function"
    },
    {
      "stateMutability": "payable",
      "type": "receive"
    },
    {
      "inputs": [],
      "name": "joinGame",
      "outputs": [],
      "stateMutability": "payable",
      "type": "function"
    },
    {
      "inputs": [],
      "name": "joinMatch",
      "outputs": [],
      "stateMutability": "nonpayable",
      "type": "function"
    },
    {
      "inputs": [
        {
          "internalType": "bytes32",
          "name": "_commitment",
          "type": "bytes32"
        },
        {
          "internalType": "address",
          "name": "_matchId",
          "type": "address"
        }
      ],
      "name": "playMatch",
      "outputs": [],
      "stateMutability": "nonpayable",
      "type": "function"
    },
    {
      "inputs": [
        {
          "internalType": "address",
          "name": "_yourAddress",
          "type": "address"
        },
        {
          "internalType": "enum JaJanken.Technique",
          "name": "_action",
          "type": "uint8"
        },
        {
          "internalType": "bytes32",
          "name": "_revealKey",
          "type": "bytes32"
        }
      ],
      "name": "encodeAction",
      "outputs": [
        {
          "internalType": "bytes32",
          "name": "",
          "type": "bytes32"
        }
      ],
      "stateMutability": "pure",
      "type": "function"
    },
    {
      "inputs": [
        {
          "internalType": "enum JaJanken.Technique",
          "name": "_action",
          "type": "uint8"
        },
        {
          "internalType": "bytes32",
          "name": "_revealKey",
          "type": "bytes32"
        },
        {
          "internalType": "address",
          "name": "_matchId",
          "type": "address"
        }
      ],
      "name": "revealMatch",
      "outputs": [],
      "stateMutability": "nonpayable",
      "type": "function"
    },
    {
      "inputs": [
        {
          "internalType": "address",
          "name": "_matchId",
          "type": "address"
        }
      ],
      "name": "waitingForOpponentToPlay",
      "outputs": [
        {
          "internalType": "bool",
          "name": "",
          "type": "bool"
        }
      ],
      "stateMutability": "view",
      "type": "function"
    },
    {
      "inputs": [
        {
          "internalType": "address",
          "name": "_matchId",
          "type": "address"
        }
      ],
      "name": "waitingForOpponentToReveal",
      "outputs": [
        {
          "internalType": "bool",
          "name": "",
          "type": "bool"
        }
      ],
      "stateMutability": "view",
      "type": "function"
    },
    {
      "inputs": [
        {
          "internalType": "address",
          "name": "_matchId",
          "type": "address"
        }
      ],
      "name": "skipAfkDuringPlay",
      "outputs": [],
      "stateMutability": "nonpayable",
      "type": "function"
    },
    {
      "inputs": [
        {
          "internalType": "address",
          "name": "_matchId",
          "type": "address"
        }
      ],
      "name": "skipAfkDuringReveal",
      "outputs": [],
      "stateMutability": "nonpayable",
      "type": "function"
    },
    {
      "inputs": [],
      "name": "withdrawGains",
      "outputs": [],
      "stateMutability": "nonpayable",
      "type": "function"
    }
  ],
  "bytecode": "0x6101406040523480156200001257600080fd5b506040516200525a3803806200525a833981810160405281019062000038919062000361565b6040518060400160405280601581526020017f546865204a614a616e6b656e20436f6c697365756d0000000000000000000000815250816003806003600485600090805190602001906200008e92919062000294565b503373ffffffffffffffffffffffffffffffffffffffff1660808173ffffffffffffffffffffffffffffffffffffffff166c010000000000000000000000000281525050600380600060016003811115620000e557fe5b6003811115620000f157fe5b815260200190815260200160002060006101000a81548160ff021916908360038111156200011b57fe5b0217905550600160036000600260038111156200013457fe5b60038111156200014057fe5b815260200190815260200160002060006101000a81548160ff021916908360038111156200016a57fe5b02179055506002600360006003808111156200018257fe5b60038111156200018e57fe5b815260200190815260200160002060006101000a81548160ff02191690836003811115620001b857fe5b02179055508260ff1660e08160ff167f010000000000000000000000000000000000000000000000000000000000000002815250508160ff166101008160ff167f010000000000000000000000000000000000000000000000000000000000000002815250508060ff166101208160ff167f010000000000000000000000000000000000000000000000000000000000000002815250508360ff1660c08160ff167f010000000000000000000000000000000000000000000000000000000000000002815250508460a0818152505050505050505050620003b1565b828054600181600116156101000203166002900490600052602060002090601f016020900481019282620002cc576000855562000318565b82601f10620002e757805160ff191683800117855562000318565b8280016001018555821562000318579182015b8281111562000317578251825591602001919060010190620002fa565b5b5090506200032791906200032b565b5090565b5b80821115620003465760008160009055506001016200032c565b5090565b6000815190506200035b8162000397565b92915050565b6000602082840312156200037457600080fd5b600062000384848285016200034a565b91505092915050565b6000819050919050565b620003a2816200038d565b8114620003ae57600080fd5b50565b6080516c01000000000000000000000000900460a05160c0517f0100000000000000000000000000000000000000000000000000000000000000900460e0517f01000000000000000000000000000000000000000000000000000000000000009004610100517f01000000000000000000000000000000000000000000000000000000000000009004610120517f01000000000000000000000000000000000000000000000000000000000000009004614d5f620004fb60003980612cd65280612d5a5280612dde5280612e125280612e8d5280612f0852508061166c528061177052806118e15280612bed525080612b055280612fb5528061316252508061145d525080611690528061179452806119055280612b295280612b535280612f835280612fd9528061318652806131b052508061131e528061208552806126145250614d5f6000f3fe6080604052600436106101ee576000357c0100000000000000000000000000000000000000000000000000000000900480635745d71d116101145780639af1d35a116100b2578063cd01ab1611610081578063cd01ab1614610648578063d4f77b1c1461068a578063d6afc9b114610694578063da3b3393146106bf576101f5565b80639af1d35a1461059e578063b69ef8a8146105c9578063c74e820e146105f4578063cb13ec2d1461061f576101f5565b806365ea05d1116100ee57806365ea05d11461050a57806367ae350714610533578063739f94691461054a5780638da5cb5b14610573576101f5565b80635745d71d146104775780635c12cd4b146104a25780635eb0ad5e146104df576101f5565b806332003bc31161018c578063464be0c71161015b578063464be0c7146103f3578063476343ee1461041e578063483f0219146104355780634f6968df1461044c576101f5565b806332003bc31461033557806336847b661461036057806342c328711461039d5780634529cae7146103c8576101f5565b806316049ddf116101c857806316049ddf1461026557806325e1556e1461029057806328362bc7146102cd578063317f67441461030a576101f5565b806302c0cdc4146101fa57806306fdde03146102115780631158ed611461023c576101f5565b366101f557005b600080fd5b34801561020657600080fd5b5061020f6106ea565b005b34801561021d57600080fd5b50610226610b34565b60405161023391906148f1565b60405180910390f35b34801561024857600080fd5b50610263600480360381019061025e919061409b565b610bd2565b005b34801561027157600080fd5b5061027a610e49565b60405161028791906147ed565b60405180910390f35b34801561029c57600080fd5b506102b760048036038101906102b29190613fd1565b610e6f565b6040516102c491906148bb565b60405180910390f35b3480156102d957600080fd5b506102f460048036038101906102ef9190613fd1565b611097565b60405161030191906148bb565b60405180910390f35b34801561031657600080fd5b5061031f6112bc565b60405161032c9190614ae9565b60405180910390f35b34801561034157600080fd5b5061034a6112c2565b6040516103579190614ae9565b60405180910390f35b34801561036c57600080fd5b5061038760048036038101906103829190613ffa565b6112cc565b60405161039491906148d6565b60405180910390f35b3480156103a957600080fd5b506103b2611302565b6040516103bf9190614ae9565b60405180910390f35b3480156103d457600080fd5b506103dd611308565b6040516103ea9190614ae9565b60405180910390f35b3480156103ff57600080fd5b50610408611312565b6040516104159190614ae9565b60405180910390f35b34801561042a57600080fd5b5061043361131c565b005b34801561044157600080fd5b5061044a61145b565b005b34801561045857600080fd5b5061046161199e565b60405161046e9190614ae9565b60405180910390f35b34801561048357600080fd5b5061048c6119a4565b6040516104999190614ae9565b60405180910390f35b3480156104ae57600080fd5b506104c960048036038101906104c49190613fd1565b6119aa565b6040516104d69190614ab3565b60405180910390f35b3480156104eb57600080fd5b506104f4611b1a565b6040516105019190614ae9565b60405180910390f35b34801561051657600080fd5b50610531600480360381019061052c91906140d7565b611b24565b005b34801561053f57600080fd5b50610548612083565b005b34801561055657600080fd5b50610571600480360381019061056c9190613fd1565b6121c2565b005b34801561057f57600080fd5b50610588612612565b60405161059591906147ed565b60405180910390f35b3480156105aa57600080fd5b506105b3612636565b6040516105c09190614ae9565b60405180910390f35b3480156105d557600080fd5b506105de61263c565b6040516105eb9190614ae9565b60405180910390f35b34801561060057600080fd5b50610609612642565b6040516106169190614ae9565b60405180910390f35b34801561062b57600080fd5b5061064660048036038101906106419190613fd1565b612648565b005b34801561065457600080fd5b5061066f600480360381019061066a9190613fd1565b612a98565b6040516106819695949392919061485a565b60405180910390f35b610692612b01565b005b3480156106a057600080fd5b506106a961306b565b6040516106b69190614ace565b60405180910390f35b3480156106cb57600080fd5b506106d461315c565b6040516106e19190614ae9565b60405180910390f35b3373ffffffffffffffffffffffffffffffffffffffff16600c60009054906101000a900473ffffffffffffffffffffffffffffffffffffffff1673ffffffffffffffffffffffffffffffffffffffff16141561077b576040517f08c379a000000000000000000000000000000000000000000000000000000000815260040161077290614913565b60405180910390fd5b6000600160003373ffffffffffffffffffffffffffffffffffffffff1673ffffffffffffffffffffffffffffffffffffffff16815260200190815260200160002060000160009054906101000a900460ff1660ff1614610810576040517f08c379a0000000000000000000000000000000000000000000000000000000008152600401610807906149f3565b60405180910390fd5b6000600160003373ffffffffffffffffffffffffffffffffffffffff1673ffffffffffffffffffffffffffffffffffffffff16815260200190815260200160002060000160049054906101000a900463ffffffff1663ffffffff16116108ab576040517f08c379a00000000000000000000000000000000000000000000000000000000081526004016108a290614a73565b60405180910390fd5b600073ffffffffffffffffffffffffffffffffffffffff16600c60009054906101000a900473ffffffffffffffffffffffffffffffffffffffff1673ffffffffffffffffffffffffffffffffffffffff1614156109485733600c60006101000a81548173ffffffffffffffffffffffffffffffffffffffff021916908373ffffffffffffffffffffffffffffffffffffffff160217905550610b32565b3360026000600c60009054906101000a900473ffffffffffffffffffffffffffffffffffffffff1673ffffffffffffffffffffffffffffffffffffffff1673ffffffffffffffffffffffffffffffffffffffff16815260200190815260200160002060000160006101000a81548173ffffffffffffffffffffffffffffffffffffffff021916908373ffffffffffffffffffffffffffffffffffffffff16021790555060018060003373ffffffffffffffffffffffffffffffffffffffff1673ffffffffffffffffffffffffffffffffffffffff16815260200190815260200160002060000160006101000a81548160ff021916908360ff1602179055503373ffffffffffffffffffffffffffffffffffffffff16600c60009054906101000a900473ffffffffffffffffffffffffffffffffffffffff1673ffffffffffffffffffffffffffffffffffffffff167f638d6a5e87537cd02bf592bfb8916c30a2140d333b0ce073b4b0f8cc2d298a3f600c60009054906101000a900473ffffffffffffffffffffffffffffffffffffffff16604051610ae791906147ed565b60405180910390a36000600c60006101000a81548173ffffffffffffffffffffffffffffffffffffffff021916908373ffffffffffffffffffffffffffffffffffffffff1602179055505b565b60008054600181600116156101000203166002900480601f016020809104026020016040519081016040528092919081815260200182805460018160011615610100020316600290048015610bca5780601f10610b9f57610100808354040283529160200191610bca565b820191906000526020600020905b815481529060010190602001808311610bad57829003601f168201915b505050505081565b8073ffffffffffffffffffffffffffffffffffffffff163373ffffffffffffffffffffffffffffffffffffffff161415610c525781600260008373ffffffffffffffffffffffffffffffffffffffff1673ffffffffffffffffffffffffffffffffffffffff16815260200190815260200160002060010181905550610d70565b600260008273ffffffffffffffffffffffffffffffffffffffff1673ffffffffffffffffffffffffffffffffffffffff16815260200190815260200160002060000160009054906101000a900473ffffffffffffffffffffffffffffffffffffffff1673ffffffffffffffffffffffffffffffffffffffff163373ffffffffffffffffffffffffffffffffffffffff161415610d345781600260008373ffffffffffffffffffffffffffffffffffffffff1673ffffffffffffffffffffffffffffffffffffffff16815260200190815260200160002060020181905550610d6f565b6040517f08c379a0000000000000000000000000000000000000000000000000000000008152600401610d6690614993565b60405180910390fd5b5b6000600260008373ffffffffffffffffffffffffffffffffffffffff1673ffffffffffffffffffffffffffffffffffffffff1681526020019081526020016000206004015414610dfe578073ffffffffffffffffffffffffffffffffffffffff167f37198fcc7fd6b816a2d208ab394ca4fef0c9813769c325ee8a186ee452c24b7160405160405180910390a25b42600260008373ffffffffffffffffffffffffffffffffffffffff1673ffffffffffffffffffffffffffffffffffffffff168152602001908152602001600020600401819055505050565b600c60009054906101000a900473ffffffffffffffffffffffffffffffffffffffff1681565b6000610e79613ea7565b600260008473ffffffffffffffffffffffffffffffffffffffff1673ffffffffffffffffffffffffffffffffffffffff1681526020019081526020016000206040518060c00160405290816000820160009054906101000a900473ffffffffffffffffffffffffffffffffffffffff1673ffffffffffffffffffffffffffffffffffffffff1673ffffffffffffffffffffffffffffffffffffffff16815260200160018201548152602001600282015481526020016003820160009054906101000a900460ff166003811115610f4b57fe5b6003811115610f5657fe5b81526020016004820154815260200160058201548152505090508273ffffffffffffffffffffffffffffffffffffffff163373ffffffffffffffffffffffffffffffffffffffff16141580610fdb5750806000015173ffffffffffffffffffffffffffffffffffffffff163373ffffffffffffffffffffffffffffffffffffffff1614155b1561101b576040517f08c379a000000000000000000000000000000000000000000000000000000000815260040161101290614993565b60405180910390fd5b600060010281602001511415801561103b57506000600102816040015114155b1561107b576040517f08c379a0000000000000000000000000000000000000000000000000000000008152600401611072906149b3565b60405180910390fd5b6002603c826080015142038161108d57fe5b0411915050919050565b60006110a1613ea7565b600260008473ffffffffffffffffffffffffffffffffffffffff1673ffffffffffffffffffffffffffffffffffffffff1681526020019081526020016000206040518060c00160405290816000820160009054906101000a900473ffffffffffffffffffffffffffffffffffffffff1673ffffffffffffffffffffffffffffffffffffffff1673ffffffffffffffffffffffffffffffffffffffff16815260200160018201548152602001600282015481526020016003820160009054906101000a900460ff16600381111561117357fe5b600381111561117e57fe5b81526020016004820154815260200160058201548152505090508273ffffffffffffffffffffffffffffffffffffffff163373ffffffffffffffffffffffffffffffffffffffff161415806112035750806000015173ffffffffffffffffffffffffffffffffffffffff163373ffffffffffffffffffffffffffffffffffffffff1614155b15611243576040517f08c379a000000000000000000000000000000000000000000000000000000000815260040161123a90614993565b60405180910390fd5b600060010281602001511480611260575060006001028160400151145b156112a0576040517f08c379a000000000000000000000000000000000000000000000000000000000815260040161129790614953565b60405180910390fd5b6002603c8260a001514203816112b257fe5b0411915050919050565b600a5481565b6000600954905090565b60008383836040516020016112e393929190614771565b6040516020818303038152906040528051906020012090509392505050565b60095481565b6000600854905090565b6000600a54905090565b7f000000000000000000000000000000000000000000000000000000000000000073ffffffffffffffffffffffffffffffffffffffff163373ffffffffffffffffffffffffffffffffffffffff16146113aa576040517f08c379a00000000000000000000000000000000000000000000000000000000081526004016113a190614933565b60405180910390fd5b60003373ffffffffffffffffffffffffffffffffffffffff166007546040516113d2906147c3565b60006040518083038185875af1925050503d806000811461140f576040519150601f19603f3d011682016040523d82523d6000602084013e611414565b606091505b5050905080611458576040517f08c379a000000000000000000000000000000000000000000000000000000000815260040161144f90614a93565b60405180910390fd5b50565b7f000000000000000000000000000000000000000000000000000000000000000060ff16600160003373ffffffffffffffffffffffffffffffffffffffff1673ffffffffffffffffffffffffffffffffffffffff16815260200190815260200160002060000160049054906101000a900463ffffffff1663ffffffff161015611519576040517f08c379a0000000000000000000000000000000000000000000000000000000008152600401611510906149d3565b60405180910390fd5b6000600160003373ffffffffffffffffffffffffffffffffffffffff1673ffffffffffffffffffffffffffffffffffffffff16815260200190815260200160002060000160029054906101000a900460ff1660ff161480156115cd57506000600160003373ffffffffffffffffffffffffffffffffffffffff1673ffffffffffffffffffffffffffffffffffffffff16815260200190815260200160002060000160039054906101000a900460ff1660ff16145b801561162b57506000600160003373ffffffffffffffffffffffffffffffffffffffff1673ffffffffffffffffffffffffffffffffffffffff16815260200190815260200160002060000160019054906101000a900460ff1660ff16145b61166a576040517f08c379a000000000000000000000000000000000000000000000000000000000815260040161166190614973565b60405180910390fd5b7f000000000000000000000000000000000000000000000000000000000000000060ff167f0000000000000000000000000000000000000000000000000000000000000000816116b657fe5b04600160003373ffffffffffffffffffffffffffffffffffffffff1673ffffffffffffffffffffffffffffffffffffffff16815260200190815260200160002060000160049054906101000a900463ffffffff1663ffffffff16026005541015611755576040517f08c379a000000000000000000000000000000000000000000000000000000000815260040161174c90614a53565b60405180910390fd5b60003373ffffffffffffffffffffffffffffffffffffffff167f000000000000000000000000000000000000000000000000000000000000000060ff167f0000000000000000000000000000000000000000000000000000000000000000816117ba57fe5b04600160003373ffffffffffffffffffffffffffffffffffffffff1673ffffffffffffffffffffffffffffffffffffffff16815260200190815260200160002060000160049054906101000a900463ffffffff1663ffffffff1602604051611821906147d8565b60006040518083038185875af1925050503d806000811461185e576040519150601f19603f3d011682016040523d82523d6000602084013e611863565b606091505b50509050806118a7576040517f08c379a000000000000000000000000000000000000000000000000000000000815260040161189e90614a93565b60405180910390fd5b3373ffffffffffffffffffffffffffffffffffffffff167faa1377f7ec93c239e959efa811f7b8554c036fd7a706c23e58024626a8f3db967f000000000000000000000000000000000000000000000000000000000000000060ff167f00000000000000000000000000000000000000000000000000000000000000008161192b57fe5b04600160003373ffffffffffffffffffffffffffffffffffffffff1673ffffffffffffffffffffffffffffffffffffffff16815260200190815260200160002060000160049054906101000a900463ffffffff1663ffffffff16026040516119939190614ae9565b60405180910390a250565b60085481565b600b5481565b6119b2613f04565b6040518060400160405280600160008573ffffffffffffffffffffffffffffffffffffffff1673ffffffffffffffffffffffffffffffffffffffff16815260200190815260200160002060000160049054906101000a900463ffffffff1663ffffffff168152602001600160008573ffffffffffffffffffffffffffffffffffffffff1673ffffffffffffffffffffffffffffffffffffffff16815260200190815260200160002060000160039054906101000a900460ff16600160008673ffffffffffffffffffffffffffffffffffffffff1673ffffffffffffffffffffffffffffffffffffffff16815260200190815260200160002060000160029054906101000a900460ff16600160008773ffffffffffffffffffffffffffffffffffffffff1673ffffffffffffffffffffffffffffffffffffffff16815260200190815260200160002060000160019054906101000a900460ff16010160ff168152509050919050565b6000600b54905090565b611b2c613ea7565b600260008373ffffffffffffffffffffffffffffffffffffffff1673ffffffffffffffffffffffffffffffffffffffff1681526020019081526020016000206040518060c00160405290816000820160009054906101000a900473ffffffffffffffffffffffffffffffffffffffff1673ffffffffffffffffffffffffffffffffffffffff1673ffffffffffffffffffffffffffffffffffffffff16815260200160018201548152602001600282015481526020016003820160009054906101000a900460ff166003811115611bfe57fe5b6003811115611c0957fe5b81526020016004820154815260200160058201548152505090508173ffffffffffffffffffffffffffffffffffffffff163373ffffffffffffffffffffffffffffffffffffffff161415611e305780602001513073ffffffffffffffffffffffffffffffffffffffff166336847b663387876040518463ffffffff167c0100000000000000000000000000000000000000000000000000000000028152600401611cb593929190614823565b60206040518083038186803b158015611ccd57600080fd5b505afa158015611ce1573d6000803e3d6000fd5b505050506040513d601f19601f82011682018060405250810190611d059190614072565b14611d45576040517f08c379a0000000000000000000000000000000000000000000000000000000008152600401611d3c90614a33565b60405180910390fd5b60006003811115611d5257fe5b81606001516003811115611d6257fe5b14611d8057611d7b8282600001518684606001516131d5565b611e2b565b83600260008473ffffffffffffffffffffffffffffffffffffffff1673ffffffffffffffffffffffffffffffffffffffff16815260200190815260200160002060030160006101000a81548160ff02191690836003811115611dde57fe5b021790555042600260008473ffffffffffffffffffffffffffffffffffffffff1673ffffffffffffffffffffffffffffffffffffffff168152602001908152602001600020600501819055505b61207d565b806000015173ffffffffffffffffffffffffffffffffffffffff163373ffffffffffffffffffffffffffffffffffffffff1614156120415780604001513073ffffffffffffffffffffffffffffffffffffffff166336847b663387876040518463ffffffff167c0100000000000000000000000000000000000000000000000000000000028152600401611ec693929190614823565b60206040518083038186803b158015611ede57600080fd5b505afa158015611ef2573d6000803e3d6000fd5b505050506040513d601f19601f82011682018060405250810190611f169190614072565b14611f56576040517f08c379a0000000000000000000000000000000000000000000000000000000008152600401611f4d90614a33565b60405180910390fd5b60006003811115611f6357fe5b81606001516003811115611f7357fe5b14611f9157611f8c8282600001518360600151876131d5565b61203c565b83600260008473ffffffffffffffffffffffffffffffffffffffff1673ffffffffffffffffffffffffffffffffffffffff16815260200190815260200160002060030160006101000a81548160ff02191690836003811115611fef57fe5b021790555042600260008473ffffffffffffffffffffffffffffffffffffffff1673ffffffffffffffffffffffffffffffffffffffff168152602001908152602001600020600501819055505b61207c565b6040517f08c379a000000000000000000000000000000000000000000000000000000000815260040161207390614993565b60405180910390fd5b5b50505050565b7f000000000000000000000000000000000000000000000000000000000000000073ffffffffffffffffffffffffffffffffffffffff163373ffffffffffffffffffffffffffffffffffffffff1614612111576040517f08c379a000000000000000000000000000000000000000000000000000000000815260040161210890614933565b60405180910390fd5b60003373ffffffffffffffffffffffffffffffffffffffff16600654604051612139906147ae565b60006040518083038185875af1925050503d8060008114612176576040519150601f19603f3d011682016040523d82523d6000602084013e61217b565b606091505b50509050806121bf576040517f08c379a00000000000000000000000000000000000000000000000000000000081526004016121b690614a93565b60405180910390fd5b50565b3073ffffffffffffffffffffffffffffffffffffffff166325e1556e826040518263ffffffff167c010000000000000000000000000000000000000000000000000000000002815260040161221791906147ed565b60206040518083038186803b15801561222f57600080fd5b505afa158015612243573d6000803e3d6000fd5b505050506040513d601f19601f820116820180604052508101906122679190614049565b1561260f578073ffffffffffffffffffffffffffffffffffffffff163373ffffffffffffffffffffffffffffffffffffffff1614156124bb57600160003373ffffffffffffffffffffffffffffffffffffffff1673ffffffffffffffffffffffffffffffffffffffff168152602001908152602001600020600001600481819054906101000a900463ffffffff1660010191906101000a81548163ffffffff021916908363ffffffff16021790555060016000600260008473ffffffffffffffffffffffffffffffffffffffff1673ffffffffffffffffffffffffffffffffffffffff16815260200190815260200160002060000160009054906101000a900473ffffffffffffffffffffffffffffffffffffffff1673ffffffffffffffffffffffffffffffffffffffff1673ffffffffffffffffffffffffffffffffffffffff168152602001908152602001600020600001600481819054906101000a900463ffffffff166001900391906101000a81548163ffffffff021916908363ffffffff160217905550600260008273ffffffffffffffffffffffffffffffffffffffff1673ffffffffffffffffffffffffffffffffffffffff16815260200190815260200160002060000160009054906101000a900473ffffffffffffffffffffffffffffffffffffffff1673ffffffffffffffffffffffffffffffffffffffff163373ffffffffffffffffffffffffffffffffffffffff167f45d0232df272015b311823b89d5c3d89b71eb66851a9298f549d1673c93eda59336040516124ae9190614808565b60405180910390a361260e565b600160003373ffffffffffffffffffffffffffffffffffffffff1673ffffffffffffffffffffffffffffffffffffffff168152602001908152602001600020600001600481819054906101000a900463ffffffff1660010191906101000a81548163ffffffff021916908363ffffffff160217905550600160008273ffffffffffffffffffffffffffffffffffffffff1673ffffffffffffffffffffffffffffffffffffffff168152602001908152602001600020600001600481819054906101000a900463ffffffff166001900391906101000a81548163ffffffff021916908363ffffffff1602179055508073ffffffffffffffffffffffffffffffffffffffff163373ffffffffffffffffffffffffffffffffffffffff167f45d0232df272015b311823b89d5c3d89b71eb66851a9298f549d1673c93eda59336040516126059190614808565b60405180910390a35b5b50565b7f000000000000000000000000000000000000000000000000000000000000000081565b60075481565b60055481565b60065481565b3073ffffffffffffffffffffffffffffffffffffffff166328362bc7826040518263ffffffff167c010000000000000000000000000000000000000000000000000000000002815260040161269d91906147ed565b60206040518083038186803b1580156126b557600080fd5b505afa1580156126c9573d6000803e3d6000fd5b505050506040513d601f19601f820116820180604052508101906126ed9190614049565b15612a95578073ffffffffffffffffffffffffffffffffffffffff163373ffffffffffffffffffffffffffffffffffffffff16141561294157600160003373ffffffffffffffffffffffffffffffffffffffff1673ffffffffffffffffffffffffffffffffffffffff168152602001908152602001600020600001600481819054906101000a900463ffffffff1660010191906101000a81548163ffffffff021916908363ffffffff16021790555060016000600260008473ffffffffffffffffffffffffffffffffffffffff1673ffffffffffffffffffffffffffffffffffffffff16815260200190815260200160002060000160009054906101000a900473ffffffffffffffffffffffffffffffffffffffff1673ffffffffffffffffffffffffffffffffffffffff1673ffffffffffffffffffffffffffffffffffffffff168152602001908152602001600020600001600481819054906101000a900463ffffffff166001900391906101000a81548163ffffffff021916908363ffffffff160217905550600260008273ffffffffffffffffffffffffffffffffffffffff1673ffffffffffffffffffffffffffffffffffffffff16815260200190815260200160002060000160009054906101000a900473ffffffffffffffffffffffffffffffffffffffff1673ffffffffffffffffffffffffffffffffffffffff163373ffffffffffffffffffffffffffffffffffffffff167f45d0232df272015b311823b89d5c3d89b71eb66851a9298f549d1673c93eda59336040516129349190614808565b60405180910390a3612a94565b600160003373ffffffffffffffffffffffffffffffffffffffff1673ffffffffffffffffffffffffffffffffffffffff168152602001908152602001600020600001600481819054906101000a900463ffffffff1660010191906101000a81548163ffffffff021916908363ffffffff160217905550600160008273ffffffffffffffffffffffffffffffffffffffff1673ffffffffffffffffffffffffffffffffffffffff168152602001908152602001600020600001600481819054906101000a900463ffffffff166001900391906101000a81548163ffffffff021916908363ffffffff1602179055508073ffffffffffffffffffffffffffffffffffffffff163373ffffffffffffffffffffffffffffffffffffffff167f45d0232df272015b311823b89d5c3d89b71eb66851a9298f549d1673c93eda5933604051612a8b9190614808565b60405180910390a35b5b50565b60026020528060005260406000206000915090508060000160009054906101000a900473ffffffffffffffffffffffffffffffffffffffff16908060010154908060020154908060030160009054906101000a900460ff16908060040154908060050154905086565b60647f000000000000000000000000000000000000000000000000000000000000000060ff167f00000000000000000000000000000000000000000000000000000000000000000281612b5057fe5b047f0000000000000000000000000000000000000000000000000000000000000000013410613058576000600160003373ffffffffffffffffffffffffffffffffffffffff1673ffffffffffffffffffffffffffffffffffffffff16815260200190815260200160002060000160049054906101000a900463ffffffff1663ffffffff161415612beb57600860008154600101919050819055505b7f000000000000000000000000000000000000000000000000000000000000000060ff16600160003373ffffffffffffffffffffffffffffffffffffffff1673ffffffffffffffffffffffffffffffffffffffff16815260200190815260200160002060000160048282829054906101000a900463ffffffff160192506101000a81548163ffffffff021916908363ffffffff160217905550600160003373ffffffffffffffffffffffffffffffffffffffff1673ffffffffffffffffffffffffffffffffffffffff16815260200190815260200160002060000160019054906101000a900460ff167f00000000000000000000000000000000000000000000000000000000000000000360ff16600960008282540192505081905550600160003373ffffffffffffffffffffffffffffffffffffffff1673ffffffffffffffffffffffffffffffffffffffff16815260200190815260200160002060000160029054906101000a900460ff167f00000000000000000000000000000000000000000000000000000000000000000360ff16600a60008282540192505081905550600160003373ffffffffffffffffffffffffffffffffffffffff1673ffffffffffffffffffffffffffffffffffffffff16815260200190815260200160002060000160039054906101000a900460ff167f00000000000000000000000000000000000000000000000000000000000000000360ff16600b600082825401925050819055507f0000000000000000000000000000000000000000000000000000000000000000600160003373ffffffffffffffffffffffffffffffffffffffff1673ffffffffffffffffffffffffffffffffffffffff16815260200190815260200160002060000160016101000a81548160ff021916908360ff1602179055507f0000000000000000000000000000000000000000000000000000000000000000600160003373ffffffffffffffffffffffffffffffffffffffff1673ffffffffffffffffffffffffffffffffffffffff16815260200190815260200160002060000160026101000a81548160ff021916908360ff1602179055507f0000000000000000000000000000000000000000000000000000000000000000600160003373ffffffffffffffffffffffffffffffffffffffff1673ffffffffffffffffffffffffffffffffffffffff16815260200190815260200160002060000160036101000a81548160ff021916908360ff1602179055507f000000000000000000000000000000000000000000000000000000000000000060056000828254019250508190555060647f000000000000000000000000000000000000000000000000000000000000000060ff167f0000000000000000000000000000000000000000000000000000000000000000028161300057fe5b046007600082825401925050819055503373ffffffffffffffffffffffffffffffffffffffff167f29d19159c7648a908867641a43fcee2537d7ed2269efb2247320fb53ddc401ea60405160405180910390a2613069565b346006600082825401925050819055505b565b613073613f27565b600160003373ffffffffffffffffffffffffffffffffffffffff1673ffffffffffffffffffffffffffffffffffffffff1681526020019081526020016000206040518060a00160405290816000820160009054906101000a900460ff1660ff1660ff1681526020016000820160019054906101000a900460ff1660ff1660ff1681526020016000820160029054906101000a900460ff1660ff1660ff1681526020016000820160039054906101000a900460ff1660ff1660ff1681526020016000820160049054906101000a900463ffffffff1663ffffffff1663ffffffff1681525050905090565b600060647f000000000000000000000000000000000000000000000000000000000000000060ff167f000000000000000000000000000000000000000000000000000000000000000002816131ad57fe5b047f000000000000000000000000000000000000000000000000000000000000000001905090565b6131df8483613ac8565b61334457600160008473ffffffffffffffffffffffffffffffffffffffff1673ffffffffffffffffffffffffffffffffffffffff168152602001908152602001600020600001600481819054906101000a900463ffffffff1660010191906101000a81548163ffffffff021916908363ffffffff160217905550600160008573ffffffffffffffffffffffffffffffffffffffff1673ffffffffffffffffffffffffffffffffffffffff168152602001908152602001600020600001600481819054906101000a900463ffffffff166001900391906101000a81548163ffffffff021916908363ffffffff1602179055506132da8382613c7e565b8273ffffffffffffffffffffffffffffffffffffffff168473ffffffffffffffffffffffffffffffffffffffff167f45d0232df272015b311823b89d5c3d89b71eb66851a9298f549d1673c93eda598560405161333791906147ed565b60405180910390a3613850565b61334e8382613ac8565b6134b357600160008573ffffffffffffffffffffffffffffffffffffffff1673ffffffffffffffffffffffffffffffffffffffff168152602001908152602001600020600001600481819054906101000a900463ffffffff1660010191906101000a81548163ffffffff021916908363ffffffff160217905550600160008473ffffffffffffffffffffffffffffffffffffffff1673ffffffffffffffffffffffffffffffffffffffff168152602001908152602001600020600001600481819054906101000a900463ffffffff166001900391906101000a81548163ffffffff021916908363ffffffff1602179055506134498483613c7e565b8273ffffffffffffffffffffffffffffffffffffffff168473ffffffffffffffffffffffffffffffffffffffff167f45d0232df272015b311823b89d5c3d89b71eb66851a9298f549d1673c93eda59866040516134a691906147ed565b60405180910390a361384f565b8060038111156134bf57fe5b8260038111156134cb57fe5b141561353b578273ffffffffffffffffffffffffffffffffffffffff168473ffffffffffffffffffffffffffffffffffffffff167f45d0232df272015b311823b89d5c3d89b71eb66851a9298f549d1673c93eda598660405161352e91906147ed565b60405180910390a361383a565b80600381111561354757fe5b6003600084600381111561355757fe5b600381111561356257fe5b815260200190815260200160002060009054906101000a900460ff16600381111561358957fe5b14156136e657600160008573ffffffffffffffffffffffffffffffffffffffff1673ffffffffffffffffffffffffffffffffffffffff168152602001908152602001600020600001600481819054906101000a900463ffffffff1660010191906101000a81548163ffffffff021916908363ffffffff160217905550600160008473ffffffffffffffffffffffffffffffffffffffff1673ffffffffffffffffffffffffffffffffffffffff168152602001908152602001600020600001600481819054906101000a900463ffffffff166001900391906101000a81548163ffffffff021916908363ffffffff1602179055508273ffffffffffffffffffffffffffffffffffffffff168473ffffffffffffffffffffffffffffffffffffffff167f45d0232df272015b311823b89d5c3d89b71eb66851a9298f549d1673c93eda59866040516136d991906147ed565b60405180910390a3613839565b600160008473ffffffffffffffffffffffffffffffffffffffff1673ffffffffffffffffffffffffffffffffffffffff168152602001908152602001600020600001600481819054906101000a900463ffffffff1660010191906101000a81548163ffffffff021916908363ffffffff160217905550600160008573ffffffffffffffffffffffffffffffffffffffff1673ffffffffffffffffffffffffffffffffffffffff168152602001908152602001600020600001600481819054906101000a900463ffffffff166001900391906101000a81548163ffffffff021916908363ffffffff1602179055508273ffffffffffffffffffffffffffffffffffffffff168473ffffffffffffffffffffffffffffffffffffffff167f45d0232df272015b311823b89d5c3d89b71eb66851a9298f549d1673c93eda598560405161383091906147ed565b60405180910390a35b5b6138448483613c7e565b61384e8382613c7e565b5b5b6000600160008673ffffffffffffffffffffffffffffffffffffffff1673ffffffffffffffffffffffffffffffffffffffff16815260200190815260200160002060000160049054906101000a900463ffffffff1663ffffffff16148061390f57506000600160008573ffffffffffffffffffffffffffffffffffffffff1673ffffffffffffffffffffffffffffffffffffffff16815260200190815260200160002060000160049054906101000a900463ffffffff1663ffffffff16145b156139265760086000815460019003919050819055505b6000600160008673ffffffffffffffffffffffffffffffffffffffff1673ffffffffffffffffffffffffffffffffffffffff16815260200190815260200160002060000160006101000a81548160ff021916908360ff1602179055506000600160008573ffffffffffffffffffffffffffffffffffffffff1673ffffffffffffffffffffffffffffffffffffffff16815260200190815260200160002060000160006101000a81548160ff021916908360ff1602179055506139e6613ea7565b80600260008773ffffffffffffffffffffffffffffffffffffffff1673ffffffffffffffffffffffffffffffffffffffff16815260200190815260200160002060008201518160000160006101000a81548173ffffffffffffffffffffffffffffffffffffffff021916908373ffffffffffffffffffffffffffffffffffffffff160217905550602082015181600101556040820151816002015560608201518160030160006101000a81548160ff02191690836003811115613aa557fe5b02179055506080820151816004015560a082015181600501559050505050505050565b600060016003811115613ad757fe5b826003811115613ae357fe5b1415613b46576000600160008573ffffffffffffffffffffffffffffffffffffffff1673ffffffffffffffffffffffffffffffffffffffff16815260200190815260200160002060000160019054906101000a900460ff1660ff16119050613c78565b60026003811115613b5357fe5b826003811115613b5f57fe5b1415613bc2576000600160008573ffffffffffffffffffffffffffffffffffffffff1673ffffffffffffffffffffffffffffffffffffffff16815260200190815260200160002060000160029054906101000a900460ff1660ff16119050613c78565b600380811115613bce57fe5b826003811115613bda57fe5b1415613c3d576000600160008573ffffffffffffffffffffffffffffffffffffffff1673ffffffffffffffffffffffffffffffffffffffff16815260200190815260200160002060000160039054906101000a900460ff1660ff16119050613c78565b6040517f08c379a0000000000000000000000000000000000000000000000000000000008152600401613c6f90614a13565b60405180910390fd5b92915050565b60016003811115613c8b57fe5b816003811115613c9757fe5b1415613d2157600160008373ffffffffffffffffffffffffffffffffffffffff1673ffffffffffffffffffffffffffffffffffffffff168152602001908152602001600020600001600181819054906101000a900460ff166001900391906101000a81548160ff021916908360ff1602179055506009600081546001900391905081905550613ea3565b60026003811115613d2e57fe5b816003811115613d3a57fe5b1415613dc457600160008373ffffffffffffffffffffffffffffffffffffffff1673ffffffffffffffffffffffffffffffffffffffff168152602001908152602001600020600001600281819054906101000a900460ff166001900391906101000a81548160ff021916908360ff160217905550600a600081546001900391905081905550613ea2565b600380811115613dd057fe5b816003811115613ddc57fe5b1415613e6657600160008373ffffffffffffffffffffffffffffffffffffffff1673ffffffffffffffffffffffffffffffffffffffff168152602001908152602001600020600001600381819054906101000a900460ff166001900391906101000a81548160ff021916908360ff160217905550600b600081546001900391905081905550613ea1565b6040517f08c379a0000000000000000000000000000000000000000000000000000000008152600401613e9890614a13565b60405180910390fd5b5b5b5050565b6040518060c00160405280600073ffffffffffffffffffffffffffffffffffffffff168152602001600080191681526020016000801916815260200160006003811115613ef057fe5b815260200160008152602001600081525090565b6040518060400160405280600063ffffffff168152602001600060ff1681525090565b6040518060a00160405280600060ff168152602001600060ff168152602001600060ff168152602001600060ff168152602001600063ffffffff1681525090565b600081359050613f7781614cd4565b92915050565b600081519050613f8c81614ceb565b92915050565b600081359050613fa181614d02565b92915050565b600081519050613fb681614d02565b92915050565b600081359050613fcb81614d19565b92915050565b600060208284031215613fe357600080fd5b6000613ff184828501613f68565b91505092915050565b60008060006060848603121561400f57600080fd5b600061401d86828701613f68565b935050602061402e86828701613fbc565b925050604061403f86828701613f92565b9150509250925092565b60006020828403121561405b57600080fd5b600061406984828501613f7d565b91505092915050565b60006020828403121561408457600080fd5b600061409284828501613fa7565b91505092915050565b600080604083850312156140ae57600080fd5b60006140bc85828601613f92565b92505060206140cd85828601613f68565b9150509250929050565b6000806000606084860312156140ec57600080fd5b60006140fa86828701613fbc565b935050602061410b86828701613f92565b925050604061411c86828701613f68565b9150509250925092565b61412f81614bad565b82525050565b61413e81614b2b565b82525050565b61415561415082614b2b565b614c28565b82525050565b61416481614b3d565b82525050565b61417381614b49565b82525050565b61418a61418582614b49565b614c3a565b82525050565b61419981614bbf565b82525050565b6141b06141ab82614bbf565b614c56565b82525050565b60006141c182614b04565b6141cb8185614b1a565b93506141db818560208601614bf5565b6141e481614c6a565b840191505092915050565b60006141fc601d83614b1a565b91507f596f752061726520616c726561647920696e207468652071756575652e0000006000830152602082019050919050565b600061423c602283614b1a565b91507f4f6e6c79206f776e65722063616e2063616c6c20746869732066756e6374696f60008301527f6e2e0000000000000000000000000000000000000000000000000000000000006020830152604082019050919050565b60006142a2601b83614b1a565b91507f4f6e6520706c61796572206469646e277420706c6179207965742e00000000006000830152602082019050919050565b60006142e2602483614b1a565b91507f596f7520646964206e6f7420706c617920616c6c20796f75722063617264732060008301527f7965742e000000000000000000000000000000000000000000000000000000006020830152604082019050919050565b6000614348600c83614b0f565b91507f636c65616e75702073696e6b00000000000000000000000000000000000000006000830152600c82019050919050565b6000614388602083614b1a565b91507f596f7520646f206e6f742062656c6f6e6720746f2074686973206d617463682e6000830152602082019050919050565b60006143c8601c83614b1a565b91507f426f746820706c617965727320616c726561647920706c617965642e000000006000830152602082019050919050565b6000614408600d83614b0f565b91507f77697468647261772066656573000000000000000000000000000000000000006000830152600d82019050919050565b6000614448603b83614b1a565b91507f596f7520646964206e6f74206d65657420746865207265717569726564204e6560008301527f6e20666f72206c656176696e672074686520436f6c697365756d2e00000000006020830152604082019050919050565b60006144ae601b83614b1a565b91507f596f752061726520616c726561647920696e2061206d617463682e00000000006000830152602082019050919050565b60006144ee600f83614b1a565b91507f57726f6e6720746563686e6971756500000000000000000000000000000000006000830152602082019050919050565b600061452e600e83614b1a565b91507f696e76616c696420616374696f6e0000000000000000000000000000000000006000830152602082019050919050565b600061456e601383614b0f565b91507f456e6a6f7920796f7572207265776172647321000000000000000000000000006000830152601382019050919050565b60006145ae602583614b1a565b91507f54686520436f6c697365756d206973206f7574206f66206d6f6e657920666f7260008301527f206e6f772e0000000000000000000000000000000000000000000000000000006020830152604082019050919050565b6000614614602c83614b1a565b91507f596f7520646f206e6f74206861766520656e6f756768204e656e20746f20737460008301527f6172742061206d617463682e00000000000000000000000000000000000000006020830152604082019050919050565b600061467a600f83614b1a565b91507f7769746864726177206661696c656400000000000000000000000000000000006000830152602082019050919050565b6040820160008201516146c36000850182614753565b5060208201516146d66020850182614762565b50505050565b60a0820160008201516146f26000850182614762565b5060208201516147056020850182614762565b5060408201516147186040850182614762565b50606082015161472b6060850182614762565b50608082015161473e6080850182614753565b50505050565b61474d81614b86565b82525050565b61475c81614b90565b82525050565b61476b81614ba0565b82525050565b600061477d8286614144565b60148201915061478d828561419f565b60018201915061479d8284614179565b602082019150819050949350505050565b60006147b98261433b565b9150819050919050565b60006147ce826143fb565b9150819050919050565b60006147e382614561565b9150819050919050565b60006020820190506148026000830184614135565b92915050565b600060208201905061481d6000830184614126565b92915050565b60006060820190506148386000830186614126565b6148456020830185614190565b614852604083018461416a565b949350505050565b600060c08201905061486f6000830189614135565b61487c602083018861416a565b614889604083018761416a565b6148966060830186614190565b6148a36080830185614744565b6148b060a0830184614744565b979650505050505050565b60006020820190506148d0600083018461415b565b92915050565b60006020820190506148eb600083018461416a565b92915050565b6000602082019050818103600083015261490b81846141b6565b905092915050565b6000602082019050818103600083015261492c816141ef565b9050919050565b6000602082019050818103600083015261494c8161422f565b9050919050565b6000602082019050818103600083015261496c81614295565b9050919050565b6000602082019050818103600083015261498c816142d5565b9050919050565b600060208201905081810360008301526149ac8161437b565b9050919050565b600060208201905081810360008301526149cc816143bb565b9050919050565b600060208201905081810360008301526149ec8161443b565b9050919050565b60006020820190508181036000830152614a0c816144a1565b9050919050565b60006020820190508181036000830152614a2c816144e1565b9050919050565b60006020820190508181036000830152614a4c81614521565b9050919050565b60006020820190508181036000830152614a6c816145a1565b9050919050565b60006020820190508181036000830152614a8c81614607565b9050919050565b60006020820190508181036000830152614aac8161466d565b9050919050565b6000604082019050614ac860008301846146ad565b92915050565b600060a082019050614ae360008301846146dc565b92915050565b6000602082019050614afe6000830184614744565b92915050565b600081519050919050565b600081905092915050565b600082825260208201905092915050565b6000614b3682614b66565b9050919050565b60008115159050919050565b6000819050919050565b6000819050614b6182614cc0565b919050565b600073ffffffffffffffffffffffffffffffffffffffff82169050919050565b6000819050919050565b600063ffffffff82169050919050565b600060ff82169050919050565b6000614bb882614bd1565b9050919050565b6000614bca82614b53565b9050919050565b6000614bdc82614be3565b9050919050565b6000614bee82614b66565b9050919050565b60005b83811015614c13578082015181840152602081019050614bf8565b83811115614c22576000848401525b50505050565b6000614c3382614c44565b9050919050565b6000819050919050565b6000614c4f82614ca7565b9050919050565b6000614c6182614c7b565b9050919050565bfe5b6000601f19601f8301169050919050565b60007f010000000000000000000000000000000000000000000000000000000000000082029050919050565b60006c0100000000000000000000000082029050919050565b60048110614cd157614cd0614c68565b5b50565b614cdd81614b2b565b8114614ce857600080fd5b50565b614cf481614b3d565b8114614cff57600080fd5b50565b614d0b81614b49565b8114614d1657600080fd5b50565b60048110614d2657600080fd5b5056fea2646970667358221220f8cefb98777e51708ef99e2429769bf3b3cdaa37e9e4d6bc34289e8aa737544664736f6c63430007040033",
  "immutableReferences": {
    "1158": [
      {
        "length": 32,
        "start": 4894
      },
      {
        "length": 32,
        "start": 8325
      },
      {
        "length": 32,
        "start": 9748
      }
    ],
    "1188": [
      {
        "length": 32,
        "start": 5776
      },
      {
        "length": 32,
        "start": 6036
      },
      {
        "length": 32,
        "start": 6405
      },
      {
        "length": 32,
        "start": 11049
      },
      {
        "length": 32,
        "start": 11091
      },
      {
        "length": 32,
        "start": 12163
      },
      {
        "length": 32,
        "start": 12249
      },
      {
        "length": 32,
        "start": 12678
      },
      {
        "length": 32,
        "start": 12720
      }
    ],
    "1190": [
      {
        "length": 32,
        "start": 5213
      }
    ],
    "1192": [
      {
        "length": 32,
        "start": 11013
      },
      {
        "length": 32,
        "start": 12213
      },
      {
        "length": 32,
        "start": 12642
      }
    ],
    "1194": [
      {
        "length": 32,
        "start": 5740
      },
      {
        "length": 32,
        "start": 6000
      },
      {
        "length": 32,
        "start": 6369
      },
      {
        "length": 32,
        "start": 11245
      }
    ],
    "1196": [
      {
        "length": 32,
        "start": 11478
      },
      {
        "length": 32,
        "start": 11610
      },
      {
        "length": 32,
        "start": 11742
      },
      {
        "length": 32,
        "start": 11794
      },
      {
        "length": 32,
        "start": 11917
      },
      {
        "length": 32,
        "start": 12040
      }
    ]
  },
  "source": "pragma solidity ^0.7.4;\r\npragma experimental ABIEncoderV2;\r\n\r\nimport \"./JaJanken.sol\";\r\nimport \"./JaJankenGame.sol\";\r\n\r\n// SPDX-License-Identifier: GLWTPL\r\ncontract JaJankenColiseum is JaJankenGame {\r\n    /**\r\n     * _ticketCost in wei\r\n     */\r\n    constructor(uint256 _ticketCost) JaJankenGame(\"The JaJanken Coliseum\", _ticketCost, 3, 3, 3, 4) {}\r\n\r\n    address public queued;\r\n\r\n    event PlayerJoin(\r\n        address indexed p\r\n    );\r\n\r\n    receive() external payable {\r\n    }\r\n\r\n    function joinGame() external payable override(JaJanken) {\r\n        if (msg.value >= (ticketCost + (ticketCost * entranceFee / 100))) {\r\n            if (players[msg.sender].nen == 0) {\r\n                ++alivePlayers;\r\n            }\r\n            players[msg.sender].nen += startNen;\r\n            totalGuu += (startTechniques - players[msg.sender].guu);\r\n            totalPaa += (startTechniques - players[msg.sender].paa);\r\n            totalChi += (startTechniques - players[msg.sender].chi);\r\n            players[msg.sender].guu = startTechniques;\r\n            players[msg.sender].paa = startTechniques;\r\n            players[msg.sender].chi = startTechniques;\r\n            balance += ticketCost;\r\n            fees += ticketCost * entranceFee / 100;\r\n            emit PlayerJoin({p: msg.sender});\r\n        } else {\r\n            sink += msg.value;\r\n        }\r\n    }\r\n\r\n    function joinMatch() external override(JaJanken) {\r\n        require(queued != msg.sender, \"You are already in the queue.\");\r\n        require(players[msg.sender].inMatch == 0, \"You are already in a match.\");\r\n        require(players[msg.sender].nen > 0, \"You do not have enough Nen to start a match.\");\r\n        if (queued == address(0)) {\r\n            queued = msg.sender;\r\n        } else {\r\n            matches[queued].p2 = msg.sender;\r\n            players[msg.sender].inMatch = 1;\r\n            emit MatchStart(queued, queued, msg.sender);\r\n            queued = address(0);\r\n        }\r\n    }\r\n\r\n    function playMatch(bytes32 _commitment, address _matchId) external override(JaJanken) {\r\n        if (msg.sender == _matchId) {\r\n            matches[_matchId].p1Hidden = _commitment;\r\n        } else if (msg.sender == matches[_matchId].p2) {\r\n            matches[_matchId].p2Hidden = _commitment;\r\n        } else {\r\n            revert(\"You do not belong to this match.\");\r\n        }\r\n        if (matches[_matchId].playTime != 0) {\r\n            emit MatchPlayed(_matchId);\r\n        }\r\n        matches[_matchId].playTime = block.timestamp;\r\n    }\r\n\r\n    function encodeAction(address _yourAddress, Technique _action, bytes32 _revealKey) external pure returns (bytes32) {\r\n        return keccak256(abi.encodePacked(_yourAddress, _action, _revealKey));\r\n    }\r\n\r\n    function revealMatch(Technique _action, bytes32 _revealKey, address _matchId) external override(JaJanken) {\r\n        Match memory _match = matches[_matchId];\r\n\r\n        if (msg.sender == _matchId)\r\n        {\r\n            require(this.encodeAction(msg.sender, _action, _revealKey) == _match.p1Hidden, \"invalid action\");\r\n            if (_match.pPlayed != Technique.None) {\r\n                executeMatch(_matchId, _match.p2, _action, _match.pPlayed);\r\n            } else {\r\n                matches[_matchId].pPlayed = _action;\r\n                matches[_matchId].revealTime = block.timestamp;\r\n            }\r\n        } else if (msg.sender == _match.p2) {\r\n            require(this.encodeAction(msg.sender, _action, _revealKey) == _match.p2Hidden, \"invalid action\");\r\n            if (_match.pPlayed != Technique.None) {\r\n                executeMatch(_matchId, _match.p2, _match.pPlayed, _action);\r\n            } else {\r\n                matches[_matchId].pPlayed = _action;\r\n                matches[_matchId].revealTime = block.timestamp;\r\n            }\r\n        } else {\r\n            revert(\"You do not belong to this match.\");\r\n        }\r\n    }\r\n\r\n    function executeMatch(address _p1, address _p2, Technique _p1t, Technique _p2t) internal {\r\n        if (!canUseTechnique(_p1, _p1t)) {\r\n            ++players[_p2].nen;\r\n            --players[_p1].nen;\r\n            useTechnique(_p2, _p2t);\r\n            emit MatchEnd(_p1, _p2, _p2);\r\n        }\r\n        else if (!canUseTechnique(_p2, _p2t)) {\r\n            ++players[_p1].nen;\r\n            --players[_p2].nen;\r\n            useTechnique(_p1, _p1t);\r\n            emit MatchEnd(_p1, _p2, _p1);\r\n        } else {\r\n            if (_p1t == _p2t) {\r\n                //draw\r\n                emit MatchEnd(_p1, _p2, _p1);\r\n            } else if (techniques[_p1t] == _p2t) {\r\n                ++players[_p1].nen;\r\n                --players[_p2].nen;\r\n                emit MatchEnd(_p1, _p2, _p1);\r\n            } else {\r\n                ++players[_p2].nen;\r\n                --players[_p1].nen;\r\n                emit MatchEnd(_p1, _p2, _p2);\r\n            }\r\n            useTechnique(_p1, _p1t);\r\n            useTechnique(_p2, _p2t);\r\n        }\r\n        if (players[_p1].nen == 0 || players[_p2].nen == 0) {\r\n            --alivePlayers;\r\n        }\r\n        players[_p1].inMatch = 0;\r\n        players[_p2].inMatch = 0;\r\n        Match memory newMatch;\r\n        matches[_p1] = newMatch;\r\n    }\r\n\r\n    function waitingForOpponentToPlay(address _matchId) external view override(JaJanken) returns (bool) {\r\n        Match memory _match = matches[_matchId];\r\n\r\n        if (msg.sender != _matchId || msg.sender != _match.p2) {\r\n            revert(\"You do not belong to this match.\");\r\n        }\r\n        if (_match.p1Hidden != 0 && _match.p2Hidden != 0) {\r\n            revert(\"Both players already played.\");\r\n        }\r\n        return (block.timestamp - _match.playTime) / 60 > 2;\r\n    }\r\n\r\n    function waitingForOpponentToReveal(address _matchId) external view override(JaJanken) returns (bool) {\r\n        Match memory _match = matches[_matchId];\r\n\r\n        if (msg.sender != _matchId || msg.sender != _match.p2) {\r\n            revert(\"You do not belong to this match.\");\r\n        }\r\n        if (_match.p1Hidden == 0 || _match.p2Hidden == 0) {\r\n            revert(\"One player didn't play yet.\");\r\n        }\r\n        return (block.timestamp - _match.revealTime) / 60 > 2;\r\n    }\r\n\r\n    function skipAfkDuringPlay(address _matchId) external override(JaJanken) {\r\n        if (this.waitingForOpponentToPlay(_matchId)) {\r\n            if (msg.sender == _matchId) {\r\n                ++players[msg.sender].nen;\r\n                --players[matches[_matchId].p2].nen;\r\n                emit MatchEnd(msg.sender, matches[_matchId].p2, msg.sender);\r\n            } else {\r\n                ++players[msg.sender].nen;\r\n                --players[_matchId].nen;\r\n                emit MatchEnd(msg.sender, _matchId, msg.sender);\r\n            }\r\n        }\r\n    }\r\n\r\n    function skipAfkDuringReveal(address _matchId) external override(JaJanken) {\r\n        if (this.waitingForOpponentToReveal(_matchId)) {\r\n            if (msg.sender == _matchId) {\r\n                ++players[msg.sender].nen;\r\n                --players[matches[_matchId].p2].nen;\r\n                emit MatchEnd(msg.sender, matches[_matchId].p2, msg.sender);\r\n            } else {\r\n                ++players[msg.sender].nen;\r\n                --players[_matchId].nen;\r\n                emit MatchEnd(msg.sender, _matchId, msg.sender);\r\n            }\r\n        }\r\n    }\r\n\r\n\r\n    /**\r\n     * Withdraw gains from the Game\r\n     * only available at the end of the Game, do nothing otherwise\r\n     */\r\n    function withdrawGains() external override(JaJanken) {\r\n        require(players[msg.sender].nen >= minimumNenToEarn, \"You did not meet the required Nen for leaving the Coliseum.\");\r\n        require(players[msg.sender].paa == 0 && players[msg.sender].chi == 0 && players[msg.sender].guu == 0, \"You did not play all your cards yet.\");\r\n        require(balance >= players[msg.sender].nen * (ticketCost / startNen), \"The Coliseum is out of money for now.\");\r\n        (bool success,) = msg.sender.call{value : players[msg.sender].nen * (ticketCost / startNen)}(\"Enjoy your rewards!\");\r\n        require(success, \"withdraw failed\");\r\n        emit WithdrawRewards({player : msg.sender, amount : players[msg.sender].nen * (ticketCost / startNen)});\r\n    }\r\n\r\n}",
  "sourcePath": "C:\\Users\\KevinGeorgesAndres\\Documents\\projects\\perso\\jajanken-evm\\contracts\\JaJankenColiseum.sol",
  "compiler": {
    "name": "solc",
    "version": "0.7.4+commit.3f05b770.Emscripten.clang"
  },
  "schemaVersion": "3.4.3",
  "updatedAt": "2021-10-28T06:13:34.903Z",
  "devdoc": {
    "kind": "dev",
    "methods": {},
    "version": 1
  },
  "userdoc": {
    "kind": "user",
    "methods": {
      "cleanupSink()": {
        "notice": "Cleanup sink only available for game owner"
      },
      "constructor": {
        "notice": "_ticketCost in wei"
      },
      "getPlayer(address)": {
        "notice": "Get the player profile stat for the current Game"
      },
      "getProfile()": {
        "notice": "Get your profile stat for the current Game"
      },
      "getTotalChi()": {
        "notice": "Get the number of Chi from alive players"
      },
      "getTotalGuu()": {
        "notice": "Get the number of Guu from alive players"
      },
      "getTotalPaa()": {
        "notice": "Get the number of Paa from alive players"
      },
      "getTotalPlayers()": {
        "notice": "Get the number of player alive in the game"
      },
      "joinGame()": {
        "notice": "Join a game, the caller must pay the required entrance ticket amount in ETH"
      },
      "joinMatch()": {
        "notice": "Join a queue in order to find an opponent to fight against -> Should emit a StartMatch event when an opponent is found"
      },
      "playMatch(bytes32,address)": {
        "notice": "Commit the player's action for his current match The action(Technique) must be hashed with a bytes32 key. so it can be saved with his hidden form. -> Should emit a MatchPlayed event when the last player of the Match commit his play"
      },
      "revealMatch(uint8,bytes32,address)": {
        "notice": "Reveal the player's action for his current match It is required to send the player's action with the key used to hash it previously for platMatch method -> Should emit a MatchEnd event when the last player of the Match reveal his play"
      },
      "skipAfkDuringPlay(address)": {
        "notice": "Kick your opponent from the match if conditions are met. You will win this match by default"
      },
      "skipAfkDuringReveal(address)": {
        "notice": "Kick your opponent from the match if conditions are met. You will win this match by default"
      },
      "waitingForOpponentToPlay(address)": {
        "notice": "This method will check if your opponent didn't play yet If this method return true, you will be allowed to call skipAfkDuringPlay to pass the turn of your opponent and win the match"
      },
      "waitingForOpponentToReveal(address)": {
        "notice": "This method will check if your opponent didn't reveal his play yet If this method return true, you will be allowed to call skipAfkDuringReveal to pass the turn of your opponent and win the match"
      },
      "withdrawFees()": {
        "notice": "Withdraw fees earning from the Game only available for game owner"
      },
      "withdrawGains()": {
        "notice": "Withdraw gains from the Game only available at the end of the Game, do nothing otherwise"
      }
    },
    "version": 1
  }
}