{
  "contractName": "JaJankenColiseum",
  "abi": [
    {
      "inputs": [
        {
          "internalType": "uint256",
          "name": "_ticketCost",
          "type": "uint256"
        }
      ],
      "stateMutability": "nonpayable",
      "type": "constructor"
    },
    {
      "anonymous": false,
      "inputs": [
        {
          "indexed": true,
          "internalType": "address",
          "name": "p1",
          "type": "address"
        },
        {
          "indexed": true,
          "internalType": "address",
          "name": "p2",
          "type": "address"
        },
        {
          "indexed": false,
          "internalType": "address",
          "name": "winner",
          "type": "address"
        }
      ],
      "name": "MatchEnd",
      "type": "event"
    },
    {
      "anonymous": false,
      "inputs": [
        {
          "indexed": true,
          "internalType": "address",
          "name": "matchId",
          "type": "address"
        }
      ],
      "name": "MatchPlayed",
      "type": "event"
    },
    {
      "anonymous": false,
      "inputs": [
        {
          "indexed": false,
          "internalType": "address",
          "name": "matchId",
          "type": "address"
        },
        {
          "indexed": true,
          "internalType": "address",
          "name": "p1",
          "type": "address"
        },
        {
          "indexed": true,
          "internalType": "address",
          "name": "p2",
          "type": "address"
        }
      ],
      "name": "MatchStart",
      "type": "event"
    },
    {
      "anonymous": false,
      "inputs": [
        {
          "indexed": true,
          "internalType": "address",
          "name": "p",
          "type": "address"
        }
      ],
      "name": "PlayerJoin",
      "type": "event"
    },
    {
      "anonymous": false,
      "inputs": [
        {
          "indexed": true,
          "internalType": "address",
          "name": "player",
          "type": "address"
        },
        {
          "indexed": false,
          "internalType": "uint256",
          "name": "amount",
          "type": "uint256"
        }
      ],
      "name": "WithdrawRewards",
      "type": "event"
    },
    {
      "inputs": [],
      "name": "alivePlayers",
      "outputs": [
        {
          "internalType": "uint256",
          "name": "",
          "type": "uint256"
        }
      ],
      "stateMutability": "view",
      "type": "function",
      "constant": true
    },
    {
      "inputs": [],
      "name": "balance",
      "outputs": [
        {
          "internalType": "uint256",
          "name": "",
          "type": "uint256"
        }
      ],
      "stateMutability": "view",
      "type": "function",
      "constant": true
    },
    {
      "inputs": [],
      "name": "cleanupSink",
      "outputs": [],
      "stateMutability": "nonpayable",
      "type": "function"
    },
    {
      "inputs": [],
      "name": "entranceTicketFee",
      "outputs": [
        {
          "internalType": "uint256",
          "name": "",
          "type": "uint256"
        }
      ],
      "stateMutability": "view",
      "type": "function",
      "constant": true
    },
    {
      "inputs": [],
      "name": "fees",
      "outputs": [
        {
          "internalType": "uint256",
          "name": "",
          "type": "uint256"
        }
      ],
      "stateMutability": "view",
      "type": "function",
      "constant": true
    },
    {
      "inputs": [
        {
          "internalType": "address",
          "name": "_player",
          "type": "address"
        }
      ],
      "name": "getPlayer",
      "outputs": [
        {
          "components": [
            {
              "internalType": "uint32",
              "name": "nen",
              "type": "uint32"
            },
            {
              "internalType": "uint8",
              "name": "techniques",
              "type": "uint8"
            }
          ],
          "internalType": "struct JaJanken.Opponent",
          "name": "",
          "type": "tuple"
        }
      ],
      "stateMutability": "view",
      "type": "function",
      "constant": true
    },
    {
      "inputs": [],
      "name": "getProfile",
      "outputs": [
        {
          "components": [
            {
              "internalType": "uint8",
              "name": "inMatch",
              "type": "uint8"
            },
            {
              "internalType": "uint8",
              "name": "guu",
              "type": "uint8"
            },
            {
              "internalType": "uint8",
              "name": "paa",
              "type": "uint8"
            },
            {
              "internalType": "uint8",
              "name": "chi",
              "type": "uint8"
            },
            {
              "internalType": "uint32",
              "name": "nen",
              "type": "uint32"
            }
          ],
          "internalType": "struct JaJanken.Player",
          "name": "",
          "type": "tuple"
        }
      ],
      "stateMutability": "view",
      "type": "function",
      "constant": true
    },
    {
      "inputs": [],
      "name": "getTotalChi",
      "outputs": [
        {
          "internalType": "uint256",
          "name": "",
          "type": "uint256"
        }
      ],
      "stateMutability": "view",
      "type": "function",
      "constant": true
    },
    {
      "inputs": [],
      "name": "getTotalGuu",
      "outputs": [
        {
          "internalType": "uint256",
          "name": "",
          "type": "uint256"
        }
      ],
      "stateMutability": "view",
      "type": "function",
      "constant": true
    },
    {
      "inputs": [],
      "name": "getTotalPaa",
      "outputs": [
        {
          "internalType": "uint256",
          "name": "",
          "type": "uint256"
        }
      ],
      "stateMutability": "view",
      "type": "function",
      "constant": true
    },
    {
      "inputs": [],
      "name": "getTotalPlayers",
      "outputs": [
        {
          "internalType": "uint256",
          "name": "",
          "type": "uint256"
        }
      ],
      "stateMutability": "view",
      "type": "function",
      "constant": true
    },
    {
      "inputs": [
        {
          "internalType": "address",
          "name": "",
          "type": "address"
        }
      ],
      "name": "matches",
      "outputs": [
        {
          "internalType": "address",
          "name": "p2",
          "type": "address"
        },
        {
          "internalType": "bytes32",
          "name": "p1Hidden",
          "type": "bytes32"
        },
        {
          "internalType": "bytes32",
          "name": "p2Hidden",
          "type": "bytes32"
        },
        {
          "internalType": "enum JaJanken.Technique",
          "name": "pPlayed",
          "type": "uint8"
        },
        {
          "internalType": "uint256",
          "name": "playTime",
          "type": "uint256"
        },
        {
          "internalType": "uint256",
          "name": "revealTime",
          "type": "uint256"
        }
      ],
      "stateMutability": "view",
      "type": "function",
      "constant": true
    },
    {
      "inputs": [],
      "name": "name",
      "outputs": [
        {
          "internalType": "string",
          "name": "",
          "type": "string"
        }
      ],
      "stateMutability": "view",
      "type": "function",
      "constant": true
    },
    {
      "inputs": [],
      "name": "owner",
      "outputs": [
        {
          "internalType": "address",
          "name": "",
          "type": "address"
        }
      ],
      "stateMutability": "view",
      "type": "function",
      "constant": true
    },
    {
      "inputs": [],
      "name": "queued",
      "outputs": [
        {
          "internalType": "address",
          "name": "",
          "type": "address"
        }
      ],
      "stateMutability": "view",
      "type": "function",
      "constant": true
    },
    {
      "inputs": [],
      "name": "sink",
      "outputs": [
        {
          "internalType": "uint256",
          "name": "",
          "type": "uint256"
        }
      ],
      "stateMutability": "view",
      "type": "function",
      "constant": true
    },
    {
      "inputs": [],
      "name": "totalChi",
      "outputs": [
        {
          "internalType": "uint256",
          "name": "",
          "type": "uint256"
        }
      ],
      "stateMutability": "view",
      "type": "function",
      "constant": true
    },
    {
      "inputs": [],
      "name": "totalGuu",
      "outputs": [
        {
          "internalType": "uint256",
          "name": "",
          "type": "uint256"
        }
      ],
      "stateMutability": "view",
      "type": "function",
      "constant": true
    },
    {
      "inputs": [],
      "name": "totalPaa",
      "outputs": [
        {
          "internalType": "uint256",
          "name": "",
          "type": "uint256"
        }
      ],
      "stateMutability": "view",
      "type": "function",
      "constant": true
    },
    {
      "inputs": [],
      "name": "withdrawFees",
      "outputs": [],
      "stateMutability": "nonpayable",
      "type": "function"
    },
    {
      "stateMutability": "payable",
      "type": "receive",
      "payable": true
    },
    {
      "inputs": [],
      "name": "joinGame",
      "outputs": [],
      "stateMutability": "payable",
      "type": "function",
      "payable": true
    },
    {
      "inputs": [],
      "name": "joinMatch",
      "outputs": [],
      "stateMutability": "nonpayable",
      "type": "function"
    },
    {
      "inputs": [
        {
          "internalType": "bytes32",
          "name": "_commitment",
          "type": "bytes32"
        },
        {
          "internalType": "address",
          "name": "_matchId",
          "type": "address"
        }
      ],
      "name": "playMatch",
      "outputs": [],
      "stateMutability": "nonpayable",
      "type": "function"
    },
    {
      "inputs": [
        {
          "internalType": "address",
          "name": "_yourAddress",
          "type": "address"
        },
        {
          "internalType": "enum JaJanken.Technique",
          "name": "_action",
          "type": "uint8"
        },
        {
          "internalType": "bytes32",
          "name": "_revealKey",
          "type": "bytes32"
        }
      ],
      "name": "encodeAction",
      "outputs": [
        {
          "internalType": "bytes32",
          "name": "",
          "type": "bytes32"
        }
      ],
      "stateMutability": "pure",
      "type": "function",
      "constant": true
    },
    {
      "inputs": [
        {
          "internalType": "enum JaJanken.Technique",
          "name": "_action",
          "type": "uint8"
        },
        {
          "internalType": "bytes32",
          "name": "_revealKey",
          "type": "bytes32"
        },
        {
          "internalType": "address",
          "name": "_matchId",
          "type": "address"
        }
      ],
      "name": "revealMatch",
      "outputs": [],
      "stateMutability": "nonpayable",
      "type": "function"
    },
    {
      "inputs": [
        {
          "internalType": "address",
          "name": "_matchId",
          "type": "address"
        }
      ],
      "name": "waitingForOpponentToPlay",
      "outputs": [
        {
          "internalType": "bool",
          "name": "",
          "type": "bool"
        }
      ],
      "stateMutability": "view",
      "type": "function",
      "constant": true
    },
    {
      "inputs": [
        {
          "internalType": "address",
          "name": "_matchId",
          "type": "address"
        }
      ],
      "name": "waitingForOpponentToReveal",
      "outputs": [
        {
          "internalType": "bool",
          "name": "",
          "type": "bool"
        }
      ],
      "stateMutability": "view",
      "type": "function",
      "constant": true
    },
    {
      "inputs": [
        {
          "internalType": "address",
          "name": "_matchId",
          "type": "address"
        }
      ],
      "name": "skipAfkDuringPlay",
      "outputs": [],
      "stateMutability": "nonpayable",
      "type": "function"
    },
    {
      "inputs": [
        {
          "internalType": "address",
          "name": "_matchId",
          "type": "address"
        }
      ],
      "name": "skipAfkDuringReveal",
      "outputs": [],
      "stateMutability": "nonpayable",
      "type": "function"
    },
    {
      "inputs": [],
      "name": "withdrawGains",
      "outputs": [],
      "stateMutability": "nonpayable",
      "type": "function"
    }
  ],
  "bytecode": "0x6101406040523480156200001257600080fd5b50604051620052d7380380620052d7833981810160405281019062000038919062000361565b6040518060400160405280601581526020017f546865204a614a616e6b656e20436f6c697365756d0000000000000000000000815250816003806003600485600090805190602001906200008e92919062000294565b503373ffffffffffffffffffffffffffffffffffffffff1660808173ffffffffffffffffffffffffffffffffffffffff166c010000000000000000000000000281525050600380600060016003811115620000e557fe5b6003811115620000f157fe5b815260200190815260200160002060006101000a81548160ff021916908360038111156200011b57fe5b0217905550600160036000600260038111156200013457fe5b60038111156200014057fe5b815260200190815260200160002060006101000a81548160ff021916908360038111156200016a57fe5b02179055506002600360006003808111156200018257fe5b60038111156200018e57fe5b815260200190815260200160002060006101000a81548160ff02191690836003811115620001b857fe5b02179055508260ff1660e08160ff167f010000000000000000000000000000000000000000000000000000000000000002815250508160ff166101008160ff167f010000000000000000000000000000000000000000000000000000000000000002815250508060ff166101208160ff167f010000000000000000000000000000000000000000000000000000000000000002815250508360ff1660c08160ff167f010000000000000000000000000000000000000000000000000000000000000002815250508460a0818152505050505050505050620003b1565b828054600181600116156101000203166002900490600052602060002090601f016020900481019282620002cc576000855562000318565b82601f10620002e757805160ff191683800117855562000318565b8280016001018555821562000318579182015b8281111562000317578251825591602001919060010190620002fa565b5b5090506200032791906200032b565b5090565b5b80821115620003465760008160009055506001016200032c565b5090565b6000815190506200035b8162000397565b92915050565b6000602082840312156200037457600080fd5b600062000384848285016200034a565b91505092915050565b6000819050919050565b620003a2816200038d565b8114620003ae57600080fd5b50565b6080516c01000000000000000000000000900460a05160c0517f0100000000000000000000000000000000000000000000000000000000000000900460e0517f01000000000000000000000000000000000000000000000000000000000000009004610100517f01000000000000000000000000000000000000000000000000000000000000009004610120517f01000000000000000000000000000000000000000000000000000000000000009004614ddc620004fb60003980612d535280612dd75280612e5b5280612e8f5280612f0a5280612f855250806116e952806117ed528061195e5280612c6a525080612b82528061303252806131df5250806114da52508061170d528061181152806119825280612ba65280612bd0528061300052806130565280613203528061322d52508061139b528061210252806126915250614ddc6000f3fe6080604052600436106101ee576000357c0100000000000000000000000000000000000000000000000000000000900480635745d71d116101145780639af1d35a116100b2578063cd01ab1611610081578063cd01ab1614610648578063d4f77b1c1461068a578063d6afc9b114610694578063da3b3393146106bf576101f5565b80639af1d35a1461059e578063b69ef8a8146105c9578063c74e820e146105f4578063cb13ec2d1461061f576101f5565b806365ea05d1116100ee57806365ea05d11461050a57806367ae350714610533578063739f94691461054a5780638da5cb5b14610573576101f5565b80635745d71d146104775780635c12cd4b146104a25780635eb0ad5e146104df576101f5565b806332003bc31161018c578063464be0c71161015b578063464be0c7146103f3578063476343ee1461041e578063483f0219146104355780634f6968df1461044c576101f5565b806332003bc31461033557806336847b661461036057806342c328711461039d5780634529cae7146103c8576101f5565b806316049ddf116101c857806316049ddf1461026557806325e1556e1461029057806328362bc7146102cd578063317f67441461030a576101f5565b806302c0cdc4146101fa57806306fdde03146102115780631158ed611461023c576101f5565b366101f557005b600080fd5b34801561020657600080fd5b5061020f6106ea565b005b34801561021d57600080fd5b50610226610bb1565b604051610233919061496e565b60405180910390f35b34801561024857600080fd5b50610263600480360381019061025e9190614118565b610c4f565b005b34801561027157600080fd5b5061027a610ec6565b604051610287919061486a565b60405180910390f35b34801561029c57600080fd5b506102b760048036038101906102b2919061404e565b610eec565b6040516102c49190614938565b60405180910390f35b3480156102d957600080fd5b506102f460048036038101906102ef919061404e565b611114565b6040516103019190614938565b60405180910390f35b34801561031657600080fd5b5061031f611339565b60405161032c9190614b66565b60405180910390f35b34801561034157600080fd5b5061034a61133f565b6040516103579190614b66565b60405180910390f35b34801561036c57600080fd5b5061038760048036038101906103829190614077565b611349565b6040516103949190614953565b60405180910390f35b3480156103a957600080fd5b506103b261137f565b6040516103bf9190614b66565b60405180910390f35b3480156103d457600080fd5b506103dd611385565b6040516103ea9190614b66565b60405180910390f35b3480156103ff57600080fd5b5061040861138f565b6040516104159190614b66565b60405180910390f35b34801561042a57600080fd5b50610433611399565b005b34801561044157600080fd5b5061044a6114d8565b005b34801561045857600080fd5b50610461611a1b565b60405161046e9190614b66565b60405180910390f35b34801561048357600080fd5b5061048c611a21565b6040516104999190614b66565b60405180910390f35b3480156104ae57600080fd5b506104c960048036038101906104c4919061404e565b611a27565b6040516104d69190614b30565b60405180910390f35b3480156104eb57600080fd5b506104f4611b97565b6040516105019190614b66565b60405180910390f35b34801561051657600080fd5b50610531600480360381019061052c9190614154565b611ba1565b005b34801561053f57600080fd5b50610548612100565b005b34801561055657600080fd5b50610571600480360381019061056c919061404e565b61223f565b005b34801561057f57600080fd5b5061058861268f565b604051610595919061486a565b60405180910390f35b3480156105aa57600080fd5b506105b36126b3565b6040516105c09190614b66565b60405180910390f35b3480156105d557600080fd5b506105de6126b9565b6040516105eb9190614b66565b60405180910390f35b34801561060057600080fd5b506106096126bf565b6040516106169190614b66565b60405180910390f35b34801561062b57600080fd5b506106466004803603810190610641919061404e565b6126c5565b005b34801561065457600080fd5b5061066f600480360381019061066a919061404e565b612b15565b604051610681969594939291906148d7565b60405180910390f35b610692612b7e565b005b3480156106a057600080fd5b506106a96130e8565b6040516106b69190614b4b565b60405180910390f35b3480156106cb57600080fd5b506106d46131d9565b6040516106e19190614b66565b60405180910390f35b3373ffffffffffffffffffffffffffffffffffffffff16600c60009054906101000a900473ffffffffffffffffffffffffffffffffffffffff1673ffffffffffffffffffffffffffffffffffffffff16141561077b576040517f08c379a000000000000000000000000000000000000000000000000000000000815260040161077290614990565b60405180910390fd5b6000600160003373ffffffffffffffffffffffffffffffffffffffff1673ffffffffffffffffffffffffffffffffffffffff16815260200190815260200160002060000160009054906101000a900460ff1660ff1614610810576040517f08c379a000000000000000000000000000000000000000000000000000000000815260040161080790614a70565b60405180910390fd5b6000600160003373ffffffffffffffffffffffffffffffffffffffff1673ffffffffffffffffffffffffffffffffffffffff16815260200190815260200160002060000160049054906101000a900463ffffffff1663ffffffff16116108ab576040517f08c379a00000000000000000000000000000000000000000000000000000000081526004016108a290614af0565b60405180910390fd5b600073ffffffffffffffffffffffffffffffffffffffff16600c60009054906101000a900473ffffffffffffffffffffffffffffffffffffffff1673ffffffffffffffffffffffffffffffffffffffff1614156109485733600c60006101000a81548173ffffffffffffffffffffffffffffffffffffffff021916908373ffffffffffffffffffffffffffffffffffffffff160217905550610baf565b3360026000600c60009054906101000a900473ffffffffffffffffffffffffffffffffffffffff1673ffffffffffffffffffffffffffffffffffffffff1673ffffffffffffffffffffffffffffffffffffffff16815260200190815260200160002060000160006101000a81548173ffffffffffffffffffffffffffffffffffffffff021916908373ffffffffffffffffffffffffffffffffffffffff1602179055506001806000600c60009054906101000a900473ffffffffffffffffffffffffffffffffffffffff1673ffffffffffffffffffffffffffffffffffffffff1673ffffffffffffffffffffffffffffffffffffffff16815260200190815260200160002060000160006101000a81548160ff021916908360ff16021790555060018060003373ffffffffffffffffffffffffffffffffffffffff1673ffffffffffffffffffffffffffffffffffffffff16815260200190815260200160002060000160006101000a81548160ff021916908360ff1602179055503373ffffffffffffffffffffffffffffffffffffffff16600c60009054906101000a900473ffffffffffffffffffffffffffffffffffffffff1673ffffffffffffffffffffffffffffffffffffffff167f638d6a5e87537cd02bf592bfb8916c30a2140d333b0ce073b4b0f8cc2d298a3f600c60009054906101000a900473ffffffffffffffffffffffffffffffffffffffff16604051610b64919061486a565b60405180910390a36000600c60006101000a81548173ffffffffffffffffffffffffffffffffffffffff021916908373ffffffffffffffffffffffffffffffffffffffff1602179055505b565b60008054600181600116156101000203166002900480601f016020809104026020016040519081016040528092919081815260200182805460018160011615610100020316600290048015610c475780601f10610c1c57610100808354040283529160200191610c47565b820191906000526020600020905b815481529060010190602001808311610c2a57829003601f168201915b505050505081565b8073ffffffffffffffffffffffffffffffffffffffff163373ffffffffffffffffffffffffffffffffffffffff161415610ccf5781600260008373ffffffffffffffffffffffffffffffffffffffff1673ffffffffffffffffffffffffffffffffffffffff16815260200190815260200160002060010181905550610ded565b600260008273ffffffffffffffffffffffffffffffffffffffff1673ffffffffffffffffffffffffffffffffffffffff16815260200190815260200160002060000160009054906101000a900473ffffffffffffffffffffffffffffffffffffffff1673ffffffffffffffffffffffffffffffffffffffff163373ffffffffffffffffffffffffffffffffffffffff161415610db15781600260008373ffffffffffffffffffffffffffffffffffffffff1673ffffffffffffffffffffffffffffffffffffffff16815260200190815260200160002060020181905550610dec565b6040517f08c379a0000000000000000000000000000000000000000000000000000000008152600401610de390614a10565b60405180910390fd5b5b6000600260008373ffffffffffffffffffffffffffffffffffffffff1673ffffffffffffffffffffffffffffffffffffffff1681526020019081526020016000206004015414610e7b578073ffffffffffffffffffffffffffffffffffffffff167f37198fcc7fd6b816a2d208ab394ca4fef0c9813769c325ee8a186ee452c24b7160405160405180910390a25b42600260008373ffffffffffffffffffffffffffffffffffffffff1673ffffffffffffffffffffffffffffffffffffffff168152602001908152602001600020600401819055505050565b600c60009054906101000a900473ffffffffffffffffffffffffffffffffffffffff1681565b6000610ef6613f24565b600260008473ffffffffffffffffffffffffffffffffffffffff1673ffffffffffffffffffffffffffffffffffffffff1681526020019081526020016000206040518060c00160405290816000820160009054906101000a900473ffffffffffffffffffffffffffffffffffffffff1673ffffffffffffffffffffffffffffffffffffffff1673ffffffffffffffffffffffffffffffffffffffff16815260200160018201548152602001600282015481526020016003820160009054906101000a900460ff166003811115610fc857fe5b6003811115610fd357fe5b81526020016004820154815260200160058201548152505090508273ffffffffffffffffffffffffffffffffffffffff163373ffffffffffffffffffffffffffffffffffffffff161415806110585750806000015173ffffffffffffffffffffffffffffffffffffffff163373ffffffffffffffffffffffffffffffffffffffff1614155b15611098576040517f08c379a000000000000000000000000000000000000000000000000000000000815260040161108f90614a10565b60405180910390fd5b60006001028160200151141580156110b857506000600102816040015114155b156110f8576040517f08c379a00000000000000000000000000000000000000000000000000000000081526004016110ef90614a30565b60405180910390fd5b6002603c826080015142038161110a57fe5b0411915050919050565b600061111e613f24565b600260008473ffffffffffffffffffffffffffffffffffffffff1673ffffffffffffffffffffffffffffffffffffffff1681526020019081526020016000206040518060c00160405290816000820160009054906101000a900473ffffffffffffffffffffffffffffffffffffffff1673ffffffffffffffffffffffffffffffffffffffff1673ffffffffffffffffffffffffffffffffffffffff16815260200160018201548152602001600282015481526020016003820160009054906101000a900460ff1660038111156111f057fe5b60038111156111fb57fe5b81526020016004820154815260200160058201548152505090508273ffffffffffffffffffffffffffffffffffffffff163373ffffffffffffffffffffffffffffffffffffffff161415806112805750806000015173ffffffffffffffffffffffffffffffffffffffff163373ffffffffffffffffffffffffffffffffffffffff1614155b156112c0576040517f08c379a00000000000000000000000000000000000000000000000000000000081526004016112b790614a10565b60405180910390fd5b6000600102816020015114806112dd575060006001028160400151145b1561131d576040517f08c379a0000000000000000000000000000000000000000000000000000000008152600401611314906149d0565b60405180910390fd5b6002603c8260a0015142038161132f57fe5b0411915050919050565b600a5481565b6000600954905090565b6000838383604051602001611360939291906147ee565b6040516020818303038152906040528051906020012090509392505050565b60095481565b6000600854905090565b6000600a54905090565b7f000000000000000000000000000000000000000000000000000000000000000073ffffffffffffffffffffffffffffffffffffffff163373ffffffffffffffffffffffffffffffffffffffff1614611427576040517f08c379a000000000000000000000000000000000000000000000000000000000815260040161141e906149b0565b60405180910390fd5b60003373ffffffffffffffffffffffffffffffffffffffff1660075460405161144f90614840565b60006040518083038185875af1925050503d806000811461148c576040519150601f19603f3d011682016040523d82523d6000602084013e611491565b606091505b50509050806114d5576040517f08c379a00000000000000000000000000000000000000000000000000000000081526004016114cc90614b10565b60405180910390fd5b50565b7f000000000000000000000000000000000000000000000000000000000000000060ff16600160003373ffffffffffffffffffffffffffffffffffffffff1673ffffffffffffffffffffffffffffffffffffffff16815260200190815260200160002060000160049054906101000a900463ffffffff1663ffffffff161015611596576040517f08c379a000000000000000000000000000000000000000000000000000000000815260040161158d90614a50565b60405180910390fd5b6000600160003373ffffffffffffffffffffffffffffffffffffffff1673ffffffffffffffffffffffffffffffffffffffff16815260200190815260200160002060000160029054906101000a900460ff1660ff1614801561164a57506000600160003373ffffffffffffffffffffffffffffffffffffffff1673ffffffffffffffffffffffffffffffffffffffff16815260200190815260200160002060000160039054906101000a900460ff1660ff16145b80156116a857506000600160003373ffffffffffffffffffffffffffffffffffffffff1673ffffffffffffffffffffffffffffffffffffffff16815260200190815260200160002060000160019054906101000a900460ff1660ff16145b6116e7576040517f08c379a00000000000000000000000000000000000000000000000000000000081526004016116de906149f0565b60405180910390fd5b7f000000000000000000000000000000000000000000000000000000000000000060ff167f00000000000000000000000000000000000000000000000000000000000000008161173357fe5b04600160003373ffffffffffffffffffffffffffffffffffffffff1673ffffffffffffffffffffffffffffffffffffffff16815260200190815260200160002060000160049054906101000a900463ffffffff1663ffffffff160260055410156117d2576040517f08c379a00000000000000000000000000000000000000000000000000000000081526004016117c990614ad0565b60405180910390fd5b60003373ffffffffffffffffffffffffffffffffffffffff167f000000000000000000000000000000000000000000000000000000000000000060ff167f00000000000000000000000000000000000000000000000000000000000000008161183757fe5b04600160003373ffffffffffffffffffffffffffffffffffffffff1673ffffffffffffffffffffffffffffffffffffffff16815260200190815260200160002060000160049054906101000a900463ffffffff1663ffffffff160260405161189e90614855565b60006040518083038185875af1925050503d80600081146118db576040519150601f19603f3d011682016040523d82523d6000602084013e6118e0565b606091505b5050905080611924576040517f08c379a000000000000000000000000000000000000000000000000000000000815260040161191b90614b10565b60405180910390fd5b3373ffffffffffffffffffffffffffffffffffffffff167faa1377f7ec93c239e959efa811f7b8554c036fd7a706c23e58024626a8f3db967f000000000000000000000000000000000000000000000000000000000000000060ff167f0000000000000000000000000000000000000000000000000000000000000000816119a857fe5b04600160003373ffffffffffffffffffffffffffffffffffffffff1673ffffffffffffffffffffffffffffffffffffffff16815260200190815260200160002060000160049054906101000a900463ffffffff1663ffffffff1602604051611a109190614b66565b60405180910390a250565b60085481565b600b5481565b611a2f613f81565b6040518060400160405280600160008573ffffffffffffffffffffffffffffffffffffffff1673ffffffffffffffffffffffffffffffffffffffff16815260200190815260200160002060000160049054906101000a900463ffffffff1663ffffffff168152602001600160008573ffffffffffffffffffffffffffffffffffffffff1673ffffffffffffffffffffffffffffffffffffffff16815260200190815260200160002060000160039054906101000a900460ff16600160008673ffffffffffffffffffffffffffffffffffffffff1673ffffffffffffffffffffffffffffffffffffffff16815260200190815260200160002060000160029054906101000a900460ff16600160008773ffffffffffffffffffffffffffffffffffffffff1673ffffffffffffffffffffffffffffffffffffffff16815260200190815260200160002060000160019054906101000a900460ff16010160ff168152509050919050565b6000600b54905090565b611ba9613f24565b600260008373ffffffffffffffffffffffffffffffffffffffff1673ffffffffffffffffffffffffffffffffffffffff1681526020019081526020016000206040518060c00160405290816000820160009054906101000a900473ffffffffffffffffffffffffffffffffffffffff1673ffffffffffffffffffffffffffffffffffffffff1673ffffffffffffffffffffffffffffffffffffffff16815260200160018201548152602001600282015481526020016003820160009054906101000a900460ff166003811115611c7b57fe5b6003811115611c8657fe5b81526020016004820154815260200160058201548152505090508173ffffffffffffffffffffffffffffffffffffffff163373ffffffffffffffffffffffffffffffffffffffff161415611ead5780602001513073ffffffffffffffffffffffffffffffffffffffff166336847b663387876040518463ffffffff167c0100000000000000000000000000000000000000000000000000000000028152600401611d32939291906148a0565b60206040518083038186803b158015611d4a57600080fd5b505afa158015611d5e573d6000803e3d6000fd5b505050506040513d601f19601f82011682018060405250810190611d8291906140ef565b14611dc2576040517f08c379a0000000000000000000000000000000000000000000000000000000008152600401611db990614ab0565b60405180910390fd5b60006003811115611dcf57fe5b81606001516003811115611ddf57fe5b14611dfd57611df8828260000151868460600151613252565b611ea8565b83600260008473ffffffffffffffffffffffffffffffffffffffff1673ffffffffffffffffffffffffffffffffffffffff16815260200190815260200160002060030160006101000a81548160ff02191690836003811115611e5b57fe5b021790555042600260008473ffffffffffffffffffffffffffffffffffffffff1673ffffffffffffffffffffffffffffffffffffffff168152602001908152602001600020600501819055505b6120fa565b806000015173ffffffffffffffffffffffffffffffffffffffff163373ffffffffffffffffffffffffffffffffffffffff1614156120be5780604001513073ffffffffffffffffffffffffffffffffffffffff166336847b663387876040518463ffffffff167c0100000000000000000000000000000000000000000000000000000000028152600401611f43939291906148a0565b60206040518083038186803b158015611f5b57600080fd5b505afa158015611f6f573d6000803e3d6000fd5b505050506040513d601f19601f82011682018060405250810190611f9391906140ef565b14611fd3576040517f08c379a0000000000000000000000000000000000000000000000000000000008152600401611fca90614ab0565b60405180910390fd5b60006003811115611fe057fe5b81606001516003811115611ff057fe5b1461200e57612009828260000151836060015187613252565b6120b9565b83600260008473ffffffffffffffffffffffffffffffffffffffff1673ffffffffffffffffffffffffffffffffffffffff16815260200190815260200160002060030160006101000a81548160ff0219169083600381111561206c57fe5b021790555042600260008473ffffffffffffffffffffffffffffffffffffffff1673ffffffffffffffffffffffffffffffffffffffff168152602001908152602001600020600501819055505b6120f9565b6040517f08c379a00000000000000000000000000000000000000000000000000000000081526004016120f090614a10565b60405180910390fd5b5b50505050565b7f000000000000000000000000000000000000000000000000000000000000000073ffffffffffffffffffffffffffffffffffffffff163373ffffffffffffffffffffffffffffffffffffffff161461218e576040517f08c379a0000000000000000000000000000000000000000000000000000000008152600401612185906149b0565b60405180910390fd5b60003373ffffffffffffffffffffffffffffffffffffffff166006546040516121b69061482b565b60006040518083038185875af1925050503d80600081146121f3576040519150601f19603f3d011682016040523d82523d6000602084013e6121f8565b606091505b505090508061223c576040517f08c379a000000000000000000000000000000000000000000000000000000000815260040161223390614b10565b60405180910390fd5b50565b3073ffffffffffffffffffffffffffffffffffffffff166325e1556e826040518263ffffffff167c0100000000000000000000000000000000000000000000000000000000028152600401612294919061486a565b60206040518083038186803b1580156122ac57600080fd5b505afa1580156122c0573d6000803e3d6000fd5b505050506040513d601f19601f820116820180604052508101906122e491906140c6565b1561268c578073ffffffffffffffffffffffffffffffffffffffff163373ffffffffffffffffffffffffffffffffffffffff16141561253857600160003373ffffffffffffffffffffffffffffffffffffffff1673ffffffffffffffffffffffffffffffffffffffff168152602001908152602001600020600001600481819054906101000a900463ffffffff1660010191906101000a81548163ffffffff021916908363ffffffff16021790555060016000600260008473ffffffffffffffffffffffffffffffffffffffff1673ffffffffffffffffffffffffffffffffffffffff16815260200190815260200160002060000160009054906101000a900473ffffffffffffffffffffffffffffffffffffffff1673ffffffffffffffffffffffffffffffffffffffff1673ffffffffffffffffffffffffffffffffffffffff168152602001908152602001600020600001600481819054906101000a900463ffffffff166001900391906101000a81548163ffffffff021916908363ffffffff160217905550600260008273ffffffffffffffffffffffffffffffffffffffff1673ffffffffffffffffffffffffffffffffffffffff16815260200190815260200160002060000160009054906101000a900473ffffffffffffffffffffffffffffffffffffffff1673ffffffffffffffffffffffffffffffffffffffff163373ffffffffffffffffffffffffffffffffffffffff167f45d0232df272015b311823b89d5c3d89b71eb66851a9298f549d1673c93eda593360405161252b9190614885565b60405180910390a361268b565b600160003373ffffffffffffffffffffffffffffffffffffffff1673ffffffffffffffffffffffffffffffffffffffff168152602001908152602001600020600001600481819054906101000a900463ffffffff1660010191906101000a81548163ffffffff021916908363ffffffff160217905550600160008273ffffffffffffffffffffffffffffffffffffffff1673ffffffffffffffffffffffffffffffffffffffff168152602001908152602001600020600001600481819054906101000a900463ffffffff166001900391906101000a81548163ffffffff021916908363ffffffff1602179055508073ffffffffffffffffffffffffffffffffffffffff163373ffffffffffffffffffffffffffffffffffffffff167f45d0232df272015b311823b89d5c3d89b71eb66851a9298f549d1673c93eda59336040516126829190614885565b60405180910390a35b5b50565b7f000000000000000000000000000000000000000000000000000000000000000081565b60075481565b60055481565b60065481565b3073ffffffffffffffffffffffffffffffffffffffff166328362bc7826040518263ffffffff167c010000000000000000000000000000000000000000000000000000000002815260040161271a919061486a565b60206040518083038186803b15801561273257600080fd5b505afa158015612746573d6000803e3d6000fd5b505050506040513d601f19601f8201168201806040525081019061276a91906140c6565b15612b12578073ffffffffffffffffffffffffffffffffffffffff163373ffffffffffffffffffffffffffffffffffffffff1614156129be57600160003373ffffffffffffffffffffffffffffffffffffffff1673ffffffffffffffffffffffffffffffffffffffff168152602001908152602001600020600001600481819054906101000a900463ffffffff1660010191906101000a81548163ffffffff021916908363ffffffff16021790555060016000600260008473ffffffffffffffffffffffffffffffffffffffff1673ffffffffffffffffffffffffffffffffffffffff16815260200190815260200160002060000160009054906101000a900473ffffffffffffffffffffffffffffffffffffffff1673ffffffffffffffffffffffffffffffffffffffff1673ffffffffffffffffffffffffffffffffffffffff168152602001908152602001600020600001600481819054906101000a900463ffffffff166001900391906101000a81548163ffffffff021916908363ffffffff160217905550600260008273ffffffffffffffffffffffffffffffffffffffff1673ffffffffffffffffffffffffffffffffffffffff16815260200190815260200160002060000160009054906101000a900473ffffffffffffffffffffffffffffffffffffffff1673ffffffffffffffffffffffffffffffffffffffff163373ffffffffffffffffffffffffffffffffffffffff167f45d0232df272015b311823b89d5c3d89b71eb66851a9298f549d1673c93eda59336040516129b19190614885565b60405180910390a3612b11565b600160003373ffffffffffffffffffffffffffffffffffffffff1673ffffffffffffffffffffffffffffffffffffffff168152602001908152602001600020600001600481819054906101000a900463ffffffff1660010191906101000a81548163ffffffff021916908363ffffffff160217905550600160008273ffffffffffffffffffffffffffffffffffffffff1673ffffffffffffffffffffffffffffffffffffffff168152602001908152602001600020600001600481819054906101000a900463ffffffff166001900391906101000a81548163ffffffff021916908363ffffffff1602179055508073ffffffffffffffffffffffffffffffffffffffff163373ffffffffffffffffffffffffffffffffffffffff167f45d0232df272015b311823b89d5c3d89b71eb66851a9298f549d1673c93eda5933604051612b089190614885565b60405180910390a35b5b50565b60026020528060005260406000206000915090508060000160009054906101000a900473ffffffffffffffffffffffffffffffffffffffff16908060010154908060020154908060030160009054906101000a900460ff16908060040154908060050154905086565b60647f000000000000000000000000000000000000000000000000000000000000000060ff167f00000000000000000000000000000000000000000000000000000000000000000281612bcd57fe5b047f00000000000000000000000000000000000000000000000000000000000000000134106130d5576000600160003373ffffffffffffffffffffffffffffffffffffffff1673ffffffffffffffffffffffffffffffffffffffff16815260200190815260200160002060000160049054906101000a900463ffffffff1663ffffffff161415612c6857600860008154600101919050819055505b7f000000000000000000000000000000000000000000000000000000000000000060ff16600160003373ffffffffffffffffffffffffffffffffffffffff1673ffffffffffffffffffffffffffffffffffffffff16815260200190815260200160002060000160048282829054906101000a900463ffffffff160192506101000a81548163ffffffff021916908363ffffffff160217905550600160003373ffffffffffffffffffffffffffffffffffffffff1673ffffffffffffffffffffffffffffffffffffffff16815260200190815260200160002060000160019054906101000a900460ff167f00000000000000000000000000000000000000000000000000000000000000000360ff16600960008282540192505081905550600160003373ffffffffffffffffffffffffffffffffffffffff1673ffffffffffffffffffffffffffffffffffffffff16815260200190815260200160002060000160029054906101000a900460ff167f00000000000000000000000000000000000000000000000000000000000000000360ff16600a60008282540192505081905550600160003373ffffffffffffffffffffffffffffffffffffffff1673ffffffffffffffffffffffffffffffffffffffff16815260200190815260200160002060000160039054906101000a900460ff167f00000000000000000000000000000000000000000000000000000000000000000360ff16600b600082825401925050819055507f0000000000000000000000000000000000000000000000000000000000000000600160003373ffffffffffffffffffffffffffffffffffffffff1673ffffffffffffffffffffffffffffffffffffffff16815260200190815260200160002060000160016101000a81548160ff021916908360ff1602179055507f0000000000000000000000000000000000000000000000000000000000000000600160003373ffffffffffffffffffffffffffffffffffffffff1673ffffffffffffffffffffffffffffffffffffffff16815260200190815260200160002060000160026101000a81548160ff021916908360ff1602179055507f0000000000000000000000000000000000000000000000000000000000000000600160003373ffffffffffffffffffffffffffffffffffffffff1673ffffffffffffffffffffffffffffffffffffffff16815260200190815260200160002060000160036101000a81548160ff021916908360ff1602179055507f000000000000000000000000000000000000000000000000000000000000000060056000828254019250508190555060647f000000000000000000000000000000000000000000000000000000000000000060ff167f0000000000000000000000000000000000000000000000000000000000000000028161307d57fe5b046007600082825401925050819055503373ffffffffffffffffffffffffffffffffffffffff167f29d19159c7648a908867641a43fcee2537d7ed2269efb2247320fb53ddc401ea60405160405180910390a26130e6565b346006600082825401925050819055505b565b6130f0613fa4565b600160003373ffffffffffffffffffffffffffffffffffffffff1673ffffffffffffffffffffffffffffffffffffffff1681526020019081526020016000206040518060a00160405290816000820160009054906101000a900460ff1660ff1660ff1681526020016000820160019054906101000a900460ff1660ff1660ff1681526020016000820160029054906101000a900460ff1660ff1660ff1681526020016000820160039054906101000a900460ff1660ff1660ff1681526020016000820160049054906101000a900463ffffffff1663ffffffff1663ffffffff1681525050905090565b600060647f000000000000000000000000000000000000000000000000000000000000000060ff167f0000000000000000000000000000000000000000000000000000000000000000028161322a57fe5b047f000000000000000000000000000000000000000000000000000000000000000001905090565b61325c8483613b45565b6133c157600160008473ffffffffffffffffffffffffffffffffffffffff1673ffffffffffffffffffffffffffffffffffffffff168152602001908152602001600020600001600481819054906101000a900463ffffffff1660010191906101000a81548163ffffffff021916908363ffffffff160217905550600160008573ffffffffffffffffffffffffffffffffffffffff1673ffffffffffffffffffffffffffffffffffffffff168152602001908152602001600020600001600481819054906101000a900463ffffffff166001900391906101000a81548163ffffffff021916908363ffffffff1602179055506133578382613cfb565b8273ffffffffffffffffffffffffffffffffffffffff168473ffffffffffffffffffffffffffffffffffffffff167f45d0232df272015b311823b89d5c3d89b71eb66851a9298f549d1673c93eda59856040516133b4919061486a565b60405180910390a36138cd565b6133cb8382613b45565b61353057600160008573ffffffffffffffffffffffffffffffffffffffff1673ffffffffffffffffffffffffffffffffffffffff168152602001908152602001600020600001600481819054906101000a900463ffffffff1660010191906101000a81548163ffffffff021916908363ffffffff160217905550600160008473ffffffffffffffffffffffffffffffffffffffff1673ffffffffffffffffffffffffffffffffffffffff168152602001908152602001600020600001600481819054906101000a900463ffffffff166001900391906101000a81548163ffffffff021916908363ffffffff1602179055506134c68483613cfb565b8273ffffffffffffffffffffffffffffffffffffffff168473ffffffffffffffffffffffffffffffffffffffff167f45d0232df272015b311823b89d5c3d89b71eb66851a9298f549d1673c93eda5986604051613523919061486a565b60405180910390a36138cc565b80600381111561353c57fe5b82600381111561354857fe5b14156135b8578273ffffffffffffffffffffffffffffffffffffffff168473ffffffffffffffffffffffffffffffffffffffff167f45d0232df272015b311823b89d5c3d89b71eb66851a9298f549d1673c93eda59866040516135ab919061486a565b60405180910390a36138b7565b8060038111156135c457fe5b600360008460038111156135d457fe5b60038111156135df57fe5b815260200190815260200160002060009054906101000a900460ff16600381111561360657fe5b141561376357600160008573ffffffffffffffffffffffffffffffffffffffff1673ffffffffffffffffffffffffffffffffffffffff168152602001908152602001600020600001600481819054906101000a900463ffffffff1660010191906101000a81548163ffffffff021916908363ffffffff160217905550600160008473ffffffffffffffffffffffffffffffffffffffff1673ffffffffffffffffffffffffffffffffffffffff168152602001908152602001600020600001600481819054906101000a900463ffffffff166001900391906101000a81548163ffffffff021916908363ffffffff1602179055508273ffffffffffffffffffffffffffffffffffffffff168473ffffffffffffffffffffffffffffffffffffffff167f45d0232df272015b311823b89d5c3d89b71eb66851a9298f549d1673c93eda5986604051613756919061486a565b60405180910390a36138b6565b600160008473ffffffffffffffffffffffffffffffffffffffff1673ffffffffffffffffffffffffffffffffffffffff168152602001908152602001600020600001600481819054906101000a900463ffffffff1660010191906101000a81548163ffffffff021916908363ffffffff160217905550600160008573ffffffffffffffffffffffffffffffffffffffff1673ffffffffffffffffffffffffffffffffffffffff168152602001908152602001600020600001600481819054906101000a900463ffffffff166001900391906101000a81548163ffffffff021916908363ffffffff1602179055508273ffffffffffffffffffffffffffffffffffffffff168473ffffffffffffffffffffffffffffffffffffffff167f45d0232df272015b311823b89d5c3d89b71eb66851a9298f549d1673c93eda59856040516138ad919061486a565b60405180910390a35b5b6138c18483613cfb565b6138cb8382613cfb565b5b5b6000600160008673ffffffffffffffffffffffffffffffffffffffff1673ffffffffffffffffffffffffffffffffffffffff16815260200190815260200160002060000160049054906101000a900463ffffffff1663ffffffff16148061398c57506000600160008573ffffffffffffffffffffffffffffffffffffffff1673ffffffffffffffffffffffffffffffffffffffff16815260200190815260200160002060000160049054906101000a900463ffffffff1663ffffffff16145b156139a35760086000815460019003919050819055505b6000600160008673ffffffffffffffffffffffffffffffffffffffff1673ffffffffffffffffffffffffffffffffffffffff16815260200190815260200160002060000160006101000a81548160ff021916908360ff1602179055506000600160008573ffffffffffffffffffffffffffffffffffffffff1673ffffffffffffffffffffffffffffffffffffffff16815260200190815260200160002060000160006101000a81548160ff021916908360ff160217905550613a63613f24565b80600260008773ffffffffffffffffffffffffffffffffffffffff1673ffffffffffffffffffffffffffffffffffffffff16815260200190815260200160002060008201518160000160006101000a81548173ffffffffffffffffffffffffffffffffffffffff021916908373ffffffffffffffffffffffffffffffffffffffff160217905550602082015181600101556040820151816002015560608201518160030160006101000a81548160ff02191690836003811115613b2257fe5b02179055506080820151816004015560a082015181600501559050505050505050565b600060016003811115613b5457fe5b826003811115613b6057fe5b1415613bc3576000600160008573ffffffffffffffffffffffffffffffffffffffff1673ffffffffffffffffffffffffffffffffffffffff16815260200190815260200160002060000160019054906101000a900460ff1660ff16119050613cf5565b60026003811115613bd057fe5b826003811115613bdc57fe5b1415613c3f576000600160008573ffffffffffffffffffffffffffffffffffffffff1673ffffffffffffffffffffffffffffffffffffffff16815260200190815260200160002060000160029054906101000a900460ff1660ff16119050613cf5565b600380811115613c4b57fe5b826003811115613c5757fe5b1415613cba576000600160008573ffffffffffffffffffffffffffffffffffffffff1673ffffffffffffffffffffffffffffffffffffffff16815260200190815260200160002060000160039054906101000a900460ff1660ff16119050613cf5565b6040517f08c379a0000000000000000000000000000000000000000000000000000000008152600401613cec90614a90565b60405180910390fd5b92915050565b60016003811115613d0857fe5b816003811115613d1457fe5b1415613d9e57600160008373ffffffffffffffffffffffffffffffffffffffff1673ffffffffffffffffffffffffffffffffffffffff168152602001908152602001600020600001600181819054906101000a900460ff166001900391906101000a81548160ff021916908360ff1602179055506009600081546001900391905081905550613f20565b60026003811115613dab57fe5b816003811115613db757fe5b1415613e4157600160008373ffffffffffffffffffffffffffffffffffffffff1673ffffffffffffffffffffffffffffffffffffffff168152602001908152602001600020600001600281819054906101000a900460ff166001900391906101000a81548160ff021916908360ff160217905550600a600081546001900391905081905550613f1f565b600380811115613e4d57fe5b816003811115613e5957fe5b1415613ee357600160008373ffffffffffffffffffffffffffffffffffffffff1673ffffffffffffffffffffffffffffffffffffffff168152602001908152602001600020600001600381819054906101000a900460ff166001900391906101000a81548160ff021916908360ff160217905550600b600081546001900391905081905550613f1e565b6040517f08c379a0000000000000000000000000000000000000000000000000000000008152600401613f1590614a90565b60405180910390fd5b5b5b5050565b6040518060c00160405280600073ffffffffffffffffffffffffffffffffffffffff168152602001600080191681526020016000801916815260200160006003811115613f6d57fe5b815260200160008152602001600081525090565b6040518060400160405280600063ffffffff168152602001600060ff1681525090565b6040518060a00160405280600060ff168152602001600060ff168152602001600060ff168152602001600060ff168152602001600063ffffffff1681525090565b600081359050613ff481614d51565b92915050565b60008151905061400981614d68565b92915050565b60008135905061401e81614d7f565b92915050565b60008151905061403381614d7f565b92915050565b60008135905061404881614d96565b92915050565b60006020828403121561406057600080fd5b600061406e84828501613fe5565b91505092915050565b60008060006060848603121561408c57600080fd5b600061409a86828701613fe5565b93505060206140ab86828701614039565b92505060406140bc8682870161400f565b9150509250925092565b6000602082840312156140d857600080fd5b60006140e684828501613ffa565b91505092915050565b60006020828403121561410157600080fd5b600061410f84828501614024565b91505092915050565b6000806040838503121561412b57600080fd5b60006141398582860161400f565b925050602061414a85828601613fe5565b9150509250929050565b60008060006060848603121561416957600080fd5b600061417786828701614039565b93505060206141888682870161400f565b925050604061419986828701613fe5565b9150509250925092565b6141ac81614c2a565b82525050565b6141bb81614ba8565b82525050565b6141d26141cd82614ba8565b614ca5565b82525050565b6141e181614bba565b82525050565b6141f081614bc6565b82525050565b61420761420282614bc6565b614cb7565b82525050565b61421681614c3c565b82525050565b61422d61422882614c3c565b614cd3565b82525050565b600061423e82614b81565b6142488185614b97565b9350614258818560208601614c72565b61426181614ce7565b840191505092915050565b6000614279601d83614b97565b91507f596f752061726520616c726561647920696e207468652071756575652e0000006000830152602082019050919050565b60006142b9602283614b97565b91507f4f6e6c79206f776e65722063616e2063616c6c20746869732066756e6374696f60008301527f6e2e0000000000000000000000000000000000000000000000000000000000006020830152604082019050919050565b600061431f601b83614b97565b91507f4f6e6520706c61796572206469646e277420706c6179207965742e00000000006000830152602082019050919050565b600061435f602483614b97565b91507f596f7520646964206e6f7420706c617920616c6c20796f75722063617264732060008301527f7965742e000000000000000000000000000000000000000000000000000000006020830152604082019050919050565b60006143c5600c83614b8c565b91507f636c65616e75702073696e6b00000000000000000000000000000000000000006000830152600c82019050919050565b6000614405602083614b97565b91507f596f7520646f206e6f742062656c6f6e6720746f2074686973206d617463682e6000830152602082019050919050565b6000614445601c83614b97565b91507f426f746820706c617965727320616c726561647920706c617965642e000000006000830152602082019050919050565b6000614485600d83614b8c565b91507f77697468647261772066656573000000000000000000000000000000000000006000830152600d82019050919050565b60006144c5603b83614b97565b91507f596f7520646964206e6f74206d65657420746865207265717569726564204e6560008301527f6e20666f72206c656176696e672074686520436f6c697365756d2e00000000006020830152604082019050919050565b600061452b601b83614b97565b91507f596f752061726520616c726561647920696e2061206d617463682e00000000006000830152602082019050919050565b600061456b600f83614b97565b91507f57726f6e6720746563686e6971756500000000000000000000000000000000006000830152602082019050919050565b60006145ab600e83614b97565b91507f696e76616c696420616374696f6e0000000000000000000000000000000000006000830152602082019050919050565b60006145eb601383614b8c565b91507f456e6a6f7920796f7572207265776172647321000000000000000000000000006000830152601382019050919050565b600061462b602583614b97565b91507f54686520436f6c697365756d206973206f7574206f66206d6f6e657920666f7260008301527f206e6f772e0000000000000000000000000000000000000000000000000000006020830152604082019050919050565b6000614691602c83614b97565b91507f596f7520646f206e6f74206861766520656e6f756768204e656e20746f20737460008301527f6172742061206d617463682e00000000000000000000000000000000000000006020830152604082019050919050565b60006146f7600f83614b97565b91507f7769746864726177206661696c656400000000000000000000000000000000006000830152602082019050919050565b60408201600082015161474060008501826147d0565b50602082015161475360208501826147df565b50505050565b60a08201600082015161476f60008501826147df565b50602082015161478260208501826147df565b50604082015161479560408501826147df565b5060608201516147a860608501826147df565b5060808201516147bb60808501826147d0565b50505050565b6147ca81614c03565b82525050565b6147d981614c0d565b82525050565b6147e881614c1d565b82525050565b60006147fa82866141c1565b60148201915061480a828561421c565b60018201915061481a82846141f6565b602082019150819050949350505050565b6000614836826143b8565b9150819050919050565b600061484b82614478565b9150819050919050565b6000614860826145de565b9150819050919050565b600060208201905061487f60008301846141b2565b92915050565b600060208201905061489a60008301846141a3565b92915050565b60006060820190506148b560008301866141a3565b6148c2602083018561420d565b6148cf60408301846141e7565b949350505050565b600060c0820190506148ec60008301896141b2565b6148f960208301886141e7565b61490660408301876141e7565b614913606083018661420d565b61492060808301856147c1565b61492d60a08301846147c1565b979650505050505050565b600060208201905061494d60008301846141d8565b92915050565b600060208201905061496860008301846141e7565b92915050565b600060208201905081810360008301526149888184614233565b905092915050565b600060208201905081810360008301526149a98161426c565b9050919050565b600060208201905081810360008301526149c9816142ac565b9050919050565b600060208201905081810360008301526149e981614312565b9050919050565b60006020820190508181036000830152614a0981614352565b9050919050565b60006020820190508181036000830152614a29816143f8565b9050919050565b60006020820190508181036000830152614a4981614438565b9050919050565b60006020820190508181036000830152614a69816144b8565b9050919050565b60006020820190508181036000830152614a898161451e565b9050919050565b60006020820190508181036000830152614aa98161455e565b9050919050565b60006020820190508181036000830152614ac98161459e565b9050919050565b60006020820190508181036000830152614ae98161461e565b9050919050565b60006020820190508181036000830152614b0981614684565b9050919050565b60006020820190508181036000830152614b29816146ea565b9050919050565b6000604082019050614b45600083018461472a565b92915050565b600060a082019050614b606000830184614759565b92915050565b6000602082019050614b7b60008301846147c1565b92915050565b600081519050919050565b600081905092915050565b600082825260208201905092915050565b6000614bb382614be3565b9050919050565b60008115159050919050565b6000819050919050565b6000819050614bde82614d3d565b919050565b600073ffffffffffffffffffffffffffffffffffffffff82169050919050565b6000819050919050565b600063ffffffff82169050919050565b600060ff82169050919050565b6000614c3582614c4e565b9050919050565b6000614c4782614bd0565b9050919050565b6000614c5982614c60565b9050919050565b6000614c6b82614be3565b9050919050565b60005b83811015614c90578082015181840152602081019050614c75565b83811115614c9f576000848401525b50505050565b6000614cb082614cc1565b9050919050565b6000819050919050565b6000614ccc82614d24565b9050919050565b6000614cde82614cf8565b9050919050565bfe5b6000601f19601f8301169050919050565b60007f010000000000000000000000000000000000000000000000000000000000000082029050919050565b60006c0100000000000000000000000082029050919050565b60048110614d4e57614d4d614ce5565b5b50565b614d5a81614ba8565b8114614d6557600080fd5b50565b614d7181614bba565b8114614d7c57600080fd5b50565b614d8881614bc6565b8114614d9357600080fd5b50565b60048110614da357600080fd5b5056fea2646970667358221220f720c7c49cb6e2dc8b09722f4f5e76e9f055c305d46d90b47431a59607680d5564736f6c63430007040033",
  "immutableReferences": {
    "1165": [
      {
        "length": 32,
        "start": 5019
      },
      {
        "length": 32,
        "start": 8450
      },
      {
        "length": 32,
        "start": 9873
      }
    ],
    "1195": [
      {
        "length": 32,
        "start": 5901
      },
      {
        "length": 32,
        "start": 6161
      },
      {
        "length": 32,
        "start": 6530
      },
      {
        "length": 32,
        "start": 11174
      },
      {
        "length": 32,
        "start": 11216
      },
      {
        "length": 32,
        "start": 12288
      },
      {
        "length": 32,
        "start": 12374
      },
      {
        "length": 32,
        "start": 12803
      },
      {
        "length": 32,
        "start": 12845
      }
    ],
    "1197": [
      {
        "length": 32,
        "start": 5338
      }
    ],
    "1199": [
      {
        "length": 32,
        "start": 11138
      },
      {
        "length": 32,
        "start": 12338
      },
      {
        "length": 32,
        "start": 12767
      }
    ],
    "1201": [
      {
        "length": 32,
        "start": 5865
      },
      {
        "length": 32,
        "start": 6125
      },
      {
        "length": 32,
        "start": 6494
      },
      {
        "length": 32,
        "start": 11370
      }
    ],
    "1203": [
      {
        "length": 32,
        "start": 11603
      },
      {
        "length": 32,
        "start": 11735
      },
      {
        "length": 32,
        "start": 11867
      },
      {
        "length": 32,
        "start": 11919
      },
      {
        "length": 32,
        "start": 12042
      },
      {
        "length": 32,
        "start": 12165
      }
    ]
  },
  "source": "pragma solidity ^0.7.4;\r\npragma experimental ABIEncoderV2;\r\n\r\nimport \"./JaJanken.sol\";\r\nimport \"./JaJankenGame.sol\";\r\n\r\n// SPDX-License-Identifier: GLWTPL\r\ncontract JaJankenColiseum is JaJankenGame {\r\n    /**\r\n     * _ticketCost in wei\r\n     */\r\n    constructor(uint256 _ticketCost) JaJankenGame(\"The JaJanken Coliseum\", _ticketCost, 3, 3, 3, 4) {}\r\n\r\n    address public queued;\r\n\r\n    event PlayerJoin(\r\n        address indexed p\r\n    );\r\n\r\n    receive() external payable {\r\n    }\r\n\r\n    function joinGame() external payable override(JaJanken) {\r\n        if (msg.value >= (ticketCost + (ticketCost * entranceFee / 100))) {\r\n            if (players[msg.sender].nen == 0) {\r\n                ++alivePlayers;\r\n            }\r\n            players[msg.sender].nen += startNen;\r\n            totalGuu += (startTechniques - players[msg.sender].guu);\r\n            totalPaa += (startTechniques - players[msg.sender].paa);\r\n            totalChi += (startTechniques - players[msg.sender].chi);\r\n            players[msg.sender].guu = startTechniques;\r\n            players[msg.sender].paa = startTechniques;\r\n            players[msg.sender].chi = startTechniques;\r\n            balance += ticketCost;\r\n            fees += ticketCost * entranceFee / 100;\r\n            emit PlayerJoin({p: msg.sender});\r\n        } else {\r\n            sink += msg.value;\r\n        }\r\n    }\r\n\r\n    function joinMatch() external override(JaJanken) {\r\n        require(queued != msg.sender, \"You are already in the queue.\");\r\n        require(players[msg.sender].inMatch == 0, \"You are already in a match.\");\r\n        require(players[msg.sender].nen > 0, \"You do not have enough Nen to start a match.\");\r\n        if (queued == address(0)) {\r\n            queued = msg.sender;\r\n        } else {\r\n            matches[queued].p2 = msg.sender;\r\n            players[queued].inMatch = 1;\r\n            players[msg.sender].inMatch = 1;\r\n            emit MatchStart(queued, queued, msg.sender);\r\n            queued = address(0);\r\n        }\r\n    }\r\n\r\n    function playMatch(bytes32 _commitment, address _matchId) external override(JaJanken) {\r\n        if (msg.sender == _matchId) {\r\n            matches[_matchId].p1Hidden = _commitment;\r\n        } else if (msg.sender == matches[_matchId].p2) {\r\n            matches[_matchId].p2Hidden = _commitment;\r\n        } else {\r\n            revert(\"You do not belong to this match.\");\r\n        }\r\n        if (matches[_matchId].playTime != 0) {\r\n            emit MatchPlayed(_matchId);\r\n        }\r\n        matches[_matchId].playTime = block.timestamp;\r\n    }\r\n\r\n    function encodeAction(address _yourAddress, Technique _action, bytes32 _revealKey) external pure returns (bytes32) {\r\n        return keccak256(abi.encodePacked(_yourAddress, _action, _revealKey));\r\n    }\r\n\r\n    function revealMatch(Technique _action, bytes32 _revealKey, address _matchId) external override(JaJanken) {\r\n        Match memory _match = matches[_matchId];\r\n\r\n        if (msg.sender == _matchId)\r\n        {\r\n            require(this.encodeAction(msg.sender, _action, _revealKey) == _match.p1Hidden, \"invalid action\");\r\n            if (_match.pPlayed != Technique.None) {\r\n                executeMatch(_matchId, _match.p2, _action, _match.pPlayed);\r\n            } else {\r\n                matches[_matchId].pPlayed = _action;\r\n                matches[_matchId].revealTime = block.timestamp;\r\n            }\r\n        } else if (msg.sender == _match.p2) {\r\n            require(this.encodeAction(msg.sender, _action, _revealKey) == _match.p2Hidden, \"invalid action\");\r\n            if (_match.pPlayed != Technique.None) {\r\n                executeMatch(_matchId, _match.p2, _match.pPlayed, _action);\r\n            } else {\r\n                matches[_matchId].pPlayed = _action;\r\n                matches[_matchId].revealTime = block.timestamp;\r\n            }\r\n        } else {\r\n            revert(\"You do not belong to this match.\");\r\n        }\r\n    }\r\n\r\n    function executeMatch(address _p1, address _p2, Technique _p1t, Technique _p2t) internal {\r\n        if (!canUseTechnique(_p1, _p1t)) {\r\n            ++players[_p2].nen;\r\n            --players[_p1].nen;\r\n            useTechnique(_p2, _p2t);\r\n            emit MatchEnd(_p1, _p2, _p2);\r\n        }\r\n        else if (!canUseTechnique(_p2, _p2t)) {\r\n            ++players[_p1].nen;\r\n            --players[_p2].nen;\r\n            useTechnique(_p1, _p1t);\r\n            emit MatchEnd(_p1, _p2, _p1);\r\n        } else {\r\n            if (_p1t == _p2t) {\r\n                //draw\r\n                emit MatchEnd(_p1, _p2, _p1);\r\n            } else if (techniques[_p1t] == _p2t) {\r\n                ++players[_p1].nen;\r\n                --players[_p2].nen;\r\n                emit MatchEnd(_p1, _p2, _p1);\r\n            } else {\r\n                ++players[_p2].nen;\r\n                --players[_p1].nen;\r\n                emit MatchEnd(_p1, _p2, _p2);\r\n            }\r\n            useTechnique(_p1, _p1t);\r\n            useTechnique(_p2, _p2t);\r\n        }\r\n        if (players[_p1].nen == 0 || players[_p2].nen == 0) {\r\n            --alivePlayers;\r\n        }\r\n        players[_p1].inMatch = 0;\r\n        players[_p2].inMatch = 0;\r\n        Match memory newMatch;\r\n        matches[_p1] = newMatch;\r\n    }\r\n\r\n    function waitingForOpponentToPlay(address _matchId) external view override(JaJanken) returns (bool) {\r\n        Match memory _match = matches[_matchId];\r\n\r\n        if (msg.sender != _matchId || msg.sender != _match.p2) {\r\n            revert(\"You do not belong to this match.\");\r\n        }\r\n        if (_match.p1Hidden != 0 && _match.p2Hidden != 0) {\r\n            revert(\"Both players already played.\");\r\n        }\r\n        return (block.timestamp - _match.playTime) / 60 > 2;\r\n    }\r\n\r\n    function waitingForOpponentToReveal(address _matchId) external view override(JaJanken) returns (bool) {\r\n        Match memory _match = matches[_matchId];\r\n\r\n        if (msg.sender != _matchId || msg.sender != _match.p2) {\r\n            revert(\"You do not belong to this match.\");\r\n        }\r\n        if (_match.p1Hidden == 0 || _match.p2Hidden == 0) {\r\n            revert(\"One player didn't play yet.\");\r\n        }\r\n        return (block.timestamp - _match.revealTime) / 60 > 2;\r\n    }\r\n\r\n    function skipAfkDuringPlay(address _matchId) external override(JaJanken) {\r\n        if (this.waitingForOpponentToPlay(_matchId)) {\r\n            if (msg.sender == _matchId) {\r\n                ++players[msg.sender].nen;\r\n                --players[matches[_matchId].p2].nen;\r\n                emit MatchEnd(msg.sender, matches[_matchId].p2, msg.sender);\r\n            } else {\r\n                ++players[msg.sender].nen;\r\n                --players[_matchId].nen;\r\n                emit MatchEnd(msg.sender, _matchId, msg.sender);\r\n            }\r\n        }\r\n    }\r\n\r\n    function skipAfkDuringReveal(address _matchId) external override(JaJanken) {\r\n        if (this.waitingForOpponentToReveal(_matchId)) {\r\n            if (msg.sender == _matchId) {\r\n                ++players[msg.sender].nen;\r\n                --players[matches[_matchId].p2].nen;\r\n                emit MatchEnd(msg.sender, matches[_matchId].p2, msg.sender);\r\n            } else {\r\n                ++players[msg.sender].nen;\r\n                --players[_matchId].nen;\r\n                emit MatchEnd(msg.sender, _matchId, msg.sender);\r\n            }\r\n        }\r\n    }\r\n\r\n\r\n    /**\r\n     * Withdraw gains from the Game\r\n     * only available at the end of the Game, do nothing otherwise\r\n     */\r\n    function withdrawGains() external override(JaJanken) {\r\n        require(players[msg.sender].nen >= minimumNenToEarn, \"You did not meet the required Nen for leaving the Coliseum.\");\r\n        require(players[msg.sender].paa == 0 && players[msg.sender].chi == 0 && players[msg.sender].guu == 0, \"You did not play all your cards yet.\");\r\n        require(balance >= players[msg.sender].nen * (ticketCost / startNen), \"The Coliseum is out of money for now.\");\r\n        (bool success,) = msg.sender.call{value : players[msg.sender].nen * (ticketCost / startNen)}(\"Enjoy your rewards!\");\r\n        require(success, \"withdraw failed\");\r\n        emit WithdrawRewards({player : msg.sender, amount : players[msg.sender].nen * (ticketCost / startNen)});\r\n    }\r\n\r\n}",
  "sourcePath": "C:\\Users\\KevinGeorgesAndres\\Documents\\projects\\perso\\jajanken-evm\\contracts\\JaJankenColiseum.sol",
  "compiler": {
    "name": "solc",
    "version": "0.7.4+commit.3f05b770.Emscripten.clang"
  },
  "schemaVersion": "3.4.3",
  "updatedAt": "2021-10-28T08:32:53.439Z",
  "networkType": "ethereum",
  "devdoc": {
    "kind": "dev",
    "methods": {},
    "version": 1
  },
  "userdoc": {
    "kind": "user",
    "methods": {
      "cleanupSink()": {
        "notice": "Cleanup sink only available for game owner"
      },
      "constructor": {
        "notice": "_ticketCost in wei"
      },
      "getPlayer(address)": {
        "notice": "Get the player profile stat for the current Game"
      },
      "getProfile()": {
        "notice": "Get your profile stat for the current Game"
      },
      "getTotalChi()": {
        "notice": "Get the number of Chi from alive players"
      },
      "getTotalGuu()": {
        "notice": "Get the number of Guu from alive players"
      },
      "getTotalPaa()": {
        "notice": "Get the number of Paa from alive players"
      },
      "getTotalPlayers()": {
        "notice": "Get the number of player alive in the game"
      },
      "joinGame()": {
        "notice": "Join a game, the caller must pay the required entrance ticket amount in ETH"
      },
      "joinMatch()": {
        "notice": "Join a queue in order to find an opponent to fight against -> Should emit a StartMatch event when an opponent is found"
      },
      "playMatch(bytes32,address)": {
        "notice": "Commit the player's action for his current match The action(Technique) must be hashed with a bytes32 key. so it can be saved with his hidden form. -> Should emit a MatchPlayed event when the last player of the Match commit his play"
      },
      "revealMatch(uint8,bytes32,address)": {
        "notice": "Reveal the player's action for his current match It is required to send the player's action with the key used to hash it previously for platMatch method -> Should emit a MatchEnd event when the last player of the Match reveal his play"
      },
      "skipAfkDuringPlay(address)": {
        "notice": "Kick your opponent from the match if conditions are met. You will win this match by default"
      },
      "skipAfkDuringReveal(address)": {
        "notice": "Kick your opponent from the match if conditions are met. You will win this match by default"
      },
      "waitingForOpponentToPlay(address)": {
        "notice": "This method will check if your opponent didn't play yet If this method return true, you will be allowed to call skipAfkDuringPlay to pass the turn of your opponent and win the match"
      },
      "waitingForOpponentToReveal(address)": {
        "notice": "This method will check if your opponent didn't reveal his play yet If this method return true, you will be allowed to call skipAfkDuringReveal to pass the turn of your opponent and win the match"
      },
      "withdrawFees()": {
        "notice": "Withdraw fees earning from the Game only available for game owner"
      },
      "withdrawGains()": {
        "notice": "Withdraw gains from the Game only available at the end of the Game, do nothing otherwise"
      }
    },
    "version": 1
  }
}